{
  "_format": "hh-sol-artifact-1",
  "contractName": "TazMessage",
  "sourceName": "contracts/TazMessage.sol",
  "abi": [
    {
      "inputs": [
        {
          "internalType": "contract ISemaphore",
          "name": "semaContractAddr",
          "type": "address"
        }
      ],
      "stateMutability": "nonpayable",
      "type": "constructor"
    },
    {
      "anonymous": false,
      "inputs": [
        {
          "indexed": true,
          "internalType": "uint256",
          "name": "groupId",
          "type": "uint256"
        },
        {
          "indexed": false,
          "internalType": "uint256",
          "name": "identityCommitment",
          "type": "uint256"
        }
      ],
      "name": "MemberAdded",
      "type": "event"
    },
    {
      "anonymous": false,
      "inputs": [
        {
          "indexed": false,
          "internalType": "string",
          "name": "parentMessageId",
          "type": "string"
        },
        {
          "indexed": false,
          "internalType": "string",
          "name": "messageId",
          "type": "string"
        },
        {
          "indexed": false,
          "internalType": "uint256",
          "name": "messageNum",
          "type": "uint256"
        },
        {
          "indexed": false,
          "internalType": "string",
          "name": "messageContent",
          "type": "string"
        }
      ],
      "name": "MessageAdded",
      "type": "event"
    },
    {
      "anonymous": false,
      "inputs": [
        {
          "indexed": true,
          "internalType": "bytes32",
          "name": "role",
          "type": "bytes32"
        },
        {
          "indexed": true,
          "internalType": "bytes32",
          "name": "previousAdminRole",
          "type": "bytes32"
        },
        {
          "indexed": true,
          "internalType": "bytes32",
          "name": "newAdminRole",
          "type": "bytes32"
        }
      ],
      "name": "RoleAdminChanged",
      "type": "event"
    },
    {
      "anonymous": false,
      "inputs": [
        {
          "indexed": true,
          "internalType": "bytes32",
          "name": "role",
          "type": "bytes32"
        },
        {
          "indexed": true,
          "internalType": "address",
          "name": "account",
          "type": "address"
        },
        {
          "indexed": true,
          "internalType": "address",
          "name": "sender",
          "type": "address"
        }
      ],
      "name": "RoleGranted",
      "type": "event"
    },
    {
      "anonymous": false,
      "inputs": [
        {
          "indexed": true,
          "internalType": "bytes32",
          "name": "role",
          "type": "bytes32"
        },
        {
          "indexed": true,
          "internalType": "address",
          "name": "account",
          "type": "address"
        },
        {
          "indexed": true,
          "internalType": "address",
          "name": "sender",
          "type": "address"
        }
      ],
      "name": "RoleRevoked",
      "type": "event"
    },
    {
      "anonymous": false,
      "inputs": [
        {
          "indexed": false,
          "internalType": "uint256",
          "name": "messageNum",
          "type": "uint256"
        },
        {
          "indexed": false,
          "internalType": "address",
          "name": "reviewer",
          "type": "address"
        }
      ],
      "name": "ViolationAdded",
      "type": "event"
    },
    {
      "inputs": [],
      "name": "DEFAULT_ADMIN_ROLE",
      "outputs": [
        {
          "internalType": "bytes32",
          "name": "",
          "type": "bytes32"
        }
      ],
      "stateMutability": "view",
      "type": "function"
    },
    {
      "inputs": [],
      "name": "REVIEWER_ROLE",
      "outputs": [
        {
          "internalType": "bytes32",
          "name": "",
          "type": "bytes32"
        }
      ],
      "stateMutability": "view",
      "type": "function"
    },
    {
      "inputs": [],
      "name": "TAZ_ADMIN_ROLE",
      "outputs": [
        {
          "internalType": "bytes32",
          "name": "",
          "type": "bytes32"
        }
      ],
      "stateMutability": "view",
      "type": "function"
    },
    {
      "inputs": [
        {
          "internalType": "uint256",
          "name": "groupId",
          "type": "uint256"
        },
        {
          "internalType": "uint256",
          "name": "identityCommitment",
          "type": "uint256"
        }
      ],
      "name": "addMember",
      "outputs": [],
      "stateMutability": "nonpayable",
      "type": "function"
    },
    {
      "inputs": [
        {
          "internalType": "string",
          "name": "messageId",
          "type": "string"
        },
        {
          "internalType": "string",
          "name": "messageContent",
          "type": "string"
        },
        {
          "internalType": "uint256",
          "name": "groupId",
          "type": "uint256"
        },
        {
          "internalType": "uint256",
          "name": "merkleTreeRoot",
          "type": "uint256"
        },
        {
          "internalType": "bytes32",
          "name": "signal",
          "type": "bytes32"
        },
        {
          "internalType": "uint256",
          "name": "nullifierHash",
          "type": "uint256"
        },
        {
          "internalType": "uint256",
          "name": "externalNullifier",
          "type": "uint256"
        },
        {
          "internalType": "uint256[8]",
          "name": "proof",
          "type": "uint256[8]"
        }
      ],
      "name": "addMessage",
      "outputs": [
        {
          "internalType": "uint256",
          "name": "",
          "type": "uint256"
        }
      ],
      "stateMutability": "nonpayable",
      "type": "function"
    },
    {
      "inputs": [
        {
          "internalType": "address[]",
          "name": "reviewers",
          "type": "address[]"
        }
      ],
      "name": "addReviewers",
      "outputs": [],
      "stateMutability": "nonpayable",
      "type": "function"
    },
    {
      "inputs": [
        {
          "internalType": "uint256",
          "name": "messageNum",
          "type": "uint256"
        }
      ],
      "name": "addViolation",
      "outputs": [],
      "stateMutability": "nonpayable",
      "type": "function"
    },
    {
      "inputs": [
        {
          "internalType": "bytes32",
          "name": "role",
          "type": "bytes32"
        }
      ],
      "name": "getRoleAdmin",
      "outputs": [
        {
          "internalType": "bytes32",
          "name": "",
          "type": "bytes32"
        }
      ],
      "stateMutability": "view",
      "type": "function"
    },
    {
      "inputs": [
        {
          "internalType": "bytes32",
          "name": "role",
          "type": "bytes32"
        },
        {
          "internalType": "address",
          "name": "account",
          "type": "address"
        }
      ],
      "name": "grantRole",
      "outputs": [],
      "stateMutability": "nonpayable",
      "type": "function"
    },
    {
      "inputs": [
        {
          "internalType": "bytes32",
          "name": "role",
          "type": "bytes32"
        },
        {
          "internalType": "address",
          "name": "account",
          "type": "address"
        }
      ],
      "name": "hasRole",
      "outputs": [
        {
          "internalType": "bool",
          "name": "",
          "type": "bool"
        }
      ],
      "stateMutability": "view",
      "type": "function"
    },
    {
      "inputs": [
        {
          "internalType": "address[]",
          "name": "reviewers",
          "type": "address[]"
        }
      ],
      "name": "removeReviewers",
      "outputs": [],
      "stateMutability": "nonpayable",
      "type": "function"
    },
    {
      "inputs": [
        {
          "internalType": "bytes32",
          "name": "role",
          "type": "bytes32"
        },
        {
          "internalType": "address",
          "name": "account",
          "type": "address"
        }
      ],
      "name": "renounceRole",
      "outputs": [],
      "stateMutability": "nonpayable",
      "type": "function"
    },
    {
      "inputs": [
        {
          "internalType": "string",
          "name": "parentMessageId",
          "type": "string"
        },
        {
          "internalType": "string",
          "name": "messageId",
          "type": "string"
        },
        {
          "internalType": "string",
          "name": "messageContent",
          "type": "string"
        },
        {
          "internalType": "uint256",
          "name": "groupId",
          "type": "uint256"
        },
        {
          "internalType": "uint256",
          "name": "merkleTreeRoot",
          "type": "uint256"
        },
        {
          "internalType": "bytes32",
          "name": "signal",
          "type": "bytes32"
        },
        {
          "internalType": "uint256",
          "name": "nullifierHash",
          "type": "uint256"
        },
        {
          "internalType": "uint256",
          "name": "externalNullifier",
          "type": "uint256"
        },
        {
          "internalType": "uint256[8]",
          "name": "proof",
          "type": "uint256[8]"
        }
      ],
      "name": "replyToMessage",
      "outputs": [
        {
          "internalType": "uint256",
          "name": "",
          "type": "uint256"
        }
      ],
      "stateMutability": "nonpayable",
      "type": "function"
    },
    {
      "inputs": [
        {
          "internalType": "bytes32",
          "name": "role",
          "type": "bytes32"
        },
        {
          "internalType": "address",
          "name": "account",
          "type": "address"
        }
      ],
      "name": "revokeRole",
      "outputs": [],
      "stateMutability": "nonpayable",
      "type": "function"
    },
    {
      "inputs": [],
      "name": "semaContract",
      "outputs": [
        {
          "internalType": "contract ISemaphore",
          "name": "",
          "type": "address"
        }
      ],
      "stateMutability": "view",
      "type": "function"
    },
    {
      "inputs": [
        {
          "internalType": "bytes4",
          "name": "interfaceId",
          "type": "bytes4"
        }
      ],
      "name": "supportsInterface",
      "outputs": [
        {
          "internalType": "bool",
          "name": "",
          "type": "bool"
        }
      ],
      "stateMutability": "view",
      "type": "function"
    },
    {
      "inputs": [
        {
          "internalType": "uint256",
          "name": "groupId",
          "type": "uint256"
        },
        {
          "internalType": "address",
          "name": "newAdmin",
          "type": "address"
        }
      ],
      "name": "updateSemaphoreGroupAdmin",
      "outputs": [],
      "stateMutability": "nonpayable",
      "type": "function"
    }
  ],
  "bytecode": "0x60806040523480156200001157600080fd5b5060405162002426380380620024268339818101604052810190620000379190620003c5565b80600160006101000a81548173ffffffffffffffffffffffffffffffffffffffff021916908373ffffffffffffffffffffffffffffffffffffffff160217905550620000aa7f4636e38b5d73cef5ec0bdf8ec3e0565138a2bfe53888f9e988b51165659d842e806200014c60201b60201c565b620000fc7fc10c77be35aff266144ed64c26a1fa104bae2f284ae99ac4a34203454704a1857f4636e38b5d73cef5ec0bdf8ec3e0565138a2bfe53888f9e988b51165659d842e6200014c60201b60201c565b6200012e7f4636e38b5d73cef5ec0bdf8ec3e0565138a2bfe53888f9e988b51165659d842e33620001af60201b60201c565b620001456003620002a060201b62000bf51760201c565b50620003f7565b60006200015f83620002b660201b60201c565b905081600080858152602001908152602001600020600101819055508181847fbd79b86ffe0ab8e8776151514217cd7cacd52c909f66475c3af44e129f0b00ff60405160405180910390a4505050565b620001c18282620002d560201b60201c565b6200029c57600160008084815260200190815260200160002060000160008373ffffffffffffffffffffffffffffffffffffffff1673ffffffffffffffffffffffffffffffffffffffff16815260200190815260200160002060006101000a81548160ff021916908315150217905550620002416200033f60201b60201c565b73ffffffffffffffffffffffffffffffffffffffff168173ffffffffffffffffffffffffffffffffffffffff16837f2f8788117e7eff1d82e926ec794901d17c78024a50270940304540a733656f0d60405160405180910390a45b5050565b6001816000016000828254019250508190555050565b6000806000838152602001908152602001600020600101549050919050565b600080600084815260200190815260200160002060000160008373ffffffffffffffffffffffffffffffffffffffff1673ffffffffffffffffffffffffffffffffffffffff16815260200190815260200160002060009054906101000a900460ff16905092915050565b600033905090565b600080fd5b600073ffffffffffffffffffffffffffffffffffffffff82169050919050565b600062000379826200034c565b9050919050565b60006200038d826200036c565b9050919050565b6200039f8162000380565b8114620003ab57600080fd5b50565b600081519050620003bf8162000394565b92915050565b600060208284031215620003de57620003dd62000347565b5b6000620003ee84828501620003ae565b91505092915050565b61201f80620004076000396000f3fe608060405234801561001057600080fd5b506004361061010b5760003560e01c80636db92666116100a2578063a217fddf11610071578063a217fddf146102a2578063a53beac4146102c0578063d1871e60146102f0578063d547741f14610320578063d6b91e9f1461033c5761010b565b80636db926661461021a578063785b55f8146102365780638a8deed71461025457806391d14854146102725761010b565b80632f2ff15d116100de5780632f2ff15d146101a857806336568abe146101c45780633b129a56146101e057806367c608da146101fe5761010b565b806301ffc9a71461011057806317147064146101405780631783efc31461015c578063248a9ca314610178575b600080fd5b61012a600480360381019061012591906111cd565b610358565b6040516101379190611215565b60405180910390f35b61015a60048036038101906101559190611295565b6103d2565b005b61017660048036038101906101719190611318565b61047a565b005b610192600480360381019061018d919061138e565b6105ff565b60405161019f91906113ca565b60405180910390f35b6101c260048036038101906101bd9190611443565b61061e565b005b6101de60048036038101906101d99190611443565b610647565b005b6101e86106ca565b6040516101f591906113ca565b60405180910390f35b61021860048036038101906102139190611483565b6106ee565b005b610234600480360381019061022f91906114c3565b6107b4565b005b61023e610823565b60405161024b91906113ca565b60405180910390f35b61025c610847565b604051610269919061154f565b60405180910390f35b61028c60048036038101906102879190611443565b61086d565b6040516102999190611215565b60405180910390f35b6102aa6108d7565b6040516102b791906113ca565b60405180910390f35b6102da60048036038101906102d591906116cd565b6108de565b6040516102e791906117fa565b60405180910390f35b61030a60048036038101906103059190611815565b610a29565b60405161031791906117fa565b60405180910390f35b61033a60048036038101906103359190611443565b610b24565b005b61035660048036038101906103519190611295565b610b4d565b005b60007f7965db0b000000000000000000000000000000000000000000000000000000007bffffffffffffffffffffffffffffffffffffffffffffffffffffffff1916827bffffffffffffffffffffffffffffffffffffffffffffffffffffffff191614806103cb57506103ca82610c0b565b5b9050919050565b7f4636e38b5d73cef5ec0bdf8ec3e0565138a2bfe53888f9e988b51165659d842e610404816103ff610c75565b610c7d565b60005b83839050811015610474576104637fc10c77be35aff266144ed64c26a1fa104bae2f284ae99ac4a34203454704a18585858481811061044957610448611903565b5b905060200201602081019061045e9190611932565b61061e565b8061046d9061198e565b9050610407565b50505050565b7f4636e38b5d73cef5ec0bdf8ec3e0565138a2bfe53888f9e988b51165659d842e6104ac816104a7610c75565b610c7d565b6104b68383610d1a565b156104f6576040517f08c379a00000000000000000000000000000000000000000000000000000000081526004016104ed90611a33565b60405180910390fd5b600160009054906101000a900473ffffffffffffffffffffffffffffffffffffffff1673ffffffffffffffffffffffffffffffffffffffff16631783efc384846040518363ffffffff1660e01b8152600401610553929190611a53565b600060405180830381600087803b15801561056d57600080fd5b505af1158015610581573d6000803e3d6000fd5b50505050600160026000858152602001908152602001600020600084815260200190815260200160002060006101000a81548160ff021916908315150217905550827fa7971101f3ab1808fedaf53dcda952637961dcc1153334a243c3426fc83c8594836040516105f291906117fa565b60405180910390a2505050565b6000806000838152602001908152602001600020600101549050919050565b610627826105ff565b61063881610633610c75565b610c7d565b6106428383610d56565b505050565b61064f610c75565b73ffffffffffffffffffffffffffffffffffffffff168173ffffffffffffffffffffffffffffffffffffffff16146106bc576040517f08c379a00000000000000000000000000000000000000000000000000000000081526004016106b390611aee565b60405180910390fd5b6106c68282610e36565b5050565b7fc10c77be35aff266144ed64c26a1fa104bae2f284ae99ac4a34203454704a18581565b7f4636e38b5d73cef5ec0bdf8ec3e0565138a2bfe53888f9e988b51165659d842e6107208161071b610c75565b610c7d565b600160009054906101000a900473ffffffffffffffffffffffffffffffffffffffff1673ffffffffffffffffffffffffffffffffffffffff1663568ee82684846040518363ffffffff1660e01b815260040161077d929190611b1d565b600060405180830381600087803b15801561079757600080fd5b505af11580156107ab573d6000803e3d6000fd5b50505050505050565b7fc10c77be35aff266144ed64c26a1fa104bae2f284ae99ac4a34203454704a1856107e6816107e1610c75565b610c7d565b7fb8c6b548b208fa5670169d9ffdd92678964b6298204949dc37fc1a882f8ae28b8233604051610817929190611b1d565b60405180910390a15050565b7f4636e38b5d73cef5ec0bdf8ec3e0565138a2bfe53888f9e988b51165659d842e81565b600160009054906101000a900473ffffffffffffffffffffffffffffffffffffffff1681565b600080600084815260200190815260200160002060000160008373ffffffffffffffffffffffffffffffffffffffff1673ffffffffffffffffffffffffffffffffffffffff16815260200190815260200160002060009054906101000a900460ff16905092915050565b6000801b81565b6000806108eb6003610f17565b905060008b5111610931576040517f08c379a000000000000000000000000000000000000000000000000000000000815260040161092890611b92565b60405180910390fd5b600160009054906101000a900473ffffffffffffffffffffffffffffffffffffffff1673ffffffffffffffffffffffffffffffffffffffff16638b69310a8989898989896040518763ffffffff1660e01b815260040161099696959493929190611bc3565b600060405180830381600087803b1580156109b057600080fd5b505af11580156109c4573d6000803e3d6000fd5b505050506109d26003610bf5565b7febce1e16a628721c769bcf12f53257da29dfa17a0dd54c0febae7eefe93c44e98b8b6109ff6003610f17565b8c604051610a109493929190611c9c565b60405180910390a1809150509998505050505050505050565b600080610a366003610f17565b9050600160009054906101000a900473ffffffffffffffffffffffffffffffffffffffff1673ffffffffffffffffffffffffffffffffffffffff16638b69310a8989898989896040518763ffffffff1660e01b8152600401610a9d96959493929190611bc3565b600060405180830381600087803b158015610ab757600080fd5b505af1158015610acb573d6000803e3d6000fd5b50505050610ad96003610bf5565b7febce1e16a628721c769bcf12f53257da29dfa17a0dd54c0febae7eefe93c44e98a828b604051610b0c93929190611d1c565b60405180910390a18091505098975050505050505050565b610b2d826105ff565b610b3e81610b39610c75565b610c7d565b610b488383610e36565b505050565b7f4636e38b5d73cef5ec0bdf8ec3e0565138a2bfe53888f9e988b51165659d842e610b7f81610b7a610c75565b610c7d565b60005b83839050811015610bef57610bde7fc10c77be35aff266144ed64c26a1fa104bae2f284ae99ac4a34203454704a185858584818110610bc457610bc3611903565b5b9050602002016020810190610bd99190611932565b610b24565b80610be89061198e565b9050610b82565b50505050565b6001816000016000828254019250508190555050565b60007f01ffc9a7000000000000000000000000000000000000000000000000000000007bffffffffffffffffffffffffffffffffffffffffffffffffffffffff1916827bffffffffffffffffffffffffffffffffffffffffffffffffffffffff1916149050919050565b600033905090565b610c87828261086d565b610d1657610cac8173ffffffffffffffffffffffffffffffffffffffff166014610f25565b610cba8360001c6020610f25565b604051602001610ccb929190611e48565b6040516020818303038152906040526040517f08c379a0000000000000000000000000000000000000000000000000000000008152600401610d0d9190611e82565b60405180910390fd5b5050565b600060026000848152602001908152602001600020600083815260200190815260200160002060009054906101000a900460ff16905092915050565b610d60828261086d565b610e3257600160008084815260200190815260200160002060000160008373ffffffffffffffffffffffffffffffffffffffff1673ffffffffffffffffffffffffffffffffffffffff16815260200190815260200160002060006101000a81548160ff021916908315150217905550610dd7610c75565b73ffffffffffffffffffffffffffffffffffffffff168173ffffffffffffffffffffffffffffffffffffffff16837f2f8788117e7eff1d82e926ec794901d17c78024a50270940304540a733656f0d60405160405180910390a45b5050565b610e40828261086d565b15610f1357600080600084815260200190815260200160002060000160008373ffffffffffffffffffffffffffffffffffffffff1673ffffffffffffffffffffffffffffffffffffffff16815260200190815260200160002060006101000a81548160ff021916908315150217905550610eb8610c75565b73ffffffffffffffffffffffffffffffffffffffff168173ffffffffffffffffffffffffffffffffffffffff16837ff6391f5c32d9c69d2a47ea670b442974b53935d1edc7fd64eb21e047a839171b60405160405180910390a45b5050565b600081600001549050919050565b606060006002836002610f389190611ea4565b610f429190611efe565b67ffffffffffffffff811115610f5b57610f5a611580565b5b6040519080825280601f01601f191660200182016040528015610f8d5781602001600182028036833780820191505090505b5090507f300000000000000000000000000000000000000000000000000000000000000081600081518110610fc557610fc4611903565b5b60200101907effffffffffffffffffffffffffffffffffffffffffffffffffffffffffffff1916908160001a9053507f78000000000000000000000000000000000000000000000000000000000000008160018151811061102957611028611903565b5b60200101907effffffffffffffffffffffffffffffffffffffffffffffffffffffffffffff1916908160001a905350600060018460026110699190611ea4565b6110739190611efe565b90505b6001811115611113577f3031323334353637383961626364656600000000000000000000000000000000600f8616601081106110b5576110b4611903565b5b1a60f81b8282815181106110cc576110cb611903565b5b60200101907effffffffffffffffffffffffffffffffffffffffffffffffffffffffffffff1916908160001a905350600485901c94508061110c90611f54565b9050611076565b5060008414611157576040517f08c379a000000000000000000000000000000000000000000000000000000000815260040161114e90611fc9565b60405180910390fd5b8091505092915050565b6000604051905090565b600080fd5b600080fd5b60007fffffffff0000000000000000000000000000000000000000000000000000000082169050919050565b6111aa81611175565b81146111b557600080fd5b50565b6000813590506111c7816111a1565b92915050565b6000602082840312156111e3576111e261116b565b5b60006111f1848285016111b8565b91505092915050565b60008115159050919050565b61120f816111fa565b82525050565b600060208201905061122a6000830184611206565b92915050565b600080fd5b600080fd5b600080fd5b60008083601f84011261125557611254611230565b5b8235905067ffffffffffffffff81111561127257611271611235565b5b60208301915083602082028301111561128e5761128d61123a565b5b9250929050565b600080602083850312156112ac576112ab61116b565b5b600083013567ffffffffffffffff8111156112ca576112c9611170565b5b6112d68582860161123f565b92509250509250929050565b6000819050919050565b6112f5816112e2565b811461130057600080fd5b50565b600081359050611312816112ec565b92915050565b6000806040838503121561132f5761132e61116b565b5b600061133d85828601611303565b925050602061134e85828601611303565b9150509250929050565b6000819050919050565b61136b81611358565b811461137657600080fd5b50565b60008135905061138881611362565b92915050565b6000602082840312156113a4576113a361116b565b5b60006113b284828501611379565b91505092915050565b6113c481611358565b82525050565b60006020820190506113df60008301846113bb565b92915050565b600073ffffffffffffffffffffffffffffffffffffffff82169050919050565b6000611410826113e5565b9050919050565b61142081611405565b811461142b57600080fd5b50565b60008135905061143d81611417565b92915050565b6000806040838503121561145a5761145961116b565b5b600061146885828601611379565b92505060206114798582860161142e565b9150509250929050565b6000806040838503121561149a5761149961116b565b5b60006114a885828601611303565b92505060206114b98582860161142e565b9150509250929050565b6000602082840312156114d9576114d861116b565b5b60006114e784828501611303565b91505092915050565b6000819050919050565b600061151561151061150b846113e5565b6114f0565b6113e5565b9050919050565b6000611527826114fa565b9050919050565b60006115398261151c565b9050919050565b6115498161152e565b82525050565b60006020820190506115646000830184611540565b92915050565b600080fd5b6000601f19601f8301169050919050565b7f4e487b7100000000000000000000000000000000000000000000000000000000600052604160045260246000fd5b6115b88261156f565b810181811067ffffffffffffffff821117156115d7576115d6611580565b5b80604052505050565b60006115ea611161565b90506115f682826115af565b919050565b600067ffffffffffffffff82111561161657611615611580565b5b61161f8261156f565b9050602081019050919050565b82818337600083830152505050565b600061164e611649846115fb565b6115e0565b90508281526020810184848401111561166a5761166961156a565b5b61167584828561162c565b509392505050565b600082601f83011261169257611691611230565b5b81356116a284826020860161163b565b91505092915050565b6000819050826020600802820111156116c7576116c661123a565b5b92915050565b60008060008060008060008060006102008a8c0312156116f0576116ef61116b565b5b60008a013567ffffffffffffffff81111561170e5761170d611170565b5b61171a8c828d0161167d565b99505060208a013567ffffffffffffffff81111561173b5761173a611170565b5b6117478c828d0161167d565b98505060408a013567ffffffffffffffff81111561176857611767611170565b5b6117748c828d0161167d565b97505060606117858c828d01611303565b96505060806117968c828d01611303565b95505060a06117a78c828d01611379565b94505060c06117b88c828d01611303565b93505060e06117c98c828d01611303565b9250506101006117db8c828d016116ab565b9150509295985092959850929598565b6117f4816112e2565b82525050565b600060208201905061180f60008301846117eb565b92915050565b6000806000806000806000806101e0898b0312156118365761183561116b565b5b600089013567ffffffffffffffff81111561185457611853611170565b5b6118608b828c0161167d565b985050602089013567ffffffffffffffff81111561188157611880611170565b5b61188d8b828c0161167d565b975050604061189e8b828c01611303565b96505060606118af8b828c01611303565b95505060806118c08b828c01611379565b94505060a06118d18b828c01611303565b93505060c06118e28b828c01611303565b92505060e06118f38b828c016116ab565b9150509295985092959890939650565b7f4e487b7100000000000000000000000000000000000000000000000000000000600052603260045260246000fd5b6000602082840312156119485761194761116b565b5b60006119568482850161142e565b91505092915050565b7f4e487b7100000000000000000000000000000000000000000000000000000000600052601160045260246000fd5b6000611999826112e2565b91507fffffffffffffffffffffffffffffffffffffffffffffffffffffffffffffffff82036119cb576119ca61195f565b5b600182019050919050565b600082825260208201905092915050565b7f4d656d62657220616c726561647920616464656420746f2067726f7570000000600082015250565b6000611a1d601d836119d6565b9150611a28826119e7565b602082019050919050565b60006020820190508181036000830152611a4c81611a10565b9050919050565b6000604082019050611a6860008301856117eb565b611a7560208301846117eb565b9392505050565b7f416363657373436f6e74726f6c3a2063616e206f6e6c792072656e6f756e636560008201527f20726f6c657320666f722073656c660000000000000000000000000000000000602082015250565b6000611ad8602f836119d6565b9150611ae382611a7c565b604082019050919050565b60006020820190508181036000830152611b0781611acb565b9050919050565b611b1781611405565b82525050565b6000604082019050611b3260008301856117eb565b611b3f6020830184611b0e565b9392505050565b7f496e76616c696420494420666f7220706172656e74206d657373616765000000600082015250565b6000611b7c601d836119d6565b9150611b8782611b46565b602082019050919050565b60006020820190508181036000830152611bab81611b6f565b9050919050565b611bbf610100838361162c565b5050565b60006101a082019050611bd960008301896117eb565b611be660208301886117eb565b611bf360408301876113bb565b611c0060608301866117eb565b611c0d60808301856117eb565b611c1a60a0830184611bb2565b979650505050505050565b600081519050919050565b60005b83811015611c4e578082015181840152602081019050611c33565b83811115611c5d576000848401525b50505050565b6000611c6e82611c25565b611c7881856119d6565b9350611c88818560208601611c30565b611c918161156f565b840191505092915050565b60006080820190508181036000830152611cb68187611c63565b90508181036020830152611cca8186611c63565b9050611cd960408301856117eb565b8181036060830152611ceb8184611c63565b905095945050505050565b50565b6000611d066000836119d6565b9150611d1182611cf6565b600082019050919050565b60006080820190508181036000830152611d3581611cf9565b90508181036020830152611d498186611c63565b9050611d5860408301856117eb565b8181036060830152611d6a8184611c63565b9050949350505050565b600081905092915050565b7f416363657373436f6e74726f6c3a206163636f756e7420000000000000000000600082015250565b6000611db5601783611d74565b9150611dc082611d7f565b601782019050919050565b6000611dd682611c25565b611de08185611d74565b9350611df0818560208601611c30565b80840191505092915050565b7f206973206d697373696e6720726f6c6520000000000000000000000000000000600082015250565b6000611e32601183611d74565b9150611e3d82611dfc565b601182019050919050565b6000611e5382611da8565b9150611e5f8285611dcb565b9150611e6a82611e25565b9150611e768284611dcb565b91508190509392505050565b60006020820190508181036000830152611e9c8184611c63565b905092915050565b6000611eaf826112e2565b9150611eba836112e2565b9250817fffffffffffffffffffffffffffffffffffffffffffffffffffffffffffffffff0483118215151615611ef357611ef261195f565b5b828202905092915050565b6000611f09826112e2565b9150611f14836112e2565b9250827fffffffffffffffffffffffffffffffffffffffffffffffffffffffffffffffff03821115611f4957611f4861195f565b5b828201905092915050565b6000611f5f826112e2565b915060008203611f7257611f7161195f565b5b600182039050919050565b7f537472696e67733a20686578206c656e67746820696e73756666696369656e74600082015250565b6000611fb36020836119d6565b9150611fbe82611f7d565b602082019050919050565b60006020820190508181036000830152611fe281611fa6565b905091905056fea2646970667358221220640086852183db16e65c809d916515746740a0df358f519c6a28c48f6a75e2a764736f6c634300080d0033",
  "linkReferences": {},
  "deployedLinkReferences": {}
}