{
  "_format": "hh-sol-artifact-1",
  "contractName": "TazMessage",
  "sourceName": "contracts/TazMessage.sol",
  "abi": [
    {
      "inputs": [
        {
          "internalType": "contract ISemaphore",
          "name": "semaContractAddr",
          "type": "address"
        }
      ],
      "stateMutability": "nonpayable",
      "type": "constructor"
    },
    {
      "anonymous": false,
      "inputs": [
        {
          "indexed": false,
          "internalType": "string",
          "name": "parentMessageId",
          "type": "string"
        },
        {
          "indexed": false,
          "internalType": "string",
          "name": "messageId",
          "type": "string"
        },
        {
          "indexed": false,
          "internalType": "string",
          "name": "messageContent",
          "type": "string"
        }
      ],
      "name": "MessageAdded",
      "type": "event"
    },
    {
      "anonymous": false,
      "inputs": [
        {
          "indexed": true,
          "internalType": "address",
          "name": "previousOwner",
          "type": "address"
        },
        {
          "indexed": true,
          "internalType": "address",
          "name": "newOwner",
          "type": "address"
        }
      ],
      "name": "OwnershipTransferred",
      "type": "event"
    },
    {
      "inputs": [
        {
          "internalType": "string",
          "name": "messageId",
          "type": "string"
        },
        {
          "internalType": "string",
          "name": "messageContent",
          "type": "string"
        },
        {
          "internalType": "uint256",
          "name": "groupId",
          "type": "uint256"
        },
        {
          "internalType": "bytes32",
          "name": "signal",
          "type": "bytes32"
        },
        {
          "internalType": "uint256",
          "name": "nullifierHash",
          "type": "uint256"
        },
        {
          "internalType": "uint256",
          "name": "externalNullifier",
          "type": "uint256"
        },
        {
          "internalType": "uint256[8]",
          "name": "proof",
          "type": "uint256[8]"
        }
      ],
      "name": "addMessage",
      "outputs": [],
      "stateMutability": "nonpayable",
      "type": "function"
    },
    {
      "inputs": [],
      "name": "owner",
      "outputs": [
        {
          "internalType": "address",
          "name": "",
          "type": "address"
        }
      ],
      "stateMutability": "view",
      "type": "function"
    },
    {
      "inputs": [],
      "name": "renounceOwnership",
      "outputs": [],
      "stateMutability": "nonpayable",
      "type": "function"
    },
    {
      "inputs": [
        {
          "internalType": "string",
          "name": "parentMessageId",
          "type": "string"
        },
        {
          "internalType": "string",
          "name": "messageId",
          "type": "string"
        },
        {
          "internalType": "string",
          "name": "messageContent",
          "type": "string"
        },
        {
          "internalType": "uint256",
          "name": "groupId",
          "type": "uint256"
        },
        {
          "internalType": "bytes32",
          "name": "signal",
          "type": "bytes32"
        },
        {
          "internalType": "uint256",
          "name": "nullifierHash",
          "type": "uint256"
        },
        {
          "internalType": "uint256",
          "name": "externalNullifier",
          "type": "uint256"
        },
        {
          "internalType": "uint256[8]",
          "name": "proof",
          "type": "uint256[8]"
        }
      ],
      "name": "replyToMessage",
      "outputs": [],
      "stateMutability": "nonpayable",
      "type": "function"
    },
    {
      "inputs": [],
      "name": "semaContract",
      "outputs": [
        {
          "internalType": "contract ISemaphore",
          "name": "",
          "type": "address"
        }
      ],
      "stateMutability": "view",
      "type": "function"
    },
    {
      "inputs": [
        {
          "internalType": "address",
          "name": "newOwner",
          "type": "address"
        }
      ],
      "name": "transferOwnership",
      "outputs": [],
      "stateMutability": "nonpayable",
      "type": "function"
    }
  ],
  "bytecode": "0x60806040523480156200001157600080fd5b50604051620010e6380380620010e68339818101604052810190620000379190620001e9565b620000576200004b6200009f60201b60201c565b620000a760201b60201c565b80600160006101000a81548173ffffffffffffffffffffffffffffffffffffffff021916908373ffffffffffffffffffffffffffffffffffffffff160217905550506200021b565b600033905090565b60008060009054906101000a900473ffffffffffffffffffffffffffffffffffffffff169050816000806101000a81548173ffffffffffffffffffffffffffffffffffffffff021916908373ffffffffffffffffffffffffffffffffffffffff1602179055508173ffffffffffffffffffffffffffffffffffffffff168173ffffffffffffffffffffffffffffffffffffffff167f8be0079c531659141344cd1fd0a4f28419497f9722a3daafe3b4186f6b6457e060405160405180910390a35050565b600080fd5b600073ffffffffffffffffffffffffffffffffffffffff82169050919050565b60006200019d8262000170565b9050919050565b6000620001b18262000190565b9050919050565b620001c381620001a4565b8114620001cf57600080fd5b50565b600081519050620001e381620001b8565b92915050565b6000602082840312156200020257620002016200016b565b5b60006200021284828501620001d2565b91505092915050565b610ebb806200022b6000396000f3fe608060405234801561001057600080fd5b50600436106100625760003560e01c80635893ce1414610067578063715018a6146100835780637802eb601461008d5780638a8deed7146100a95780638da5cb5b146100c7578063f2fde38b146100e5575b600080fd5b610081600480360381019061007c9190610769565b610101565b005b61008b610275565b005b6100a760048036038101906100a29190610873565b610289565b005b6100b1610360565b6040516100be91906109cd565b60405180910390f35b6100cf610386565b6040516100dc9190610a09565b60405180910390f35b6100ff60048036038101906100fa9190610a50565b6103af565b005b6000885111801561015c575060405160200161011c90610ad4565b60405160208183030381529060405280519060200120886040516020016101439190610b58565b6040516020818303038152906040528051906020012014155b61019b576040517f08c379a000000000000000000000000000000000000000000000000000000000815260040161019290610bf2565b60405180910390fd5b600160009054906101000a900473ffffffffffffffffffffffffffffffffffffffff1673ffffffffffffffffffffffffffffffffffffffff16636673e84986868686866040518663ffffffff1660e01b81526004016101fe959493929190610c41565b600060405180830381600087803b15801561021857600080fd5b505af115801561022c573d6000803e3d6000fd5b505050507f23d645796f35d9391d4b5a1532c734659818e1eb2b5245723dcb411485b3f24588888860405161026393929190610cce565b60405180910390a15050505050505050565b61027d610432565b61028760006104b0565b565b600160009054906101000a900473ffffffffffffffffffffffffffffffffffffffff1673ffffffffffffffffffffffffffffffffffffffff16636673e84986868686866040518663ffffffff1660e01b81526004016102ec959493929190610c41565b600060405180830381600087803b15801561030657600080fd5b505af115801561031a573d6000803e3d6000fd5b505050507f23d645796f35d9391d4b5a1532c734659818e1eb2b5245723dcb411485b3f245878760405161034f929190610d3d565b60405180910390a150505050505050565b600160009054906101000a900473ffffffffffffffffffffffffffffffffffffffff1681565b60008060009054906101000a900473ffffffffffffffffffffffffffffffffffffffff16905090565b6103b7610432565b600073ffffffffffffffffffffffffffffffffffffffff168173ffffffffffffffffffffffffffffffffffffffff1603610426576040517f08c379a000000000000000000000000000000000000000000000000000000000815260040161041d90610df9565b60405180910390fd5b61042f816104b0565b50565b61043a610574565b73ffffffffffffffffffffffffffffffffffffffff16610458610386565b73ffffffffffffffffffffffffffffffffffffffff16146104ae576040517f08c379a00000000000000000000000000000000000000000000000000000000081526004016104a590610e65565b60405180910390fd5b565b60008060009054906101000a900473ffffffffffffffffffffffffffffffffffffffff169050816000806101000a81548173ffffffffffffffffffffffffffffffffffffffff021916908373ffffffffffffffffffffffffffffffffffffffff1602179055508173ffffffffffffffffffffffffffffffffffffffff168173ffffffffffffffffffffffffffffffffffffffff167f8be0079c531659141344cd1fd0a4f28419497f9722a3daafe3b4186f6b6457e060405160405180910390a35050565b600033905090565b6000604051905090565b600080fd5b600080fd5b600080fd5b600080fd5b6000601f19601f8301169050919050565b7f4e487b7100000000000000000000000000000000000000000000000000000000600052604160045260246000fd5b6105e38261059a565b810181811067ffffffffffffffff82111715610602576106016105ab565b5b80604052505050565b600061061561057c565b905061062182826105da565b919050565b600067ffffffffffffffff821115610641576106406105ab565b5b61064a8261059a565b9050602081019050919050565b82818337600083830152505050565b600061067961067484610626565b61060b565b90508281526020810184848401111561069557610694610595565b5b6106a0848285610657565b509392505050565b600082601f8301126106bd576106bc610590565b5b81356106cd848260208601610666565b91505092915050565b6000819050919050565b6106e9816106d6565b81146106f457600080fd5b50565b600081359050610706816106e0565b92915050565b6000819050919050565b61071f8161070c565b811461072a57600080fd5b50565b60008135905061073c81610716565b92915050565b600080fd5b60008190508260206008028201111561076357610762610742565b5b92915050565b6000806000806000806000806101e0898b03121561078a57610789610586565b5b600089013567ffffffffffffffff8111156107a8576107a761058b565b5b6107b48b828c016106a8565b985050602089013567ffffffffffffffff8111156107d5576107d461058b565b5b6107e18b828c016106a8565b975050604089013567ffffffffffffffff8111156108025761080161058b565b5b61080e8b828c016106a8565b965050606061081f8b828c016106f7565b95505060806108308b828c0161072d565b94505060a06108418b828c016106f7565b93505060c06108528b828c016106f7565b92505060e06108638b828c01610747565b9150509295985092959890939650565b60008060008060008060006101c0888a03121561089357610892610586565b5b600088013567ffffffffffffffff8111156108b1576108b061058b565b5b6108bd8a828b016106a8565b975050602088013567ffffffffffffffff8111156108de576108dd61058b565b5b6108ea8a828b016106a8565b96505060406108fb8a828b016106f7565b955050606061090c8a828b0161072d565b945050608061091d8a828b016106f7565b93505060a061092e8a828b016106f7565b92505060c061093f8a828b01610747565b91505092959891949750929550565b600073ffffffffffffffffffffffffffffffffffffffff82169050919050565b6000819050919050565b600061099361098e6109898461094e565b61096e565b61094e565b9050919050565b60006109a582610978565b9050919050565b60006109b78261099a565b9050919050565b6109c7816109ac565b82525050565b60006020820190506109e260008301846109be565b92915050565b60006109f38261094e565b9050919050565b610a03816109e8565b82525050565b6000602082019050610a1e60008301846109fa565b92915050565b610a2d816109e8565b8114610a3857600080fd5b50565b600081359050610a4a81610a24565b92915050565b600060208284031215610a6657610a65610586565b5b6000610a7484828501610a3b565b91505092915050565b600081905092915050565b7f3000000000000000000000000000000000000000000000000000000000000000600082015250565b6000610abe600183610a7d565b9150610ac982610a88565b600182019050919050565b6000610adf82610ab1565b9150819050919050565b600081519050919050565b60005b83811015610b12578082015181840152602081019050610af7565b83811115610b21576000848401525b50505050565b6000610b3282610ae9565b610b3c8185610a7d565b9350610b4c818560208601610af4565b80840191505092915050565b6000610b648284610b27565b915081905092915050565b600082825260208201905092915050565b7f496e76616c69642049442070726f766964656420666f7220706172656e74206d60008201527f6573736167650000000000000000000000000000000000000000000000000000602082015250565b6000610bdc602683610b6f565b9150610be782610b80565b604082019050919050565b60006020820190508181036000830152610c0b81610bcf565b9050919050565b610c1b816106d6565b82525050565b610c2a8161070c565b82525050565b610c3d6101008383610657565b5050565b600061018082019050610c576000830188610c12565b610c646020830187610c21565b610c716040830186610c12565b610c7e6060830185610c12565b610c8b6080830184610c30565b9695505050505050565b6000610ca082610ae9565b610caa8185610b6f565b9350610cba818560208601610af4565b610cc38161059a565b840191505092915050565b60006060820190508181036000830152610ce88186610c95565b90508181036020830152610cfc8185610c95565b90508181036040830152610d108184610c95565b9050949350505050565b6000610d27600183610b6f565b9150610d3282610a88565b602082019050919050565b60006060820190508181036000830152610d5681610d1a565b90508181036020830152610d6a8185610c95565b90508181036040830152610d7e8184610c95565b90509392505050565b7f4f776e61626c653a206e6577206f776e657220697320746865207a65726f206160008201527f6464726573730000000000000000000000000000000000000000000000000000602082015250565b6000610de3602683610b6f565b9150610dee82610d87565b604082019050919050565b60006020820190508181036000830152610e1281610dd6565b9050919050565b7f4f776e61626c653a2063616c6c6572206973206e6f7420746865206f776e6572600082015250565b6000610e4f602083610b6f565b9150610e5a82610e19565b602082019050919050565b60006020820190508181036000830152610e7e81610e42565b905091905056fea26469706673582212207343bf2b95c6709dbdd85c90f6c899a5b5964c2bc68f9ba22375392255c85f2a64736f6c634300080d0033",
  "linkReferences": {},
  "deployedLinkReferences": {}
}