{
  "_format": "hh-sol-artifact-1",
  "contractName": "TazMessage",
  "sourceName": "contracts/TazMessage.sol",
  "abi": [
    {
      "inputs": [
        {
          "internalType": "contract ISemaphore",
          "name": "semaContractAddr",
          "type": "address"
        }
      ],
      "stateMutability": "nonpayable",
      "type": "constructor"
    },
    {
      "anonymous": false,
      "inputs": [
        {
          "indexed": true,
          "internalType": "uint256",
          "name": "groupId",
          "type": "uint256"
        },
        {
          "indexed": false,
          "internalType": "uint256",
          "name": "identityCommitment",
          "type": "uint256"
        }
      ],
      "name": "MemberAdded",
      "type": "event"
    },
    {
      "anonymous": false,
      "inputs": [
        {
          "indexed": false,
          "internalType": "string",
          "name": "parentMessageId",
          "type": "string"
        },
        {
          "indexed": false,
          "internalType": "string",
          "name": "messageId",
          "type": "string"
        },
        {
          "indexed": false,
          "internalType": "uint256",
          "name": "messageNum",
          "type": "uint256"
        },
        {
          "indexed": false,
          "internalType": "string",
          "name": "messageContent",
          "type": "string"
        }
      ],
      "name": "MessageAdded",
      "type": "event"
    },
    {
      "anonymous": false,
      "inputs": [
        {
          "indexed": true,
          "internalType": "bytes32",
          "name": "role",
          "type": "bytes32"
        },
        {
          "indexed": true,
          "internalType": "bytes32",
          "name": "previousAdminRole",
          "type": "bytes32"
        },
        {
          "indexed": true,
          "internalType": "bytes32",
          "name": "newAdminRole",
          "type": "bytes32"
        }
      ],
      "name": "RoleAdminChanged",
      "type": "event"
    },
    {
      "anonymous": false,
      "inputs": [
        {
          "indexed": true,
          "internalType": "bytes32",
          "name": "role",
          "type": "bytes32"
        },
        {
          "indexed": true,
          "internalType": "address",
          "name": "account",
          "type": "address"
        },
        {
          "indexed": true,
          "internalType": "address",
          "name": "sender",
          "type": "address"
        }
      ],
      "name": "RoleGranted",
      "type": "event"
    },
    {
      "anonymous": false,
      "inputs": [
        {
          "indexed": true,
          "internalType": "bytes32",
          "name": "role",
          "type": "bytes32"
        },
        {
          "indexed": true,
          "internalType": "address",
          "name": "account",
          "type": "address"
        },
        {
          "indexed": true,
          "internalType": "address",
          "name": "sender",
          "type": "address"
        }
      ],
      "name": "RoleRevoked",
      "type": "event"
    },
    {
      "anonymous": false,
      "inputs": [
        {
          "indexed": false,
          "internalType": "uint256",
          "name": "messageNum",
          "type": "uint256"
        },
        {
          "indexed": false,
          "internalType": "address",
          "name": "reviewer",
          "type": "address"
        }
      ],
      "name": "ViolationAdded",
      "type": "event"
    },
    {
      "inputs": [],
      "name": "DEFAULT_ADMIN_ROLE",
      "outputs": [
        {
          "internalType": "bytes32",
          "name": "",
          "type": "bytes32"
        }
      ],
      "stateMutability": "view",
      "type": "function"
    },
    {
      "inputs": [],
      "name": "REVIEWER_ROLE",
      "outputs": [
        {
          "internalType": "bytes32",
          "name": "",
          "type": "bytes32"
        }
      ],
      "stateMutability": "view",
      "type": "function"
    },
    {
      "inputs": [],
      "name": "TAZ_ADMIN_ROLE",
      "outputs": [
        {
          "internalType": "bytes32",
          "name": "",
          "type": "bytes32"
        }
      ],
      "stateMutability": "view",
      "type": "function"
    },
    {
      "inputs": [
        {
          "internalType": "address[]",
          "name": "admins",
          "type": "address[]"
        }
      ],
      "name": "addAdmins",
      "outputs": [],
      "stateMutability": "nonpayable",
      "type": "function"
    },
    {
      "inputs": [
        {
          "internalType": "uint256",
          "name": "groupId",
          "type": "uint256"
        },
        {
          "internalType": "uint256",
          "name": "identityCommitment",
          "type": "uint256"
        }
      ],
      "name": "addMember",
      "outputs": [],
      "stateMutability": "nonpayable",
      "type": "function"
    },
    {
      "inputs": [
        {
          "internalType": "string",
          "name": "messageId",
          "type": "string"
        },
        {
          "internalType": "string",
          "name": "messageContent",
          "type": "string"
        },
        {
          "internalType": "uint256",
          "name": "groupId",
          "type": "uint256"
        },
        {
          "internalType": "uint256",
          "name": "merkleTreeRoot",
          "type": "uint256"
        },
        {
          "internalType": "bytes32",
          "name": "signal",
          "type": "bytes32"
        },
        {
          "internalType": "uint256",
          "name": "nullifierHash",
          "type": "uint256"
        },
        {
          "internalType": "uint256",
          "name": "externalNullifier",
          "type": "uint256"
        },
        {
          "internalType": "uint256[8]",
          "name": "proof",
          "type": "uint256[8]"
        }
      ],
      "name": "addMessage",
      "outputs": [
        {
          "internalType": "uint256",
          "name": "",
          "type": "uint256"
        }
      ],
      "stateMutability": "nonpayable",
      "type": "function"
    },
    {
      "inputs": [
        {
          "internalType": "address[]",
          "name": "reviewers",
          "type": "address[]"
        }
      ],
      "name": "addReviewers",
      "outputs": [],
      "stateMutability": "nonpayable",
      "type": "function"
    },
    {
      "inputs": [
        {
          "internalType": "uint256",
          "name": "messageNum",
          "type": "uint256"
        }
      ],
      "name": "addViolation",
      "outputs": [],
      "stateMutability": "nonpayable",
      "type": "function"
    },
    {
      "inputs": [
        {
          "internalType": "bytes32",
          "name": "role",
          "type": "bytes32"
        }
      ],
      "name": "getRoleAdmin",
      "outputs": [
        {
          "internalType": "bytes32",
          "name": "",
          "type": "bytes32"
        }
      ],
      "stateMutability": "view",
      "type": "function"
    },
    {
      "inputs": [
        {
          "internalType": "bytes32",
          "name": "role",
          "type": "bytes32"
        },
        {
          "internalType": "address",
          "name": "account",
          "type": "address"
        }
      ],
      "name": "grantRole",
      "outputs": [],
      "stateMutability": "nonpayable",
      "type": "function"
    },
    {
      "inputs": [
        {
          "internalType": "bytes32",
          "name": "role",
          "type": "bytes32"
        },
        {
          "internalType": "address",
          "name": "account",
          "type": "address"
        }
      ],
      "name": "hasRole",
      "outputs": [
        {
          "internalType": "bool",
          "name": "",
          "type": "bool"
        }
      ],
      "stateMutability": "view",
      "type": "function"
    },
    {
      "inputs": [
        {
          "internalType": "address[]",
          "name": "admins",
          "type": "address[]"
        }
      ],
      "name": "removeAdmins",
      "outputs": [],
      "stateMutability": "nonpayable",
      "type": "function"
    },
    {
      "inputs": [
        {
          "internalType": "address[]",
          "name": "reviewers",
          "type": "address[]"
        }
      ],
      "name": "removeReviewers",
      "outputs": [],
      "stateMutability": "nonpayable",
      "type": "function"
    },
    {
      "inputs": [
        {
          "internalType": "bytes32",
          "name": "role",
          "type": "bytes32"
        },
        {
          "internalType": "address",
          "name": "account",
          "type": "address"
        }
      ],
      "name": "renounceRole",
      "outputs": [],
      "stateMutability": "nonpayable",
      "type": "function"
    },
    {
      "inputs": [
        {
          "internalType": "string",
          "name": "parentMessageId",
          "type": "string"
        },
        {
          "internalType": "string",
          "name": "messageId",
          "type": "string"
        },
        {
          "internalType": "string",
          "name": "messageContent",
          "type": "string"
        },
        {
          "internalType": "uint256",
          "name": "groupId",
          "type": "uint256"
        },
        {
          "internalType": "uint256",
          "name": "merkleTreeRoot",
          "type": "uint256"
        },
        {
          "internalType": "bytes32",
          "name": "signal",
          "type": "bytes32"
        },
        {
          "internalType": "uint256",
          "name": "nullifierHash",
          "type": "uint256"
        },
        {
          "internalType": "uint256",
          "name": "externalNullifier",
          "type": "uint256"
        },
        {
          "internalType": "uint256[8]",
          "name": "proof",
          "type": "uint256[8]"
        }
      ],
      "name": "replyToMessage",
      "outputs": [
        {
          "internalType": "uint256",
          "name": "",
          "type": "uint256"
        }
      ],
      "stateMutability": "nonpayable",
      "type": "function"
    },
    {
      "inputs": [
        {
          "internalType": "bytes32",
          "name": "role",
          "type": "bytes32"
        },
        {
          "internalType": "address",
          "name": "account",
          "type": "address"
        }
      ],
      "name": "revokeRole",
      "outputs": [],
      "stateMutability": "nonpayable",
      "type": "function"
    },
    {
      "inputs": [],
      "name": "semaContract",
      "outputs": [
        {
          "internalType": "contract ISemaphore",
          "name": "",
          "type": "address"
        }
      ],
      "stateMutability": "view",
      "type": "function"
    },
    {
      "inputs": [
        {
          "internalType": "bytes4",
          "name": "interfaceId",
          "type": "bytes4"
        }
      ],
      "name": "supportsInterface",
      "outputs": [
        {
          "internalType": "bool",
          "name": "",
          "type": "bool"
        }
      ],
      "stateMutability": "view",
      "type": "function"
    },
    {
      "inputs": [
        {
          "internalType": "uint256",
          "name": "groupId",
          "type": "uint256"
        },
        {
          "internalType": "address",
          "name": "newAdmin",
          "type": "address"
        }
      ],
      "name": "updateSemaphoreGroupAdmin",
      "outputs": [],
      "stateMutability": "nonpayable",
      "type": "function"
    }
  ],
  "bytecode": "0x60806040523480156200001157600080fd5b50604051620025c4380380620025c48339818101604052810190620000379190620003c5565b80600160006101000a81548173ffffffffffffffffffffffffffffffffffffffff021916908373ffffffffffffffffffffffffffffffffffffffff160217905550620000aa7f4636e38b5d73cef5ec0bdf8ec3e0565138a2bfe53888f9e988b51165659d842e806200014c60201b60201c565b620000fc7fc10c77be35aff266144ed64c26a1fa104bae2f284ae99ac4a34203454704a1857f4636e38b5d73cef5ec0bdf8ec3e0565138a2bfe53888f9e988b51165659d842e6200014c60201b60201c565b6200012e7f4636e38b5d73cef5ec0bdf8ec3e0565138a2bfe53888f9e988b51165659d842e33620001af60201b60201c565b620001456003620002a060201b62000d931760201c565b50620003f7565b60006200015f83620002b660201b60201c565b905081600080858152602001908152602001600020600101819055508181847fbd79b86ffe0ab8e8776151514217cd7cacd52c909f66475c3af44e129f0b00ff60405160405180910390a4505050565b620001c18282620002d560201b60201c565b6200029c57600160008084815260200190815260200160002060000160008373ffffffffffffffffffffffffffffffffffffffff1673ffffffffffffffffffffffffffffffffffffffff16815260200190815260200160002060006101000a81548160ff021916908315150217905550620002416200033f60201b60201c565b73ffffffffffffffffffffffffffffffffffffffff168173ffffffffffffffffffffffffffffffffffffffff16837f2f8788117e7eff1d82e926ec794901d17c78024a50270940304540a733656f0d60405160405180910390a45b5050565b6001816000016000828254019250508190555050565b6000806000838152602001908152602001600020600101549050919050565b600080600084815260200190815260200160002060000160008373ffffffffffffffffffffffffffffffffffffffff1673ffffffffffffffffffffffffffffffffffffffff16815260200190815260200160002060009054906101000a900460ff16905092915050565b600033905090565b600080fd5b600073ffffffffffffffffffffffffffffffffffffffff82169050919050565b600062000379826200034c565b9050919050565b60006200038d826200036c565b9050919050565b6200039f8162000380565b8114620003ab57600080fd5b50565b600081519050620003bf8162000394565b92915050565b600060208284031215620003de57620003dd62000347565b5b6000620003ee84828501620003ae565b91505092915050565b6121bd80620004076000396000f3fe608060405234801561001057600080fd5b50600436106101215760003560e01c80636db92666116100ad578063a217fddf11610071578063a217fddf146102f0578063a53beac41461030e578063d1871e601461033e578063d547741f1461036e578063d6b91e9f1461038a57610121565b80636db926661461024c578063785b55f8146102685780638a8deed71461028657806391d14854146102a45780639c54df64146102d457610121565b80632f2ff15d116100f45780632f2ff15d146101be57806336568abe146101da578063377e11e0146101f65780633b129a561461021257806367c608da1461023057610121565b806301ffc9a71461012657806317147064146101565780631783efc314610172578063248a9ca31461018e575b600080fd5b610140600480360381019061013b919061136b565b6103a6565b60405161014d91906113b3565b60405180910390f35b610170600480360381019061016b9190611433565b610420565b005b61018c600480360381019061018791906114b6565b6104c8565b005b6101a860048036038101906101a3919061152c565b61064d565b6040516101b59190611568565b60405180910390f35b6101d860048036038101906101d391906115e1565b61066c565b005b6101f460048036038101906101ef91906115e1565b610695565b005b610210600480360381019061020b9190611433565b610718565b005b61021a6107c0565b6040516102279190611568565b60405180910390f35b61024a60048036038101906102459190611621565b6107e4565b005b61026660048036038101906102619190611661565b6108aa565b005b610270610919565b60405161027d9190611568565b60405180910390f35b61028e61093d565b60405161029b91906116ed565b60405180910390f35b6102be60048036038101906102b991906115e1565b610963565b6040516102cb91906113b3565b60405180910390f35b6102ee60048036038101906102e99190611433565b6109cd565b005b6102f8610a75565b6040516103059190611568565b60405180910390f35b6103286004803603810190610323919061186b565b610a7c565b6040516103359190611998565b60405180910390f35b610358600480360381019061035391906119b3565b610bc7565b6040516103659190611998565b60405180910390f35b610388600480360381019061038391906115e1565b610cc2565b005b6103a4600480360381019061039f9190611433565b610ceb565b005b60007f7965db0b000000000000000000000000000000000000000000000000000000007bffffffffffffffffffffffffffffffffffffffffffffffffffffffff1916827bffffffffffffffffffffffffffffffffffffffffffffffffffffffff19161480610419575061041882610da9565b5b9050919050565b7f4636e38b5d73cef5ec0bdf8ec3e0565138a2bfe53888f9e988b51165659d842e6104528161044d610e13565b610e1b565b60005b838390508110156104c2576104b17fc10c77be35aff266144ed64c26a1fa104bae2f284ae99ac4a34203454704a18585858481811061049757610496611aa1565b5b90506020020160208101906104ac9190611ad0565b61066c565b806104bb90611b2c565b9050610455565b50505050565b7f4636e38b5d73cef5ec0bdf8ec3e0565138a2bfe53888f9e988b51165659d842e6104fa816104f5610e13565b610e1b565b6105048383610eb8565b15610544576040517f08c379a000000000000000000000000000000000000000000000000000000000815260040161053b90611bd1565b60405180910390fd5b600160009054906101000a900473ffffffffffffffffffffffffffffffffffffffff1673ffffffffffffffffffffffffffffffffffffffff16631783efc384846040518363ffffffff1660e01b81526004016105a1929190611bf1565b600060405180830381600087803b1580156105bb57600080fd5b505af11580156105cf573d6000803e3d6000fd5b50505050600160026000858152602001908152602001600020600084815260200190815260200160002060006101000a81548160ff021916908315150217905550827fa7971101f3ab1808fedaf53dcda952637961dcc1153334a243c3426fc83c8594836040516106409190611998565b60405180910390a2505050565b6000806000838152602001908152602001600020600101549050919050565b6106758261064d565b61068681610681610e13565b610e1b565b6106908383610ef4565b505050565b61069d610e13565b73ffffffffffffffffffffffffffffffffffffffff168173ffffffffffffffffffffffffffffffffffffffff161461070a576040517f08c379a000000000000000000000000000000000000000000000000000000000815260040161070190611c8c565b60405180910390fd5b6107148282610fd4565b5050565b7f4636e38b5d73cef5ec0bdf8ec3e0565138a2bfe53888f9e988b51165659d842e61074a81610745610e13565b610e1b565b60005b838390508110156107ba576107a97f4636e38b5d73cef5ec0bdf8ec3e0565138a2bfe53888f9e988b51165659d842e85858481811061078f5761078e611aa1565b5b90506020020160208101906107a49190611ad0565b610cc2565b806107b390611b2c565b905061074d565b50505050565b7fc10c77be35aff266144ed64c26a1fa104bae2f284ae99ac4a34203454704a18581565b7f4636e38b5d73cef5ec0bdf8ec3e0565138a2bfe53888f9e988b51165659d842e61081681610811610e13565b610e1b565b600160009054906101000a900473ffffffffffffffffffffffffffffffffffffffff1673ffffffffffffffffffffffffffffffffffffffff1663568ee82684846040518363ffffffff1660e01b8152600401610873929190611cbb565b600060405180830381600087803b15801561088d57600080fd5b505af11580156108a1573d6000803e3d6000fd5b50505050505050565b7fc10c77be35aff266144ed64c26a1fa104bae2f284ae99ac4a34203454704a1856108dc816108d7610e13565b610e1b565b7fb8c6b548b208fa5670169d9ffdd92678964b6298204949dc37fc1a882f8ae28b823360405161090d929190611cbb565b60405180910390a15050565b7f4636e38b5d73cef5ec0bdf8ec3e0565138a2bfe53888f9e988b51165659d842e81565b600160009054906101000a900473ffffffffffffffffffffffffffffffffffffffff1681565b600080600084815260200190815260200160002060000160008373ffffffffffffffffffffffffffffffffffffffff1673ffffffffffffffffffffffffffffffffffffffff16815260200190815260200160002060009054906101000a900460ff16905092915050565b7f4636e38b5d73cef5ec0bdf8ec3e0565138a2bfe53888f9e988b51165659d842e6109ff816109fa610e13565b610e1b565b60005b83839050811015610a6f57610a5e7f4636e38b5d73cef5ec0bdf8ec3e0565138a2bfe53888f9e988b51165659d842e858584818110610a4457610a43611aa1565b5b9050602002016020810190610a599190611ad0565b61066c565b80610a6890611b2c565b9050610a02565b50505050565b6000801b81565b600080610a8960036110b5565b905060008b5111610acf576040517f08c379a0000000000000000000000000000000000000000000000000000000008152600401610ac690611d30565b60405180910390fd5b600160009054906101000a900473ffffffffffffffffffffffffffffffffffffffff1673ffffffffffffffffffffffffffffffffffffffff16638b69310a8989898989896040518763ffffffff1660e01b8152600401610b3496959493929190611d61565b600060405180830381600087803b158015610b4e57600080fd5b505af1158015610b62573d6000803e3d6000fd5b50505050610b706003610d93565b7febce1e16a628721c769bcf12f53257da29dfa17a0dd54c0febae7eefe93c44e98b8b610b9d60036110b5565b8c604051610bae9493929190611e3a565b60405180910390a1809150509998505050505050505050565b600080610bd460036110b5565b9050600160009054906101000a900473ffffffffffffffffffffffffffffffffffffffff1673ffffffffffffffffffffffffffffffffffffffff16638b69310a8989898989896040518763ffffffff1660e01b8152600401610c3b96959493929190611d61565b600060405180830381600087803b158015610c5557600080fd5b505af1158015610c69573d6000803e3d6000fd5b50505050610c776003610d93565b7febce1e16a628721c769bcf12f53257da29dfa17a0dd54c0febae7eefe93c44e98a828b604051610caa93929190611eba565b60405180910390a18091505098975050505050505050565b610ccb8261064d565b610cdc81610cd7610e13565b610e1b565b610ce68383610fd4565b505050565b7f4636e38b5d73cef5ec0bdf8ec3e0565138a2bfe53888f9e988b51165659d842e610d1d81610d18610e13565b610e1b565b60005b83839050811015610d8d57610d7c7fc10c77be35aff266144ed64c26a1fa104bae2f284ae99ac4a34203454704a185858584818110610d6257610d61611aa1565b5b9050602002016020810190610d779190611ad0565b610cc2565b80610d8690611b2c565b9050610d20565b50505050565b6001816000016000828254019250508190555050565b60007f01ffc9a7000000000000000000000000000000000000000000000000000000007bffffffffffffffffffffffffffffffffffffffffffffffffffffffff1916827bffffffffffffffffffffffffffffffffffffffffffffffffffffffff1916149050919050565b600033905090565b610e258282610963565b610eb457610e4a8173ffffffffffffffffffffffffffffffffffffffff1660146110c3565b610e588360001c60206110c3565b604051602001610e69929190611fe6565b6040516020818303038152906040526040517f08c379a0000000000000000000000000000000000000000000000000000000008152600401610eab9190612020565b60405180910390fd5b5050565b600060026000848152602001908152602001600020600083815260200190815260200160002060009054906101000a900460ff16905092915050565b610efe8282610963565b610fd057600160008084815260200190815260200160002060000160008373ffffffffffffffffffffffffffffffffffffffff1673ffffffffffffffffffffffffffffffffffffffff16815260200190815260200160002060006101000a81548160ff021916908315150217905550610f75610e13565b73ffffffffffffffffffffffffffffffffffffffff168173ffffffffffffffffffffffffffffffffffffffff16837f2f8788117e7eff1d82e926ec794901d17c78024a50270940304540a733656f0d60405160405180910390a45b5050565b610fde8282610963565b156110b157600080600084815260200190815260200160002060000160008373ffffffffffffffffffffffffffffffffffffffff1673ffffffffffffffffffffffffffffffffffffffff16815260200190815260200160002060006101000a81548160ff021916908315150217905550611056610e13565b73ffffffffffffffffffffffffffffffffffffffff168173ffffffffffffffffffffffffffffffffffffffff16837ff6391f5c32d9c69d2a47ea670b442974b53935d1edc7fd64eb21e047a839171b60405160405180910390a45b5050565b600081600001549050919050565b6060600060028360026110d69190612042565b6110e0919061209c565b67ffffffffffffffff8111156110f9576110f861171e565b5b6040519080825280601f01601f19166020018201604052801561112b5781602001600182028036833780820191505090505b5090507f30000000000000000000000000000000000000000000000000000000000000008160008151811061116357611162611aa1565b5b60200101907effffffffffffffffffffffffffffffffffffffffffffffffffffffffffffff1916908160001a9053507f7800000000000000000000000000000000000000000000000000000000000000816001815181106111c7576111c6611aa1565b5b60200101907effffffffffffffffffffffffffffffffffffffffffffffffffffffffffffff1916908160001a905350600060018460026112079190612042565b611211919061209c565b90505b60018111156112b1577f3031323334353637383961626364656600000000000000000000000000000000600f86166010811061125357611252611aa1565b5b1a60f81b82828151811061126a57611269611aa1565b5b60200101907effffffffffffffffffffffffffffffffffffffffffffffffffffffffffffff1916908160001a905350600485901c9450806112aa906120f2565b9050611214565b50600084146112f5576040517f08c379a00000000000000000000000000000000000000000000000000000000081526004016112ec90612167565b60405180910390fd5b8091505092915050565b6000604051905090565b600080fd5b600080fd5b60007fffffffff0000000000000000000000000000000000000000000000000000000082169050919050565b61134881611313565b811461135357600080fd5b50565b6000813590506113658161133f565b92915050565b60006020828403121561138157611380611309565b5b600061138f84828501611356565b91505092915050565b60008115159050919050565b6113ad81611398565b82525050565b60006020820190506113c860008301846113a4565b92915050565b600080fd5b600080fd5b600080fd5b60008083601f8401126113f3576113f26113ce565b5b8235905067ffffffffffffffff8111156114105761140f6113d3565b5b60208301915083602082028301111561142c5761142b6113d8565b5b9250929050565b6000806020838503121561144a57611449611309565b5b600083013567ffffffffffffffff8111156114685761146761130e565b5b611474858286016113dd565b92509250509250929050565b6000819050919050565b61149381611480565b811461149e57600080fd5b50565b6000813590506114b08161148a565b92915050565b600080604083850312156114cd576114cc611309565b5b60006114db858286016114a1565b92505060206114ec858286016114a1565b9150509250929050565b6000819050919050565b611509816114f6565b811461151457600080fd5b50565b60008135905061152681611500565b92915050565b60006020828403121561154257611541611309565b5b600061155084828501611517565b91505092915050565b611562816114f6565b82525050565b600060208201905061157d6000830184611559565b92915050565b600073ffffffffffffffffffffffffffffffffffffffff82169050919050565b60006115ae82611583565b9050919050565b6115be816115a3565b81146115c957600080fd5b50565b6000813590506115db816115b5565b92915050565b600080604083850312156115f8576115f7611309565b5b600061160685828601611517565b9250506020611617858286016115cc565b9150509250929050565b6000806040838503121561163857611637611309565b5b6000611646858286016114a1565b9250506020611657858286016115cc565b9150509250929050565b60006020828403121561167757611676611309565b5b6000611685848285016114a1565b91505092915050565b6000819050919050565b60006116b36116ae6116a984611583565b61168e565b611583565b9050919050565b60006116c582611698565b9050919050565b60006116d7826116ba565b9050919050565b6116e7816116cc565b82525050565b600060208201905061170260008301846116de565b92915050565b600080fd5b6000601f19601f8301169050919050565b7f4e487b7100000000000000000000000000000000000000000000000000000000600052604160045260246000fd5b6117568261170d565b810181811067ffffffffffffffff821117156117755761177461171e565b5b80604052505050565b60006117886112ff565b9050611794828261174d565b919050565b600067ffffffffffffffff8211156117b4576117b361171e565b5b6117bd8261170d565b9050602081019050919050565b82818337600083830152505050565b60006117ec6117e784611799565b61177e565b90508281526020810184848401111561180857611807611708565b5b6118138482856117ca565b509392505050565b600082601f8301126118305761182f6113ce565b5b81356118408482602086016117d9565b91505092915050565b600081905082602060080282011115611865576118646113d8565b5b92915050565b60008060008060008060008060006102008a8c03121561188e5761188d611309565b5b60008a013567ffffffffffffffff8111156118ac576118ab61130e565b5b6118b88c828d0161181b565b99505060208a013567ffffffffffffffff8111156118d9576118d861130e565b5b6118e58c828d0161181b565b98505060408a013567ffffffffffffffff8111156119065761190561130e565b5b6119128c828d0161181b565b97505060606119238c828d016114a1565b96505060806119348c828d016114a1565b95505060a06119458c828d01611517565b94505060c06119568c828d016114a1565b93505060e06119678c828d016114a1565b9250506101006119798c828d01611849565b9150509295985092959850929598565b61199281611480565b82525050565b60006020820190506119ad6000830184611989565b92915050565b6000806000806000806000806101e0898b0312156119d4576119d3611309565b5b600089013567ffffffffffffffff8111156119f2576119f161130e565b5b6119fe8b828c0161181b565b985050602089013567ffffffffffffffff811115611a1f57611a1e61130e565b5b611a2b8b828c0161181b565b9750506040611a3c8b828c016114a1565b9650506060611a4d8b828c016114a1565b9550506080611a5e8b828c01611517565b94505060a0611a6f8b828c016114a1565b93505060c0611a808b828c016114a1565b92505060e0611a918b828c01611849565b9150509295985092959890939650565b7f4e487b7100000000000000000000000000000000000000000000000000000000600052603260045260246000fd5b600060208284031215611ae657611ae5611309565b5b6000611af4848285016115cc565b91505092915050565b7f4e487b7100000000000000000000000000000000000000000000000000000000600052601160045260246000fd5b6000611b3782611480565b91507fffffffffffffffffffffffffffffffffffffffffffffffffffffffffffffffff8203611b6957611b68611afd565b5b600182019050919050565b600082825260208201905092915050565b7f4d656d62657220616c726561647920616464656420746f2067726f7570000000600082015250565b6000611bbb601d83611b74565b9150611bc682611b85565b602082019050919050565b60006020820190508181036000830152611bea81611bae565b9050919050565b6000604082019050611c066000830185611989565b611c136020830184611989565b9392505050565b7f416363657373436f6e74726f6c3a2063616e206f6e6c792072656e6f756e636560008201527f20726f6c657320666f722073656c660000000000000000000000000000000000602082015250565b6000611c76602f83611b74565b9150611c8182611c1a565b604082019050919050565b60006020820190508181036000830152611ca581611c69565b9050919050565b611cb5816115a3565b82525050565b6000604082019050611cd06000830185611989565b611cdd6020830184611cac565b9392505050565b7f496e76616c696420494420666f7220706172656e74206d657373616765000000600082015250565b6000611d1a601d83611b74565b9150611d2582611ce4565b602082019050919050565b60006020820190508181036000830152611d4981611d0d565b9050919050565b611d5d61010083836117ca565b5050565b60006101a082019050611d776000830189611989565b611d846020830188611989565b611d916040830187611559565b611d9e6060830186611989565b611dab6080830185611989565b611db860a0830184611d50565b979650505050505050565b600081519050919050565b60005b83811015611dec578082015181840152602081019050611dd1565b83811115611dfb576000848401525b50505050565b6000611e0c82611dc3565b611e168185611b74565b9350611e26818560208601611dce565b611e2f8161170d565b840191505092915050565b60006080820190508181036000830152611e548187611e01565b90508181036020830152611e688186611e01565b9050611e776040830185611989565b8181036060830152611e898184611e01565b905095945050505050565b50565b6000611ea4600083611b74565b9150611eaf82611e94565b600082019050919050565b60006080820190508181036000830152611ed381611e97565b90508181036020830152611ee78186611e01565b9050611ef66040830185611989565b8181036060830152611f088184611e01565b9050949350505050565b600081905092915050565b7f416363657373436f6e74726f6c3a206163636f756e7420000000000000000000600082015250565b6000611f53601783611f12565b9150611f5e82611f1d565b601782019050919050565b6000611f7482611dc3565b611f7e8185611f12565b9350611f8e818560208601611dce565b80840191505092915050565b7f206973206d697373696e6720726f6c6520000000000000000000000000000000600082015250565b6000611fd0601183611f12565b9150611fdb82611f9a565b601182019050919050565b6000611ff182611f46565b9150611ffd8285611f69565b915061200882611fc3565b91506120148284611f69565b91508190509392505050565b6000602082019050818103600083015261203a8184611e01565b905092915050565b600061204d82611480565b915061205883611480565b9250817fffffffffffffffffffffffffffffffffffffffffffffffffffffffffffffffff048311821515161561209157612090611afd565b5b828202905092915050565b60006120a782611480565b91506120b283611480565b9250827fffffffffffffffffffffffffffffffffffffffffffffffffffffffffffffffff038211156120e7576120e6611afd565b5b828201905092915050565b60006120fd82611480565b9150600082036121105761210f611afd565b5b600182039050919050565b7f537472696e67733a20686578206c656e67746820696e73756666696369656e74600082015250565b6000612151602083611b74565b915061215c8261211b565b602082019050919050565b6000602082019050818103600083015261218081612144565b905091905056fea26469706673582212205ecb036ea9c4f040d8949d2b7d23cf1244a69acbf9ebe77d752bb7fd03f9320964736f6c634300080d0033",
  "linkReferences": {},
  "deployedLinkReferences": {}
}