{
  "_format": "hh-sol-artifact-1",
  "contractName": "TazMessage",
  "sourceName": "contracts/TazMessage.sol",
  "abi": [
    {
      "inputs": [
        {
          "internalType": "contract ISemaphore",
          "name": "semaContractAddr",
          "type": "address"
        }
      ],
      "stateMutability": "nonpayable",
      "type": "constructor"
    },
    {
      "anonymous": false,
      "inputs": [
        {
          "indexed": true,
          "internalType": "uint256",
          "name": "groupId",
          "type": "uint256"
        },
        {
          "indexed": false,
          "internalType": "uint256",
          "name": "identityCommitment",
          "type": "uint256"
        }
      ],
      "name": "MemberAdded",
      "type": "event"
    },
    {
      "anonymous": false,
      "inputs": [
        {
          "indexed": false,
          "internalType": "string",
          "name": "parentMessageId",
          "type": "string"
        },
        {
          "indexed": false,
          "internalType": "string",
          "name": "messageId",
          "type": "string"
        },
        {
          "indexed": false,
          "internalType": "string",
          "name": "messageContent",
          "type": "string"
        }
      ],
      "name": "MessageAdded",
      "type": "event"
    },
    {
      "anonymous": false,
      "inputs": [
        {
          "indexed": true,
          "internalType": "address",
          "name": "previousOwner",
          "type": "address"
        },
        {
          "indexed": true,
          "internalType": "address",
          "name": "newOwner",
          "type": "address"
        }
      ],
      "name": "OwnershipTransferred",
      "type": "event"
    },
    {
      "inputs": [
        {
          "internalType": "uint256",
          "name": "groupId",
          "type": "uint256"
        },
        {
          "internalType": "uint256",
          "name": "identityCommitment",
          "type": "uint256"
        }
      ],
      "name": "addMember",
      "outputs": [],
      "stateMutability": "nonpayable",
      "type": "function"
    },
    {
      "inputs": [
        {
          "internalType": "string",
          "name": "messageId",
          "type": "string"
        },
        {
          "internalType": "string",
          "name": "messageContent",
          "type": "string"
        },
        {
          "internalType": "uint256",
          "name": "groupId",
          "type": "uint256"
        },
        {
          "internalType": "uint256",
          "name": "merkleTreeRoot",
          "type": "uint256"
        },
        {
          "internalType": "bytes32",
          "name": "signal",
          "type": "bytes32"
        },
        {
          "internalType": "uint256",
          "name": "nullifierHash",
          "type": "uint256"
        },
        {
          "internalType": "uint256",
          "name": "externalNullifier",
          "type": "uint256"
        },
        {
          "internalType": "uint256[8]",
          "name": "proof",
          "type": "uint256[8]"
        }
      ],
      "name": "addMessage",
      "outputs": [],
      "stateMutability": "nonpayable",
      "type": "function"
    },
    {
      "inputs": [],
      "name": "owner",
      "outputs": [
        {
          "internalType": "address",
          "name": "",
          "type": "address"
        }
      ],
      "stateMutability": "view",
      "type": "function"
    },
    {
      "inputs": [],
      "name": "renounceOwnership",
      "outputs": [],
      "stateMutability": "nonpayable",
      "type": "function"
    },
    {
      "inputs": [
        {
          "internalType": "string",
          "name": "parentMessageId",
          "type": "string"
        },
        {
          "internalType": "string",
          "name": "messageId",
          "type": "string"
        },
        {
          "internalType": "string",
          "name": "messageContent",
          "type": "string"
        },
        {
          "internalType": "uint256",
          "name": "groupId",
          "type": "uint256"
        },
        {
          "internalType": "uint256",
          "name": "merkleTreeRoot",
          "type": "uint256"
        },
        {
          "internalType": "bytes32",
          "name": "signal",
          "type": "bytes32"
        },
        {
          "internalType": "uint256",
          "name": "nullifierHash",
          "type": "uint256"
        },
        {
          "internalType": "uint256",
          "name": "externalNullifier",
          "type": "uint256"
        },
        {
          "internalType": "uint256[8]",
          "name": "proof",
          "type": "uint256[8]"
        }
      ],
      "name": "replyToMessage",
      "outputs": [],
      "stateMutability": "nonpayable",
      "type": "function"
    },
    {
      "inputs": [],
      "name": "semaContract",
      "outputs": [
        {
          "internalType": "contract ISemaphore",
          "name": "",
          "type": "address"
        }
      ],
      "stateMutability": "view",
      "type": "function"
    },
    {
      "inputs": [
        {
          "internalType": "address",
          "name": "newOwner",
          "type": "address"
        }
      ],
      "name": "transferOwnership",
      "outputs": [],
      "stateMutability": "nonpayable",
      "type": "function"
    },
    {
      "inputs": [
        {
          "internalType": "uint256",
          "name": "groupId",
          "type": "uint256"
        },
        {
          "internalType": "address",
          "name": "newAdmin",
          "type": "address"
        }
      ],
      "name": "updateSemaphoreGroupAdmin",
      "outputs": [],
      "stateMutability": "nonpayable",
      "type": "function"
    }
  ],
  "bytecode": "0x60806040523480156200001157600080fd5b506040516200152e3803806200152e8339818101604052810190620000379190620001e9565b620000576200004b6200009f60201b60201c565b620000a760201b60201c565b80600160006101000a81548173ffffffffffffffffffffffffffffffffffffffff021916908373ffffffffffffffffffffffffffffffffffffffff160217905550506200021b565b600033905090565b60008060009054906101000a900473ffffffffffffffffffffffffffffffffffffffff169050816000806101000a81548173ffffffffffffffffffffffffffffffffffffffff021916908373ffffffffffffffffffffffffffffffffffffffff1602179055508173ffffffffffffffffffffffffffffffffffffffff168173ffffffffffffffffffffffffffffffffffffffff167f8be0079c531659141344cd1fd0a4f28419497f9722a3daafe3b4186f6b6457e060405160405180910390a35050565b600080fd5b600073ffffffffffffffffffffffffffffffffffffffff82169050919050565b60006200019d8262000170565b9050919050565b6000620001b18262000190565b9050919050565b620001c381620001a4565b8114620001cf57600080fd5b50565b600081519050620001e381620001b8565b92915050565b6000602082840312156200020257620002016200016b565b5b60006200021284828501620001d2565b91505092915050565b611303806200022b6000396000f3fe608060405234801561001057600080fd5b50600436106100885760003560e01c80638da5cb5b1161005b5780638da5cb5b146100ed578063a53beac41461010b578063d1871e6014610127578063f2fde38b1461014357610088565b80631783efc31461008d57806367c608da146100a9578063715018a6146100c55780638a8deed7146100cf575b600080fd5b6100a760048036038101906100a29190610957565b61015f565b005b6100c360048036038101906100be91906109f5565b61032d565b005b6100cd61043c565b005b6100d76104c4565b6040516100e49190610a94565b60405180910390f35b6100f56104ea565b6040516101029190610abe565b60405180910390f35b61012560048036038101906101209190610c7c565b610513565b005b610141600480360381019061013c9190610d9a565b610634565b005b61015d60048036038101906101589190610e88565b61070e565b005b610167610805565b73ffffffffffffffffffffffffffffffffffffffff166101856104ea565b73ffffffffffffffffffffffffffffffffffffffff16146101db576040517f08c379a00000000000000000000000000000000000000000000000000000000081526004016101d290610f12565b60405180910390fd5b6101e5828261080d565b15610225576040517f08c379a000000000000000000000000000000000000000000000000000000000815260040161021c90610f7e565b60405180910390fd5b600160009054906101000a900473ffffffffffffffffffffffffffffffffffffffff1673ffffffffffffffffffffffffffffffffffffffff16631783efc383836040518363ffffffff1660e01b8152600401610282929190610fad565b600060405180830381600087803b15801561029c57600080fd5b505af11580156102b0573d6000803e3d6000fd5b50505050600160026000848152602001908152602001600020600083815260200190815260200160002060006101000a81548160ff021916908315150217905550817fa7971101f3ab1808fedaf53dcda952637961dcc1153334a243c3426fc83c8594826040516103219190610fd6565b60405180910390a25050565b610335610805565b73ffffffffffffffffffffffffffffffffffffffff166103536104ea565b73ffffffffffffffffffffffffffffffffffffffff16146103a9576040517f08c379a00000000000000000000000000000000000000000000000000000000081526004016103a090610f12565b60405180910390fd5b600160009054906101000a900473ffffffffffffffffffffffffffffffffffffffff1673ffffffffffffffffffffffffffffffffffffffff1663568ee82683836040518363ffffffff1660e01b8152600401610406929190610ff1565b600060405180830381600087803b15801561042057600080fd5b505af1158015610434573d6000803e3d6000fd5b505050505050565b610444610805565b73ffffffffffffffffffffffffffffffffffffffff166104626104ea565b73ffffffffffffffffffffffffffffffffffffffff16146104b8576040517f08c379a00000000000000000000000000000000000000000000000000000000081526004016104af90610f12565b60405180910390fd5b6104c26000610849565b565b600160009054906101000a900473ffffffffffffffffffffffffffffffffffffffff1681565b60008060009054906101000a900473ffffffffffffffffffffffffffffffffffffffff16905090565b6000895111610557576040517f08c379a000000000000000000000000000000000000000000000000000000000815260040161054e90611066565b60405180910390fd5b600160009054906101000a900473ffffffffffffffffffffffffffffffffffffffff1673ffffffffffffffffffffffffffffffffffffffff16638b69310a8787878787876040518763ffffffff1660e01b81526004016105bc969594939291906110a6565b600060405180830381600087803b1580156105d657600080fd5b505af11580156105ea573d6000803e3d6000fd5b505050507f23d645796f35d9391d4b5a1532c734659818e1eb2b5245723dcb411485b3f2458989896040516106219392919061117f565b60405180910390a1505050505050505050565b600160009054906101000a900473ffffffffffffffffffffffffffffffffffffffff1673ffffffffffffffffffffffffffffffffffffffff16638b69310a8787878787876040518763ffffffff1660e01b8152600401610699969594939291906110a6565b600060405180830381600087803b1580156106b357600080fd5b505af11580156106c7573d6000803e3d6000fd5b505050507f23d645796f35d9391d4b5a1532c734659818e1eb2b5245723dcb411485b3f24588886040516106fc9291906111f1565b60405180910390a15050505050505050565b610716610805565b73ffffffffffffffffffffffffffffffffffffffff166107346104ea565b73ffffffffffffffffffffffffffffffffffffffff161461078a576040517f08c379a000000000000000000000000000000000000000000000000000000000815260040161078190610f12565b60405180910390fd5b600073ffffffffffffffffffffffffffffffffffffffff168173ffffffffffffffffffffffffffffffffffffffff16036107f9576040517f08c379a00000000000000000000000000000000000000000000000000000000081526004016107f0906112ad565b60405180910390fd5b61080281610849565b50565b600033905090565b600060026000848152602001908152602001600020600083815260200190815260200160002060009054906101000a900460ff16905092915050565b60008060009054906101000a900473ffffffffffffffffffffffffffffffffffffffff169050816000806101000a81548173ffffffffffffffffffffffffffffffffffffffff021916908373ffffffffffffffffffffffffffffffffffffffff1602179055508173ffffffffffffffffffffffffffffffffffffffff168173ffffffffffffffffffffffffffffffffffffffff167f8be0079c531659141344cd1fd0a4f28419497f9722a3daafe3b4186f6b6457e060405160405180910390a35050565b6000604051905090565b600080fd5b600080fd5b6000819050919050565b61093481610921565b811461093f57600080fd5b50565b6000813590506109518161092b565b92915050565b6000806040838503121561096e5761096d610917565b5b600061097c85828601610942565b925050602061098d85828601610942565b9150509250929050565b600073ffffffffffffffffffffffffffffffffffffffff82169050919050565b60006109c282610997565b9050919050565b6109d2816109b7565b81146109dd57600080fd5b50565b6000813590506109ef816109c9565b92915050565b60008060408385031215610a0c57610a0b610917565b5b6000610a1a85828601610942565b9250506020610a2b858286016109e0565b9150509250929050565b6000819050919050565b6000610a5a610a55610a5084610997565b610a35565b610997565b9050919050565b6000610a6c82610a3f565b9050919050565b6000610a7e82610a61565b9050919050565b610a8e81610a73565b82525050565b6000602082019050610aa96000830184610a85565b92915050565b610ab8816109b7565b82525050565b6000602082019050610ad36000830184610aaf565b92915050565b600080fd5b600080fd5b6000601f19601f8301169050919050565b7f4e487b7100000000000000000000000000000000000000000000000000000000600052604160045260246000fd5b610b2c82610ae3565b810181811067ffffffffffffffff82111715610b4b57610b4a610af4565b5b80604052505050565b6000610b5e61090d565b9050610b6a8282610b23565b919050565b600067ffffffffffffffff821115610b8a57610b89610af4565b5b610b9382610ae3565b9050602081019050919050565b82818337600083830152505050565b6000610bc2610bbd84610b6f565b610b54565b905082815260208101848484011115610bde57610bdd610ade565b5b610be9848285610ba0565b509392505050565b600082601f830112610c0657610c05610ad9565b5b8135610c16848260208601610baf565b91505092915050565b6000819050919050565b610c3281610c1f565b8114610c3d57600080fd5b50565b600081359050610c4f81610c29565b92915050565b600080fd5b600081905082602060080282011115610c7657610c75610c55565b5b92915050565b60008060008060008060008060006102008a8c031215610c9f57610c9e610917565b5b60008a013567ffffffffffffffff811115610cbd57610cbc61091c565b5b610cc98c828d01610bf1565b99505060208a013567ffffffffffffffff811115610cea57610ce961091c565b5b610cf68c828d01610bf1565b98505060408a013567ffffffffffffffff811115610d1757610d1661091c565b5b610d238c828d01610bf1565b9750506060610d348c828d01610942565b9650506080610d458c828d01610942565b95505060a0610d568c828d01610c40565b94505060c0610d678c828d01610942565b93505060e0610d788c828d01610942565b925050610100610d8a8c828d01610c5a565b9150509295985092959850929598565b6000806000806000806000806101e0898b031215610dbb57610dba610917565b5b600089013567ffffffffffffffff811115610dd957610dd861091c565b5b610de58b828c01610bf1565b985050602089013567ffffffffffffffff811115610e0657610e0561091c565b5b610e128b828c01610bf1565b9750506040610e238b828c01610942565b9650506060610e348b828c01610942565b9550506080610e458b828c01610c40565b94505060a0610e568b828c01610942565b93505060c0610e678b828c01610942565b92505060e0610e788b828c01610c5a565b9150509295985092959890939650565b600060208284031215610e9e57610e9d610917565b5b6000610eac848285016109e0565b91505092915050565b600082825260208201905092915050565b7f4f776e61626c653a2063616c6c6572206973206e6f7420746865206f776e6572600082015250565b6000610efc602083610eb5565b9150610f0782610ec6565b602082019050919050565b60006020820190508181036000830152610f2b81610eef565b9050919050565b7f4d656d62657220616c726561647920616464656420746f2067726f7570000000600082015250565b6000610f68601d83610eb5565b9150610f7382610f32565b602082019050919050565b60006020820190508181036000830152610f9781610f5b565b9050919050565b610fa781610921565b82525050565b6000604082019050610fc26000830185610f9e565b610fcf6020830184610f9e565b9392505050565b6000602082019050610feb6000830184610f9e565b92915050565b60006040820190506110066000830185610f9e565b6110136020830184610aaf565b9392505050565b7f496e76616c696420494420666f7220706172656e74206d657373616765000000600082015250565b6000611050601d83610eb5565b915061105b8261101a565b602082019050919050565b6000602082019050818103600083015261107f81611043565b9050919050565b61108f81610c1f565b82525050565b6110a26101008383610ba0565b5050565b60006101a0820190506110bc6000830189610f9e565b6110c96020830188610f9e565b6110d66040830187611086565b6110e36060830186610f9e565b6110f06080830185610f9e565b6110fd60a0830184611095565b979650505050505050565b600081519050919050565b60005b83811015611131578082015181840152602081019050611116565b83811115611140576000848401525b50505050565b600061115182611108565b61115b8185610eb5565b935061116b818560208601611113565b61117481610ae3565b840191505092915050565b600060608201905081810360008301526111998186611146565b905081810360208301526111ad8185611146565b905081810360408301526111c18184611146565b9050949350505050565b50565b60006111db600083610eb5565b91506111e6826111cb565b600082019050919050565b6000606082019050818103600083015261120a816111ce565b9050818103602083015261121e8185611146565b905081810360408301526112328184611146565b90509392505050565b7f4f776e61626c653a206e6577206f776e657220697320746865207a65726f206160008201527f6464726573730000000000000000000000000000000000000000000000000000602082015250565b6000611297602683610eb5565b91506112a28261123b565b604082019050919050565b600060208201905081810360008301526112c68161128a565b905091905056fea26469706673582212204b196ba7545bc93d9aad2ce68f9c82911a859b9105662c1652db47d28504800e64736f6c634300080d0033",
  "linkReferences": {},
  "deployedLinkReferences": {}
}