{
  "_format": "hh-sol-artifact-1",
  "contractName": "TazToken",
  "sourceName": "contracts/TazToken.sol",
  "abi": [
    {
      "inputs": [
        {
          "internalType": "contract ISemaphore",
          "name": "semaContractAddr",
          "type": "address"
        }
      ],
      "stateMutability": "nonpayable",
      "type": "constructor"
    },
    {
      "anonymous": false,
      "inputs": [
        {
          "indexed": true,
          "internalType": "address",
          "name": "owner",
          "type": "address"
        },
        {
          "indexed": true,
          "internalType": "address",
          "name": "approved",
          "type": "address"
        },
        {
          "indexed": true,
          "internalType": "uint256",
          "name": "tokenId",
          "type": "uint256"
        }
      ],
      "name": "Approval",
      "type": "event"
    },
    {
      "anonymous": false,
      "inputs": [
        {
          "indexed": true,
          "internalType": "address",
          "name": "owner",
          "type": "address"
        },
        {
          "indexed": true,
          "internalType": "address",
          "name": "operator",
          "type": "address"
        },
        {
          "indexed": false,
          "internalType": "bool",
          "name": "approved",
          "type": "bool"
        }
      ],
      "name": "ApprovalForAll",
      "type": "event"
    },
    {
      "anonymous": false,
      "inputs": [
        {
          "indexed": false,
          "internalType": "uint256",
          "name": "tokenId",
          "type": "uint256"
        },
        {
          "indexed": false,
          "internalType": "string",
          "name": "uri",
          "type": "string"
        }
      ],
      "name": "NewToken",
      "type": "event"
    },
    {
      "anonymous": false,
      "inputs": [
        {
          "indexed": true,
          "internalType": "bytes32",
          "name": "role",
          "type": "bytes32"
        },
        {
          "indexed": true,
          "internalType": "bytes32",
          "name": "previousAdminRole",
          "type": "bytes32"
        },
        {
          "indexed": true,
          "internalType": "bytes32",
          "name": "newAdminRole",
          "type": "bytes32"
        }
      ],
      "name": "RoleAdminChanged",
      "type": "event"
    },
    {
      "anonymous": false,
      "inputs": [
        {
          "indexed": true,
          "internalType": "bytes32",
          "name": "role",
          "type": "bytes32"
        },
        {
          "indexed": true,
          "internalType": "address",
          "name": "account",
          "type": "address"
        },
        {
          "indexed": true,
          "internalType": "address",
          "name": "sender",
          "type": "address"
        }
      ],
      "name": "RoleGranted",
      "type": "event"
    },
    {
      "anonymous": false,
      "inputs": [
        {
          "indexed": true,
          "internalType": "bytes32",
          "name": "role",
          "type": "bytes32"
        },
        {
          "indexed": true,
          "internalType": "address",
          "name": "account",
          "type": "address"
        },
        {
          "indexed": true,
          "internalType": "address",
          "name": "sender",
          "type": "address"
        }
      ],
      "name": "RoleRevoked",
      "type": "event"
    },
    {
      "anonymous": false,
      "inputs": [
        {
          "indexed": true,
          "internalType": "address",
          "name": "from",
          "type": "address"
        },
        {
          "indexed": true,
          "internalType": "address",
          "name": "to",
          "type": "address"
        },
        {
          "indexed": true,
          "internalType": "uint256",
          "name": "tokenId",
          "type": "uint256"
        }
      ],
      "name": "Transfer",
      "type": "event"
    },
    {
      "anonymous": false,
      "inputs": [
        {
          "indexed": false,
          "internalType": "uint256",
          "name": "messageNum",
          "type": "uint256"
        },
        {
          "indexed": false,
          "internalType": "address",
          "name": "reviewer",
          "type": "address"
        }
      ],
      "name": "ViolationAdded",
      "type": "event"
    },
    {
      "anonymous": false,
      "inputs": [
        {
          "indexed": false,
          "internalType": "uint256",
          "name": "tokenId",
          "type": "uint256"
        }
      ],
      "name": "VoteAdded",
      "type": "event"
    },
    {
      "inputs": [],
      "name": "DEFAULT_ADMIN_ROLE",
      "outputs": [
        {
          "internalType": "bytes32",
          "name": "",
          "type": "bytes32"
        }
      ],
      "stateMutability": "view",
      "type": "function"
    },
    {
      "inputs": [],
      "name": "REVIEWER_ROLE",
      "outputs": [
        {
          "internalType": "bytes32",
          "name": "",
          "type": "bytes32"
        }
      ],
      "stateMutability": "view",
      "type": "function"
    },
    {
      "inputs": [],
      "name": "START_STOPPER_ROLE",
      "outputs": [
        {
          "internalType": "bytes32",
          "name": "",
          "type": "bytes32"
        }
      ],
      "stateMutability": "view",
      "type": "function"
    },
    {
      "inputs": [],
      "name": "TAZ_ADMIN_ROLE",
      "outputs": [
        {
          "internalType": "bytes32",
          "name": "",
          "type": "bytes32"
        }
      ],
      "stateMutability": "view",
      "type": "function"
    },
    {
      "inputs": [
        {
          "internalType": "address[]",
          "name": "reviewers",
          "type": "address[]"
        }
      ],
      "name": "addReviewers",
      "outputs": [],
      "stateMutability": "nonpayable",
      "type": "function"
    },
    {
      "inputs": [
        {
          "internalType": "address[]",
          "name": "startStoppers",
          "type": "address[]"
        }
      ],
      "name": "addStartStoppers",
      "outputs": [],
      "stateMutability": "nonpayable",
      "type": "function"
    },
    {
      "inputs": [
        {
          "internalType": "uint256",
          "name": "tokenId",
          "type": "uint256"
        }
      ],
      "name": "addViolation",
      "outputs": [],
      "stateMutability": "nonpayable",
      "type": "function"
    },
    {
      "inputs": [
        {
          "internalType": "address",
          "name": "to",
          "type": "address"
        },
        {
          "internalType": "uint256",
          "name": "tokenId",
          "type": "uint256"
        }
      ],
      "name": "approve",
      "outputs": [],
      "stateMutability": "nonpayable",
      "type": "function"
    },
    {
      "inputs": [
        {
          "internalType": "address",
          "name": "owner",
          "type": "address"
        }
      ],
      "name": "balanceOf",
      "outputs": [
        {
          "internalType": "uint256",
          "name": "",
          "type": "uint256"
        }
      ],
      "stateMutability": "view",
      "type": "function"
    },
    {
      "inputs": [
        {
          "internalType": "uint256",
          "name": "tokenId",
          "type": "uint256"
        }
      ],
      "name": "getApproved",
      "outputs": [
        {
          "internalType": "address",
          "name": "",
          "type": "address"
        }
      ],
      "stateMutability": "view",
      "type": "function"
    },
    {
      "inputs": [
        {
          "internalType": "bytes32",
          "name": "role",
          "type": "bytes32"
        }
      ],
      "name": "getRoleAdmin",
      "outputs": [
        {
          "internalType": "bytes32",
          "name": "",
          "type": "bytes32"
        }
      ],
      "stateMutability": "view",
      "type": "function"
    },
    {
      "inputs": [
        {
          "internalType": "bytes32",
          "name": "role",
          "type": "bytes32"
        },
        {
          "internalType": "address",
          "name": "account",
          "type": "address"
        }
      ],
      "name": "grantRole",
      "outputs": [],
      "stateMutability": "nonpayable",
      "type": "function"
    },
    {
      "inputs": [
        {
          "internalType": "bytes32",
          "name": "role",
          "type": "bytes32"
        },
        {
          "internalType": "address",
          "name": "account",
          "type": "address"
        }
      ],
      "name": "hasRole",
      "outputs": [
        {
          "internalType": "bool",
          "name": "",
          "type": "bool"
        }
      ],
      "stateMutability": "view",
      "type": "function"
    },
    {
      "inputs": [
        {
          "internalType": "address",
          "name": "owner",
          "type": "address"
        },
        {
          "internalType": "address",
          "name": "operator",
          "type": "address"
        }
      ],
      "name": "isApprovedForAll",
      "outputs": [
        {
          "internalType": "bool",
          "name": "",
          "type": "bool"
        }
      ],
      "stateMutability": "view",
      "type": "function"
    },
    {
      "inputs": [],
      "name": "name",
      "outputs": [
        {
          "internalType": "string",
          "name": "",
          "type": "string"
        }
      ],
      "stateMutability": "view",
      "type": "function"
    },
    {
      "inputs": [
        {
          "internalType": "uint256",
          "name": "tokenId",
          "type": "uint256"
        }
      ],
      "name": "ownerOf",
      "outputs": [
        {
          "internalType": "address",
          "name": "",
          "type": "address"
        }
      ],
      "stateMutability": "view",
      "type": "function"
    },
    {
      "inputs": [
        {
          "internalType": "address[]",
          "name": "reviewers",
          "type": "address[]"
        }
      ],
      "name": "removeReviewers",
      "outputs": [],
      "stateMutability": "nonpayable",
      "type": "function"
    },
    {
      "inputs": [
        {
          "internalType": "address[]",
          "name": "startStoppers",
          "type": "address[]"
        }
      ],
      "name": "removeStartStoppers",
      "outputs": [],
      "stateMutability": "nonpayable",
      "type": "function"
    },
    {
      "inputs": [
        {
          "internalType": "bytes32",
          "name": "role",
          "type": "bytes32"
        },
        {
          "internalType": "address",
          "name": "account",
          "type": "address"
        }
      ],
      "name": "renounceRole",
      "outputs": [],
      "stateMutability": "nonpayable",
      "type": "function"
    },
    {
      "inputs": [
        {
          "internalType": "bytes32",
          "name": "role",
          "type": "bytes32"
        },
        {
          "internalType": "address",
          "name": "account",
          "type": "address"
        }
      ],
      "name": "revokeRole",
      "outputs": [],
      "stateMutability": "nonpayable",
      "type": "function"
    },
    {
      "inputs": [
        {
          "internalType": "address",
          "name": "to",
          "type": "address"
        },
        {
          "internalType": "string",
          "name": "uri",
          "type": "string"
        },
        {
          "internalType": "uint256",
          "name": "groupId",
          "type": "uint256"
        },
        {
          "internalType": "uint256",
          "name": "merkleTreeRoot",
          "type": "uint256"
        },
        {
          "internalType": "bytes32",
          "name": "signal",
          "type": "bytes32"
        },
        {
          "internalType": "uint256",
          "name": "nullifierHash",
          "type": "uint256"
        },
        {
          "internalType": "uint256",
          "name": "externalNullifier",
          "type": "uint256"
        },
        {
          "internalType": "uint256[8]",
          "name": "proof",
          "type": "uint256[8]"
        }
      ],
      "name": "safeMint",
      "outputs": [
        {
          "internalType": "uint256",
          "name": "",
          "type": "uint256"
        }
      ],
      "stateMutability": "nonpayable",
      "type": "function"
    },
    {
      "inputs": [
        {
          "internalType": "address",
          "name": "from",
          "type": "address"
        },
        {
          "internalType": "address",
          "name": "to",
          "type": "address"
        },
        {
          "internalType": "uint256",
          "name": "tokenId",
          "type": "uint256"
        }
      ],
      "name": "safeTransferFrom",
      "outputs": [],
      "stateMutability": "nonpayable",
      "type": "function"
    },
    {
      "inputs": [
        {
          "internalType": "address",
          "name": "from",
          "type": "address"
        },
        {
          "internalType": "address",
          "name": "to",
          "type": "address"
        },
        {
          "internalType": "uint256",
          "name": "tokenId",
          "type": "uint256"
        },
        {
          "internalType": "bytes",
          "name": "_data",
          "type": "bytes"
        }
      ],
      "name": "safeTransferFrom",
      "outputs": [],
      "stateMutability": "nonpayable",
      "type": "function"
    },
    {
      "inputs": [],
      "name": "semaContract",
      "outputs": [
        {
          "internalType": "contract ISemaphore",
          "name": "",
          "type": "address"
        }
      ],
      "stateMutability": "view",
      "type": "function"
    },
    {
      "inputs": [
        {
          "internalType": "address",
          "name": "operator",
          "type": "address"
        },
        {
          "internalType": "bool",
          "name": "approved",
          "type": "bool"
        }
      ],
      "name": "setApprovalForAll",
      "outputs": [],
      "stateMutability": "nonpayable",
      "type": "function"
    },
    {
      "inputs": [],
      "name": "startMinting",
      "outputs": [],
      "stateMutability": "nonpayable",
      "type": "function"
    },
    {
      "inputs": [],
      "name": "startVoting",
      "outputs": [],
      "stateMutability": "nonpayable",
      "type": "function"
    },
    {
      "inputs": [],
      "name": "stopMinting",
      "outputs": [],
      "stateMutability": "nonpayable",
      "type": "function"
    },
    {
      "inputs": [],
      "name": "stopVoting",
      "outputs": [],
      "stateMutability": "nonpayable",
      "type": "function"
    },
    {
      "inputs": [
        {
          "internalType": "bytes4",
          "name": "interfaceId",
          "type": "bytes4"
        }
      ],
      "name": "supportsInterface",
      "outputs": [
        {
          "internalType": "bool",
          "name": "",
          "type": "bool"
        }
      ],
      "stateMutability": "view",
      "type": "function"
    },
    {
      "inputs": [],
      "name": "symbol",
      "outputs": [
        {
          "internalType": "string",
          "name": "",
          "type": "string"
        }
      ],
      "stateMutability": "view",
      "type": "function"
    },
    {
      "inputs": [
        {
          "internalType": "uint256",
          "name": "tokenId",
          "type": "uint256"
        }
      ],
      "name": "tokenURI",
      "outputs": [
        {
          "internalType": "string",
          "name": "",
          "type": "string"
        }
      ],
      "stateMutability": "view",
      "type": "function"
    },
    {
      "inputs": [
        {
          "internalType": "address",
          "name": "from",
          "type": "address"
        },
        {
          "internalType": "address",
          "name": "to",
          "type": "address"
        },
        {
          "internalType": "uint256",
          "name": "tokenId",
          "type": "uint256"
        }
      ],
      "name": "transferFrom",
      "outputs": [],
      "stateMutability": "nonpayable",
      "type": "function"
    },
    {
      "inputs": [
        {
          "internalType": "uint256",
          "name": "tokenId",
          "type": "uint256"
        },
        {
          "internalType": "uint256",
          "name": "groupId",
          "type": "uint256"
        },
        {
          "internalType": "uint256",
          "name": "merkleTreeRoot",
          "type": "uint256"
        },
        {
          "internalType": "bytes32",
          "name": "signal",
          "type": "bytes32"
        },
        {
          "internalType": "uint256",
          "name": "nullifierHash",
          "type": "uint256"
        },
        {
          "internalType": "uint256[8]",
          "name": "proof",
          "type": "uint256[8]"
        }
      ],
      "name": "vote",
      "outputs": [],
      "stateMutability": "nonpayable",
      "type": "function"
    }
  ],
  "bytecode": "0x60806040523480156200001157600080fd5b5060405162004a9438038062004a948339818101604052810190620000379190620005a1565b6040518060400160405280600881526020017f54617a546f6b656e0000000000000000000000000000000000000000000000008152506040518060400160405280600381526020017f54415a00000000000000000000000000000000000000000000000000000000008152508160009080519060200190620000bb92919062000473565b508060019080519060200190620000d492919062000473565b50505080600860006101000a81548173ffffffffffffffffffffffffffffffffffffffff021916908373ffffffffffffffffffffffffffffffffffffffff1602179055506200014a7f4636e38b5d73cef5ec0bdf8ec3e0565138a2bfe53888f9e988b51165659d842e806200027460201b60201c565b6200019c7fc10c77be35aff266144ed64c26a1fa104bae2f284ae99ac4a34203454704a1857f4636e38b5d73cef5ec0bdf8ec3e0565138a2bfe53888f9e988b51165659d842e6200027460201b60201c565b620001ee7fb9fb535eeef00914f0e629be8b6c1550a75e7adca17b4a272f7798bb710f25057f4636e38b5d73cef5ec0bdf8ec3e0565138a2bfe53888f9e988b51165659d842e6200027460201b60201c565b620002207f4636e38b5d73cef5ec0bdf8ec3e0565138a2bfe53888f9e988b51165659d842e33620002d860201b60201c565b6001600a60006101000a81548160ff0219169083151502179055506000600a60016101000a81548160ff0219169083151502179055506200026d6009620003ca60201b620015151760201c565b5062000637565b60006200028783620003e060201b60201c565b90508160076000858152602001908152602001600020600101819055508181847fbd79b86ffe0ab8e8776151514217cd7cacd52c909f66475c3af44e129f0b00ff60405160405180910390a4505050565b620002ea82826200040060201b60201c565b620003c65760016007600084815260200190815260200160002060000160008373ffffffffffffffffffffffffffffffffffffffff1673ffffffffffffffffffffffffffffffffffffffff16815260200190815260200160002060006101000a81548160ff0219169083151502179055506200036b6200046b60201b60201c565b73ffffffffffffffffffffffffffffffffffffffff168173ffffffffffffffffffffffffffffffffffffffff16837f2f8788117e7eff1d82e926ec794901d17c78024a50270940304540a733656f0d60405160405180910390a45b5050565b6001816000016000828254019250508190555050565b600060076000838152602001908152602001600020600101549050919050565b60006007600084815260200190815260200160002060000160008373ffffffffffffffffffffffffffffffffffffffff1673ffffffffffffffffffffffffffffffffffffffff16815260200190815260200160002060009054906101000a900460ff16905092915050565b600033905090565b828054620004819062000602565b90600052602060002090601f016020900481019282620004a55760008555620004f1565b82601f10620004c057805160ff1916838001178555620004f1565b82800160010185558215620004f1579182015b82811115620004f0578251825591602001919060010190620004d3565b5b50905062000500919062000504565b5090565b5b808211156200051f57600081600090555060010162000505565b5090565b600080fd5b600073ffffffffffffffffffffffffffffffffffffffff82169050919050565b6000620005558262000528565b9050919050565b6000620005698262000548565b9050919050565b6200057b816200055c565b81146200058757600080fd5b50565b6000815190506200059b8162000570565b92915050565b600060208284031215620005ba57620005b962000523565b5b6000620005ca848285016200058a565b91505092915050565b7f4e487b7100000000000000000000000000000000000000000000000000000000600052602260045260246000fd5b600060028204905060018216806200061b57607f821691505b602082108103620006315762000630620005d3565b5b50919050565b61444d80620006476000396000f3fe608060405234801561001057600080fd5b50600436106102065760003560e01c8063785b55f81161011a578063acc3f1ed116100ad578063c87b56dd1161007c578063c87b56dd1461059b578063d547741f146105cb578063d6b91e9f146105e7578063e985e9c514610603578063fab2f86b1461063357610206565b8063acc3f1ed14610515578063b88d4fde14610533578063c1a400981461054f578063c61e84da1461057f57610206565b80639a65ea26116100e95780639a65ea26146104b55780639c3ad74a146104bf578063a217fddf146104db578063a22cb465146104f957610206565b8063785b55f81461042b5780638a8deed71461044957806391d148541461046757806395d89b411461049757610206565b80632f2ff15d1161019d57806342842e0e1161016c57806342842e0e14610377578063490ed5d3146103935780636352211e146103af5780636db92666146103df57806370a08231146103fb57610206565b80632f2ff15d1461031757806336568abe146103335780633b129a561461034f5780633e3e0b121461036d57610206565b806317147064116101d957806317147064146102a55780631ec6b60a146102c157806323b872dd146102cb578063248a9ca3146102e757610206565b806301ffc9a71461020b57806306fdde031461023b578063081812fc14610259578063095ea7b314610289575b600080fd5b61022560048036038101906102209190612aa0565b61063d565b6040516102329190612ae8565b60405180910390f35b61024361064f565b6040516102509190612b9c565b60405180910390f35b610273600480360381019061026e9190612bf4565b6106e1565b6040516102809190612c62565b60405180910390f35b6102a3600480360381019061029e9190612ca9565b610766565b005b6102bf60048036038101906102ba9190612d4e565b61087d565b005b6102c9610925565b005b6102e560048036038101906102e09190612d9b565b610975565b005b61030160048036038101906102fc9190612e24565b6109d5565b60405161030e9190612e60565b60405180910390f35b610331600480360381019061032c9190612e7b565b6109f5565b005b61034d60048036038101906103489190612e7b565b610a1e565b005b610357610aa1565b6040516103649190612e60565b60405180910390f35b610375610ac5565b005b610391600480360381019061038c9190612d9b565b610b15565b005b6103ad60048036038101906103a89190612d4e565b610b35565b005b6103c960048036038101906103c49190612bf4565b610bdd565b6040516103d69190612c62565b60405180910390f35b6103f960048036038101906103f49190612bf4565b610c8e565b005b61041560048036038101906104109190612ebb565b610cfd565b6040516104229190612ef7565b60405180910390f35b610433610db4565b6040516104409190612e60565b60405180910390f35b610451610dd8565b60405161045e9190612f71565b60405180910390f35b610481600480360381019061047c9190612e7b565b610dfe565b60405161048e9190612ae8565b60405180910390f35b61049f610e69565b6040516104ac9190612b9c565b60405180910390f35b6104bd610efb565b005b6104d960048036038101906104d49190612d4e565b610f4b565b005b6104e3610ff3565b6040516104f09190612e60565b60405180910390f35b610513600480360381019061050e9190612fb8565b610ffa565b005b61051d611010565b60405161052a9190612e60565b60405180910390f35b61054d60048036038101906105489190613128565b611034565b005b6105696004803603810190610564919061326e565b611096565b6040516105769190612ef7565b60405180910390f35b61059960048036038101906105949190613340565b611226565b005b6105b560048036038101906105b09190612bf4565b61134e565b6040516105c29190612b9c565b60405180910390f35b6105e560048036038101906105e09190612e7b565b611360565b005b61060160048036038101906105fc9190612d4e565b611389565b005b61061d600480360381019061061891906133ce565b611431565b60405161062a9190612ae8565b60405180910390f35b61063b6114c5565b005b60006106488261152b565b9050919050565b60606000805461065e9061343d565b80601f016020809104026020016040519081016040528092919081815260200182805461068a9061343d565b80156106d75780601f106106ac576101008083540402835291602001916106d7565b820191906000526020600020905b8154815290600101906020018083116106ba57829003601f168201915b5050505050905090565b60006106ec826115a5565b61072b576040517f08c379a0000000000000000000000000000000000000000000000000000000008152600401610722906134e0565b60405180910390fd5b6004600083815260200190815260200160002060009054906101000a900473ffffffffffffffffffffffffffffffffffffffff169050919050565b600061077182610bdd565b90508073ffffffffffffffffffffffffffffffffffffffff168373ffffffffffffffffffffffffffffffffffffffff16036107e1576040517f08c379a00000000000000000000000000000000000000000000000000000000081526004016107d890613572565b60405180910390fd5b8073ffffffffffffffffffffffffffffffffffffffff16610800611611565b73ffffffffffffffffffffffffffffffffffffffff16148061082f575061082e81610829611611565b611431565b5b61086e576040517f08c379a000000000000000000000000000000000000000000000000000000000815260040161086590613604565b60405180910390fd5b6108788383611619565b505050565b7f4636e38b5d73cef5ec0bdf8ec3e0565138a2bfe53888f9e988b51165659d842e6108af816108aa611611565b6116d2565b60005b8383905081101561091f5761090e7fc10c77be35aff266144ed64c26a1fa104bae2f284ae99ac4a34203454704a1858585848181106108f4576108f3613624565b5b90506020020160208101906109099190612ebb565b6109f5565b8061091890613682565b90506108b2565b50505050565b7fb9fb535eeef00914f0e629be8b6c1550a75e7adca17b4a272f7798bb710f250561095781610952611611565b6116d2565b6001600a60016101000a81548160ff02191690831515021790555050565b610986610980611611565b8261176f565b6109c5576040517f08c379a00000000000000000000000000000000000000000000000000000000081526004016109bc9061373c565b60405180910390fd5b6109d083838361184d565b505050565b600060076000838152602001908152602001600020600101549050919050565b6109fe826109d5565b610a0f81610a0a611611565b6116d2565b610a198383611aa8565b505050565b610a26611611565b73ffffffffffffffffffffffffffffffffffffffff168173ffffffffffffffffffffffffffffffffffffffff1614610a93576040517f08c379a0000000000000000000000000000000000000000000000000000000008152600401610a8a906137ce565b60405180910390fd5b610a9d8282611b89565b5050565b7fc10c77be35aff266144ed64c26a1fa104bae2f284ae99ac4a34203454704a18581565b7fb9fb535eeef00914f0e629be8b6c1550a75e7adca17b4a272f7798bb710f2505610af781610af2611611565b6116d2565b6000600a60006101000a81548160ff02191690831515021790555050565b610b3083838360405180602001604052806000815250611034565b505050565b7f4636e38b5d73cef5ec0bdf8ec3e0565138a2bfe53888f9e988b51165659d842e610b6781610b62611611565b6116d2565b60005b83839050811015610bd757610bc67fb9fb535eeef00914f0e629be8b6c1550a75e7adca17b4a272f7798bb710f2505858584818110610bac57610bab613624565b5b9050602002016020810190610bc19190612ebb565b611360565b80610bd090613682565b9050610b6a565b50505050565b6000806002600084815260200190815260200160002060009054906101000a900473ffffffffffffffffffffffffffffffffffffffff169050600073ffffffffffffffffffffffffffffffffffffffff168173ffffffffffffffffffffffffffffffffffffffff1603610c85576040517f08c379a0000000000000000000000000000000000000000000000000000000008152600401610c7c90613860565b60405180910390fd5b80915050919050565b7fc10c77be35aff266144ed64c26a1fa104bae2f284ae99ac4a34203454704a185610cc081610cbb611611565b6116d2565b7fb8c6b548b208fa5670169d9ffdd92678964b6298204949dc37fc1a882f8ae28b8233604051610cf1929190613880565b60405180910390a15050565b60008073ffffffffffffffffffffffffffffffffffffffff168273ffffffffffffffffffffffffffffffffffffffff1603610d6d576040517f08c379a0000000000000000000000000000000000000000000000000000000008152600401610d649061391b565b60405180910390fd5b600360008373ffffffffffffffffffffffffffffffffffffffff1673ffffffffffffffffffffffffffffffffffffffff168152602001908152602001600020549050919050565b7f4636e38b5d73cef5ec0bdf8ec3e0565138a2bfe53888f9e988b51165659d842e81565b600860009054906101000a900473ffffffffffffffffffffffffffffffffffffffff1681565b60006007600084815260200190815260200160002060000160008373ffffffffffffffffffffffffffffffffffffffff1673ffffffffffffffffffffffffffffffffffffffff16815260200190815260200160002060009054906101000a900460ff16905092915050565b606060018054610e789061343d565b80601f0160208091040260200160405190810160405280929190818152602001828054610ea49061343d565b8015610ef15780601f10610ec657610100808354040283529160200191610ef1565b820191906000526020600020905b815481529060010190602001808311610ed457829003601f168201915b5050505050905090565b7fb9fb535eeef00914f0e629be8b6c1550a75e7adca17b4a272f7798bb710f2505610f2d81610f28611611565b6116d2565b6001600a60006101000a81548160ff02191690831515021790555050565b7f4636e38b5d73cef5ec0bdf8ec3e0565138a2bfe53888f9e988b51165659d842e610f7d81610f78611611565b6116d2565b60005b83839050811015610fed57610fdc7fb9fb535eeef00914f0e629be8b6c1550a75e7adca17b4a272f7798bb710f2505858584818110610fc257610fc1613624565b5b9050602002016020810190610fd79190612ebb565b6109f5565b80610fe690613682565b9050610f80565b50505050565b6000801b81565b61100c611005611611565b8383611c6b565b5050565b7fb9fb535eeef00914f0e629be8b6c1550a75e7adca17b4a272f7798bb710f250581565b61104561103f611611565b8361176f565b611084576040517f08c379a000000000000000000000000000000000000000000000000000000000815260040161107b9061373c565b60405180910390fd5b61109084848484611dd7565b50505050565b60007f4636e38b5d73cef5ec0bdf8ec3e0565138a2bfe53888f9e988b51165659d842e6110ca816110c5611611565b6116d2565b60006110d66009611e33565b9050600a60009054906101000a900460ff16611127576040517f08c379a000000000000000000000000000000000000000000000000000000000815260040161111e90613987565b60405180910390fd5b600860009054906101000a900473ffffffffffffffffffffffffffffffffffffffff1673ffffffffffffffffffffffffffffffffffffffff16638b69310a8a8a8a8a8a8a6040518763ffffffff1660e01b815260040161118c969594939291906139b8565b600060405180830381600087803b1580156111a657600080fd5b505af11580156111ba573d6000803e3d6000fd5b505050506111c86009611515565b6111d28b82611e41565b6111dc818b611e5f565b7fca8605e5b2854022d4ef7e920a48b0c49ca69a8453970d922c3dd8b93057fa67818b60405161120d929190613a1a565b60405180910390a1809250505098975050505050505050565b600a60019054906101000a900460ff16611275576040517f08c379a000000000000000000000000000000000000000000000000000000000815260040161126c90613a96565b60405180910390fd5b600860009054906101000a900473ffffffffffffffffffffffffffffffffffffffff1673ffffffffffffffffffffffffffffffffffffffff16638b69310a868686866201c19d876040518763ffffffff1660e01b81526004016112dd969594939291906139b8565b600060405180830381600087803b1580156112f757600080fd5b505af115801561130b573d6000803e3d6000fd5b505050507fca4f4e617a82c74ac41214e7eeb397d2d16ca7807cc366995e9e52dc2b7a444d8660405161133e9190612ef7565b60405180910390a1505050505050565b606061135982611ed3565b9050919050565b611369826109d5565b61137a81611375611611565b6116d2565b6113848383611b89565b505050565b7f4636e38b5d73cef5ec0bdf8ec3e0565138a2bfe53888f9e988b51165659d842e6113bb816113b6611611565b6116d2565b60005b8383905081101561142b5761141a7fc10c77be35aff266144ed64c26a1fa104bae2f284ae99ac4a34203454704a185858584818110611400576113ff613624565b5b90506020020160208101906114159190612ebb565b611360565b8061142490613682565b90506113be565b50505050565b6000600560008473ffffffffffffffffffffffffffffffffffffffff1673ffffffffffffffffffffffffffffffffffffffff16815260200190815260200160002060008373ffffffffffffffffffffffffffffffffffffffff1673ffffffffffffffffffffffffffffffffffffffff16815260200190815260200160002060009054906101000a900460ff16905092915050565b7fb9fb535eeef00914f0e629be8b6c1550a75e7adca17b4a272f7798bb710f25056114f7816114f2611611565b6116d2565b6000600a60016101000a81548160ff02191690831515021790555050565b6001816000016000828254019250508190555050565b60007f7965db0b000000000000000000000000000000000000000000000000000000007bffffffffffffffffffffffffffffffffffffffffffffffffffffffff1916827bffffffffffffffffffffffffffffffffffffffffffffffffffffffff1916148061159e575061159d82612024565b5b9050919050565b60008073ffffffffffffffffffffffffffffffffffffffff166002600084815260200190815260200160002060009054906101000a900473ffffffffffffffffffffffffffffffffffffffff1673ffffffffffffffffffffffffffffffffffffffff1614159050919050565b600033905090565b816004600083815260200190815260200160002060006101000a81548173ffffffffffffffffffffffffffffffffffffffff021916908373ffffffffffffffffffffffffffffffffffffffff160217905550808273ffffffffffffffffffffffffffffffffffffffff1661168c83610bdd565b73ffffffffffffffffffffffffffffffffffffffff167f8c5be1e5ebec7d5bd14f71427d1e84f3dd0314c0f7b2291e5b200ac8c7c3b92560405160405180910390a45050565b6116dc8282610dfe565b61176b576117018173ffffffffffffffffffffffffffffffffffffffff166014612106565b61170f8360001c6020612106565b604051602001611720929190613b8a565b6040516020818303038152906040526040517f08c379a00000000000000000000000000000000000000000000000000000000081526004016117629190612b9c565b60405180910390fd5b5050565b600061177a826115a5565b6117b9576040517f08c379a00000000000000000000000000000000000000000000000000000000081526004016117b090613c36565b60405180910390fd5b60006117c483610bdd565b90508073ffffffffffffffffffffffffffffffffffffffff168473ffffffffffffffffffffffffffffffffffffffff16148061183357508373ffffffffffffffffffffffffffffffffffffffff1661181b846106e1565b73ffffffffffffffffffffffffffffffffffffffff16145b8061184457506118438185611431565b5b91505092915050565b8273ffffffffffffffffffffffffffffffffffffffff1661186d82610bdd565b73ffffffffffffffffffffffffffffffffffffffff16146118c3576040517f08c379a00000000000000000000000000000000000000000000000000000000081526004016118ba90613cc8565b60405180910390fd5b600073ffffffffffffffffffffffffffffffffffffffff168273ffffffffffffffffffffffffffffffffffffffff1603611932576040517f08c379a000000000000000000000000000000000000000000000000000000000815260040161192990613d5a565b60405180910390fd5b61193d838383612342565b611948600082611619565b6001600360008573ffffffffffffffffffffffffffffffffffffffff1673ffffffffffffffffffffffffffffffffffffffff16815260200190815260200160002060008282546119989190613d7a565b925050819055506001600360008473ffffffffffffffffffffffffffffffffffffffff1673ffffffffffffffffffffffffffffffffffffffff16815260200190815260200160002060008282546119ef9190613dae565b92505081905550816002600083815260200190815260200160002060006101000a81548173ffffffffffffffffffffffffffffffffffffffff021916908373ffffffffffffffffffffffffffffffffffffffff160217905550808273ffffffffffffffffffffffffffffffffffffffff168473ffffffffffffffffffffffffffffffffffffffff167fddf252ad1be2c89b69c2b068fc378daa952ba7f163c4a11628f55a4df523b3ef60405160405180910390a4505050565b611ab28282610dfe565b611b855760016007600084815260200190815260200160002060000160008373ffffffffffffffffffffffffffffffffffffffff1673ffffffffffffffffffffffffffffffffffffffff16815260200190815260200160002060006101000a81548160ff021916908315150217905550611b2a611611565b73ffffffffffffffffffffffffffffffffffffffff168173ffffffffffffffffffffffffffffffffffffffff16837f2f8788117e7eff1d82e926ec794901d17c78024a50270940304540a733656f0d60405160405180910390a45b5050565b611b938282610dfe565b15611c675760006007600084815260200190815260200160002060000160008373ffffffffffffffffffffffffffffffffffffffff1673ffffffffffffffffffffffffffffffffffffffff16815260200190815260200160002060006101000a81548160ff021916908315150217905550611c0c611611565b73ffffffffffffffffffffffffffffffffffffffff168173ffffffffffffffffffffffffffffffffffffffff16837ff6391f5c32d9c69d2a47ea670b442974b53935d1edc7fd64eb21e047a839171b60405160405180910390a45b5050565b8173ffffffffffffffffffffffffffffffffffffffff168373ffffffffffffffffffffffffffffffffffffffff1603611cd9576040517f08c379a0000000000000000000000000000000000000000000000000000000008152600401611cd090613e50565b60405180910390fd5b80600560008573ffffffffffffffffffffffffffffffffffffffff1673ffffffffffffffffffffffffffffffffffffffff16815260200190815260200160002060008473ffffffffffffffffffffffffffffffffffffffff1673ffffffffffffffffffffffffffffffffffffffff16815260200190815260200160002060006101000a81548160ff0219169083151502179055508173ffffffffffffffffffffffffffffffffffffffff168373ffffffffffffffffffffffffffffffffffffffff167f17307eab39ab6107e8899845ad3d59bd9653f200f220920489ca2b5937696c3183604051611dca9190612ae8565b60405180910390a3505050565b611de284848461184d565b611dee84848484612347565b611e2d576040517f08c379a0000000000000000000000000000000000000000000000000000000008152600401611e2490613ee2565b60405180910390fd5b50505050565b600081600001549050919050565b611e5b8282604051806020016040528060008152506124ce565b5050565b611e68826115a5565b611ea7576040517f08c379a0000000000000000000000000000000000000000000000000000000008152600401611e9e90613f74565b60405180910390fd5b80600660008481526020019081526020016000209080519060200190611ece929190612991565b505050565b6060611ede826115a5565b611f1d576040517f08c379a0000000000000000000000000000000000000000000000000000000008152600401611f1490614006565b60405180910390fd5b6000600660008481526020019081526020016000208054611f3d9061343d565b80601f0160208091040260200160405190810160405280929190818152602001828054611f699061343d565b8015611fb65780601f10611f8b57610100808354040283529160200191611fb6565b820191906000526020600020905b815481529060010190602001808311611f9957829003601f168201915b505050505090506000611fc7612529565b90506000815103611fdc57819250505061201f565b600082511115612011578082604051602001611ff9929190614026565b6040516020818303038152906040529250505061201f565b61201a84612540565b925050505b919050565b60007f80ac58cd000000000000000000000000000000000000000000000000000000007bffffffffffffffffffffffffffffffffffffffffffffffffffffffff1916827bffffffffffffffffffffffffffffffffffffffffffffffffffffffff191614806120ef57507f5b5e139f000000000000000000000000000000000000000000000000000000007bffffffffffffffffffffffffffffffffffffffffffffffffffffffff1916827bffffffffffffffffffffffffffffffffffffffffffffffffffffffff1916145b806120ff57506120fe826125e7565b5b9050919050565b606060006002836002612119919061404a565b6121239190613dae565b67ffffffffffffffff81111561213c5761213b612ffd565b5b6040519080825280601f01601f19166020018201604052801561216e5781602001600182028036833780820191505090505b5090507f3000000000000000000000000000000000000000000000000000000000000000816000815181106121a6576121a5613624565b5b60200101907effffffffffffffffffffffffffffffffffffffffffffffffffffffffffffff1916908160001a9053507f78000000000000000000000000000000000000000000000000000000000000008160018151811061220a57612209613624565b5b60200101907effffffffffffffffffffffffffffffffffffffffffffffffffffffffffffff1916908160001a9053506000600184600261224a919061404a565b6122549190613dae565b90505b60018111156122f4577f3031323334353637383961626364656600000000000000000000000000000000600f86166010811061229657612295613624565b5b1a60f81b8282815181106122ad576122ac613624565b5b60200101907effffffffffffffffffffffffffffffffffffffffffffffffffffffffffffff1916908160001a905350600485901c9450806122ed906140a4565b9050612257565b5060008414612338576040517f08c379a000000000000000000000000000000000000000000000000000000000815260040161232f90614119565b60405180910390fd5b8091505092915050565b505050565b60006123688473ffffffffffffffffffffffffffffffffffffffff16612651565b156124c1578373ffffffffffffffffffffffffffffffffffffffff1663150b7a02612391611611565b8786866040518563ffffffff1660e01b81526004016123b3949392919061418e565b6020604051808303816000875af19250505080156123ef57506040513d601f19601f820116820180604052508101906123ec91906141ef565b60015b612471573d806000811461241f576040519150601f19603f3d011682016040523d82523d6000602084013e612424565b606091505b506000815103612469576040517f08c379a000000000000000000000000000000000000000000000000000000000815260040161246090613ee2565b60405180910390fd5b805181602001fd5b63150b7a0260e01b7bffffffffffffffffffffffffffffffffffffffffffffffffffffffff1916817bffffffffffffffffffffffffffffffffffffffffffffffffffffffff1916149150506124c6565b600190505b949350505050565b6124d88383612664565b6124e56000848484612347565b612524576040517f08c379a000000000000000000000000000000000000000000000000000000000815260040161251b90613ee2565b60405180910390fd5b505050565b606060405180602001604052806000815250905090565b606061254b826115a5565b61258a576040517f08c379a00000000000000000000000000000000000000000000000000000000081526004016125819061428e565b60405180910390fd5b6000612594612529565b905060008151116125b457604051806020016040528060008152506125df565b806125be84612831565b6040516020016125cf929190614026565b6040516020818303038152906040525b915050919050565b60007f01ffc9a7000000000000000000000000000000000000000000000000000000007bffffffffffffffffffffffffffffffffffffffffffffffffffffffff1916827bffffffffffffffffffffffffffffffffffffffffffffffffffffffff1916149050919050565b600080823b905060008111915050919050565b600073ffffffffffffffffffffffffffffffffffffffff168273ffffffffffffffffffffffffffffffffffffffff16036126d3576040517f08c379a00000000000000000000000000000000000000000000000000000000081526004016126ca906142fa565b60405180910390fd5b6126dc816115a5565b1561271c576040517f08c379a000000000000000000000000000000000000000000000000000000000815260040161271390614366565b60405180910390fd5b61272860008383612342565b6001600360008473ffffffffffffffffffffffffffffffffffffffff1673ffffffffffffffffffffffffffffffffffffffff16815260200190815260200160002060008282546127789190613dae565b92505081905550816002600083815260200190815260200160002060006101000a81548173ffffffffffffffffffffffffffffffffffffffff021916908373ffffffffffffffffffffffffffffffffffffffff160217905550808273ffffffffffffffffffffffffffffffffffffffff16600073ffffffffffffffffffffffffffffffffffffffff167fddf252ad1be2c89b69c2b068fc378daa952ba7f163c4a11628f55a4df523b3ef60405160405180910390a45050565b606060008203612878576040518060400160405280600181526020017f3000000000000000000000000000000000000000000000000000000000000000815250905061298c565b600082905060005b600082146128aa57808061289390613682565b915050600a826128a391906143b5565b9150612880565b60008167ffffffffffffffff8111156128c6576128c5612ffd565b5b6040519080825280601f01601f1916602001820160405280156128f85781602001600182028036833780820191505090505b5090505b60008514612985576001826129119190613d7a565b9150600a8561292091906143e6565b603061292c9190613dae565b60f81b81838151811061294257612941613624565b5b60200101907effffffffffffffffffffffffffffffffffffffffffffffffffffffffffffff1916908160001a905350600a8561297e91906143b5565b94506128fc565b8093505050505b919050565b82805461299d9061343d565b90600052602060002090601f0160209004810192826129bf5760008555612a06565b82601f106129d857805160ff1916838001178555612a06565b82800160010185558215612a06579182015b82811115612a055782518255916020019190600101906129ea565b5b509050612a139190612a17565b5090565b5b80821115612a30576000816000905550600101612a18565b5090565b6000604051905090565b600080fd5b600080fd5b60007fffffffff0000000000000000000000000000000000000000000000000000000082169050919050565b612a7d81612a48565b8114612a8857600080fd5b50565b600081359050612a9a81612a74565b92915050565b600060208284031215612ab657612ab5612a3e565b5b6000612ac484828501612a8b565b91505092915050565b60008115159050919050565b612ae281612acd565b82525050565b6000602082019050612afd6000830184612ad9565b92915050565b600081519050919050565b600082825260208201905092915050565b60005b83811015612b3d578082015181840152602081019050612b22565b83811115612b4c576000848401525b50505050565b6000601f19601f8301169050919050565b6000612b6e82612b03565b612b788185612b0e565b9350612b88818560208601612b1f565b612b9181612b52565b840191505092915050565b60006020820190508181036000830152612bb68184612b63565b905092915050565b6000819050919050565b612bd181612bbe565b8114612bdc57600080fd5b50565b600081359050612bee81612bc8565b92915050565b600060208284031215612c0a57612c09612a3e565b5b6000612c1884828501612bdf565b91505092915050565b600073ffffffffffffffffffffffffffffffffffffffff82169050919050565b6000612c4c82612c21565b9050919050565b612c5c81612c41565b82525050565b6000602082019050612c776000830184612c53565b92915050565b612c8681612c41565b8114612c9157600080fd5b50565b600081359050612ca381612c7d565b92915050565b60008060408385031215612cc057612cbf612a3e565b5b6000612cce85828601612c94565b9250506020612cdf85828601612bdf565b9150509250929050565b600080fd5b600080fd5b600080fd5b60008083601f840112612d0e57612d0d612ce9565b5b8235905067ffffffffffffffff811115612d2b57612d2a612cee565b5b602083019150836020820283011115612d4757612d46612cf3565b5b9250929050565b60008060208385031215612d6557612d64612a3e565b5b600083013567ffffffffffffffff811115612d8357612d82612a43565b5b612d8f85828601612cf8565b92509250509250929050565b600080600060608486031215612db457612db3612a3e565b5b6000612dc286828701612c94565b9350506020612dd386828701612c94565b9250506040612de486828701612bdf565b9150509250925092565b6000819050919050565b612e0181612dee565b8114612e0c57600080fd5b50565b600081359050612e1e81612df8565b92915050565b600060208284031215612e3a57612e39612a3e565b5b6000612e4884828501612e0f565b91505092915050565b612e5a81612dee565b82525050565b6000602082019050612e756000830184612e51565b92915050565b60008060408385031215612e9257612e91612a3e565b5b6000612ea085828601612e0f565b9250506020612eb185828601612c94565b9150509250929050565b600060208284031215612ed157612ed0612a3e565b5b6000612edf84828501612c94565b91505092915050565b612ef181612bbe565b82525050565b6000602082019050612f0c6000830184612ee8565b92915050565b6000819050919050565b6000612f37612f32612f2d84612c21565b612f12565b612c21565b9050919050565b6000612f4982612f1c565b9050919050565b6000612f5b82612f3e565b9050919050565b612f6b81612f50565b82525050565b6000602082019050612f866000830184612f62565b92915050565b612f9581612acd565b8114612fa057600080fd5b50565b600081359050612fb281612f8c565b92915050565b60008060408385031215612fcf57612fce612a3e565b5b6000612fdd85828601612c94565b9250506020612fee85828601612fa3565b9150509250929050565b600080fd5b7f4e487b7100000000000000000000000000000000000000000000000000000000600052604160045260246000fd5b61303582612b52565b810181811067ffffffffffffffff8211171561305457613053612ffd565b5b80604052505050565b6000613067612a34565b9050613073828261302c565b919050565b600067ffffffffffffffff82111561309357613092612ffd565b5b61309c82612b52565b9050602081019050919050565b82818337600083830152505050565b60006130cb6130c684613078565b61305d565b9050828152602081018484840111156130e7576130e6612ff8565b5b6130f28482856130a9565b509392505050565b600082601f83011261310f5761310e612ce9565b5b813561311f8482602086016130b8565b91505092915050565b6000806000806080858703121561314257613141612a3e565b5b600061315087828801612c94565b945050602061316187828801612c94565b935050604061317287828801612bdf565b925050606085013567ffffffffffffffff81111561319357613192612a43565b5b61319f878288016130fa565b91505092959194509250565b600067ffffffffffffffff8211156131c6576131c5612ffd565b5b6131cf82612b52565b9050602081019050919050565b60006131ef6131ea846131ab565b61305d565b90508281526020810184848401111561320b5761320a612ff8565b5b6132168482856130a9565b509392505050565b600082601f83011261323357613232612ce9565b5b81356132438482602086016131dc565b91505092915050565b60008190508260206008028201111561326857613267612cf3565b5b92915050565b6000806000806000806000806101e0898b03121561328f5761328e612a3e565b5b600061329d8b828c01612c94565b985050602089013567ffffffffffffffff8111156132be576132bd612a43565b5b6132ca8b828c0161321e565b97505060406132db8b828c01612bdf565b96505060606132ec8b828c01612bdf565b95505060806132fd8b828c01612e0f565b94505060a061330e8b828c01612bdf565b93505060c061331f8b828c01612bdf565b92505060e06133308b828c0161324c565b9150509295985092959890939650565b6000806000806000806101a0878903121561335e5761335d612a3e565b5b600061336c89828a01612bdf565b965050602061337d89828a01612bdf565b955050604061338e89828a01612bdf565b945050606061339f89828a01612e0f565b93505060806133b089828a01612bdf565b92505060a06133c189828a0161324c565b9150509295509295509295565b600080604083850312156133e5576133e4612a3e565b5b60006133f385828601612c94565b925050602061340485828601612c94565b9150509250929050565b7f4e487b7100000000000000000000000000000000000000000000000000000000600052602260045260246000fd5b6000600282049050600182168061345557607f821691505b6020821081036134685761346761340e565b5b50919050565b7f4552433732313a20617070726f76656420717565727920666f72206e6f6e657860008201527f697374656e7420746f6b656e0000000000000000000000000000000000000000602082015250565b60006134ca602c83612b0e565b91506134d58261346e565b604082019050919050565b600060208201905081810360008301526134f9816134bd565b9050919050565b7f4552433732313a20617070726f76616c20746f2063757272656e74206f776e6560008201527f7200000000000000000000000000000000000000000000000000000000000000602082015250565b600061355c602183612b0e565b915061356782613500565b604082019050919050565b6000602082019050818103600083015261358b8161354f565b9050919050565b7f4552433732313a20617070726f76652063616c6c6572206973206e6f74206f7760008201527f6e6572206e6f7220617070726f76656420666f7220616c6c0000000000000000602082015250565b60006135ee603883612b0e565b91506135f982613592565b604082019050919050565b6000602082019050818103600083015261361d816135e1565b9050919050565b7f4e487b7100000000000000000000000000000000000000000000000000000000600052603260045260246000fd5b7f4e487b7100000000000000000000000000000000000000000000000000000000600052601160045260246000fd5b600061368d82612bbe565b91507fffffffffffffffffffffffffffffffffffffffffffffffffffffffffffffffff82036136bf576136be613653565b5b600182019050919050565b7f4552433732313a207472616e736665722063616c6c6572206973206e6f74206f60008201527f776e6572206e6f7220617070726f766564000000000000000000000000000000602082015250565b6000613726603183612b0e565b9150613731826136ca565b604082019050919050565b6000602082019050818103600083015261375581613719565b9050919050565b7f416363657373436f6e74726f6c3a2063616e206f6e6c792072656e6f756e636560008201527f20726f6c657320666f722073656c660000000000000000000000000000000000602082015250565b60006137b8602f83612b0e565b91506137c38261375c565b604082019050919050565b600060208201905081810360008301526137e7816137ab565b9050919050565b7f4552433732313a206f776e657220717565727920666f72206e6f6e657869737460008201527f656e7420746f6b656e0000000000000000000000000000000000000000000000602082015250565b600061384a602983612b0e565b9150613855826137ee565b604082019050919050565b600060208201905081810360008301526138798161383d565b9050919050565b60006040820190506138956000830185612ee8565b6138a26020830184612c53565b9392505050565b7f4552433732313a2062616c616e636520717565727920666f7220746865207a6560008201527f726f206164647265737300000000000000000000000000000000000000000000602082015250565b6000613905602a83612b0e565b9150613910826138a9565b604082019050919050565b60006020820190508181036000830152613934816138f8565b9050919050565b7f4d696e74696e67206e6f74206163746976650000000000000000000000000000600082015250565b6000613971601283612b0e565b915061397c8261393b565b602082019050919050565b600060208201905081810360008301526139a081613964565b9050919050565b6139b461010083836130a9565b5050565b60006101a0820190506139ce6000830189612ee8565b6139db6020830188612ee8565b6139e86040830187612e51565b6139f56060830186612ee8565b613a026080830185612ee8565b613a0f60a08301846139a7565b979650505050505050565b6000604082019050613a2f6000830185612ee8565b8181036020830152613a418184612b63565b90509392505050565b7f566f74696e67206e6f7420616374697665000000000000000000000000000000600082015250565b6000613a80601183612b0e565b9150613a8b82613a4a565b602082019050919050565b60006020820190508181036000830152613aaf81613a73565b9050919050565b600081905092915050565b7f416363657373436f6e74726f6c3a206163636f756e7420000000000000000000600082015250565b6000613af7601783613ab6565b9150613b0282613ac1565b601782019050919050565b6000613b1882612b03565b613b228185613ab6565b9350613b32818560208601612b1f565b80840191505092915050565b7f206973206d697373696e6720726f6c6520000000000000000000000000000000600082015250565b6000613b74601183613ab6565b9150613b7f82613b3e565b601182019050919050565b6000613b9582613aea565b9150613ba18285613b0d565b9150613bac82613b67565b9150613bb88284613b0d565b91508190509392505050565b7f4552433732313a206f70657261746f7220717565727920666f72206e6f6e657860008201527f697374656e7420746f6b656e0000000000000000000000000000000000000000602082015250565b6000613c20602c83612b0e565b9150613c2b82613bc4565b604082019050919050565b60006020820190508181036000830152613c4f81613c13565b9050919050565b7f4552433732313a207472616e73666572206f6620746f6b656e2074686174206960008201527f73206e6f74206f776e0000000000000000000000000000000000000000000000602082015250565b6000613cb2602983612b0e565b9150613cbd82613c56565b604082019050919050565b60006020820190508181036000830152613ce181613ca5565b9050919050565b7f4552433732313a207472616e7366657220746f20746865207a65726f2061646460008201527f7265737300000000000000000000000000000000000000000000000000000000602082015250565b6000613d44602483612b0e565b9150613d4f82613ce8565b604082019050919050565b60006020820190508181036000830152613d7381613d37565b9050919050565b6000613d8582612bbe565b9150613d9083612bbe565b925082821015613da357613da2613653565b5b828203905092915050565b6000613db982612bbe565b9150613dc483612bbe565b9250827fffffffffffffffffffffffffffffffffffffffffffffffffffffffffffffffff03821115613df957613df8613653565b5b828201905092915050565b7f4552433732313a20617070726f766520746f2063616c6c657200000000000000600082015250565b6000613e3a601983612b0e565b9150613e4582613e04565b602082019050919050565b60006020820190508181036000830152613e6981613e2d565b9050919050565b7f4552433732313a207472616e7366657220746f206e6f6e20455243373231526560008201527f63656976657220696d706c656d656e7465720000000000000000000000000000602082015250565b6000613ecc603283612b0e565b9150613ed782613e70565b604082019050919050565b60006020820190508181036000830152613efb81613ebf565b9050919050565b7f45524337323155524953746f726167653a2055524920736574206f66206e6f6e60008201527f6578697374656e7420746f6b656e000000000000000000000000000000000000602082015250565b6000613f5e602e83612b0e565b9150613f6982613f02565b604082019050919050565b60006020820190508181036000830152613f8d81613f51565b9050919050565b7f45524337323155524953746f726167653a2055524920717565727920666f722060008201527f6e6f6e6578697374656e7420746f6b656e000000000000000000000000000000602082015250565b6000613ff0603183612b0e565b9150613ffb82613f94565b604082019050919050565b6000602082019050818103600083015261401f81613fe3565b9050919050565b60006140328285613b0d565b915061403e8284613b0d565b91508190509392505050565b600061405582612bbe565b915061406083612bbe565b9250817fffffffffffffffffffffffffffffffffffffffffffffffffffffffffffffffff048311821515161561409957614098613653565b5b828202905092915050565b60006140af82612bbe565b9150600082036140c2576140c1613653565b5b600182039050919050565b7f537472696e67733a20686578206c656e67746820696e73756666696369656e74600082015250565b6000614103602083612b0e565b915061410e826140cd565b602082019050919050565b60006020820190508181036000830152614132816140f6565b9050919050565b600081519050919050565b600082825260208201905092915050565b600061416082614139565b61416a8185614144565b935061417a818560208601612b1f565b61418381612b52565b840191505092915050565b60006080820190506141a36000830187612c53565b6141b06020830186612c53565b6141bd6040830185612ee8565b81810360608301526141cf8184614155565b905095945050505050565b6000815190506141e981612a74565b92915050565b60006020828403121561420557614204612a3e565b5b6000614213848285016141da565b91505092915050565b7f4552433732314d657461646174613a2055524920717565727920666f72206e6f60008201527f6e6578697374656e7420746f6b656e0000000000000000000000000000000000602082015250565b6000614278602f83612b0e565b91506142838261421c565b604082019050919050565b600060208201905081810360008301526142a78161426b565b9050919050565b7f4552433732313a206d696e7420746f20746865207a65726f2061646472657373600082015250565b60006142e4602083612b0e565b91506142ef826142ae565b602082019050919050565b60006020820190508181036000830152614313816142d7565b9050919050565b7f4552433732313a20746f6b656e20616c7265616479206d696e74656400000000600082015250565b6000614350601c83612b0e565b915061435b8261431a565b602082019050919050565b6000602082019050818103600083015261437f81614343565b9050919050565b7f4e487b7100000000000000000000000000000000000000000000000000000000600052601260045260246000fd5b60006143c082612bbe565b91506143cb83612bbe565b9250826143db576143da614386565b5b828204905092915050565b60006143f182612bbe565b91506143fc83612bbe565b92508261440c5761440b614386565b5b82820690509291505056fea2646970667358221220d9b78144cb5f0e665d456aed09edcd65e8173204a271ac358236a69e329d773264736f6c634300080d0033",
  "linkReferences": {},
  "deployedLinkReferences": {}
}