{
  "_format": "hh-sol-artifact-1",
  "contractName": "TazToken",
  "sourceName": "contracts/TazToken.sol",
  "abi": [
    {
      "inputs": [
        {
          "internalType": "contract ISemaphore",
          "name": "semaContractAddr",
          "type": "address"
        }
      ],
      "stateMutability": "nonpayable",
      "type": "constructor"
    },
    {
      "anonymous": false,
      "inputs": [
        {
          "indexed": true,
          "internalType": "address",
          "name": "owner",
          "type": "address"
        },
        {
          "indexed": true,
          "internalType": "address",
          "name": "approved",
          "type": "address"
        },
        {
          "indexed": true,
          "internalType": "uint256",
          "name": "tokenId",
          "type": "uint256"
        }
      ],
      "name": "Approval",
      "type": "event"
    },
    {
      "anonymous": false,
      "inputs": [
        {
          "indexed": true,
          "internalType": "address",
          "name": "owner",
          "type": "address"
        },
        {
          "indexed": true,
          "internalType": "address",
          "name": "operator",
          "type": "address"
        },
        {
          "indexed": false,
          "internalType": "bool",
          "name": "approved",
          "type": "bool"
        }
      ],
      "name": "ApprovalForAll",
      "type": "event"
    },
    {
      "anonymous": false,
      "inputs": [
        {
          "indexed": false,
          "internalType": "uint256",
          "name": "tokenId",
          "type": "uint256"
        },
        {
          "indexed": false,
          "internalType": "string",
          "name": "uri",
          "type": "string"
        }
      ],
      "name": "NewToken",
      "type": "event"
    },
    {
      "anonymous": false,
      "inputs": [
        {
          "indexed": true,
          "internalType": "address",
          "name": "previousOwner",
          "type": "address"
        },
        {
          "indexed": true,
          "internalType": "address",
          "name": "newOwner",
          "type": "address"
        }
      ],
      "name": "OwnershipTransferred",
      "type": "event"
    },
    {
      "anonymous": false,
      "inputs": [
        {
          "indexed": true,
          "internalType": "address",
          "name": "from",
          "type": "address"
        },
        {
          "indexed": true,
          "internalType": "address",
          "name": "to",
          "type": "address"
        },
        {
          "indexed": true,
          "internalType": "uint256",
          "name": "tokenId",
          "type": "uint256"
        }
      ],
      "name": "Transfer",
      "type": "event"
    },
    {
      "inputs": [
        {
          "internalType": "address",
          "name": "to",
          "type": "address"
        },
        {
          "internalType": "uint256",
          "name": "tokenId",
          "type": "uint256"
        }
      ],
      "name": "approve",
      "outputs": [],
      "stateMutability": "nonpayable",
      "type": "function"
    },
    {
      "inputs": [
        {
          "internalType": "address",
          "name": "owner",
          "type": "address"
        }
      ],
      "name": "balanceOf",
      "outputs": [
        {
          "internalType": "uint256",
          "name": "",
          "type": "uint256"
        }
      ],
      "stateMutability": "view",
      "type": "function"
    },
    {
      "inputs": [
        {
          "internalType": "uint256",
          "name": "tokenId",
          "type": "uint256"
        }
      ],
      "name": "getApproved",
      "outputs": [
        {
          "internalType": "address",
          "name": "",
          "type": "address"
        }
      ],
      "stateMutability": "view",
      "type": "function"
    },
    {
      "inputs": [
        {
          "internalType": "address",
          "name": "owner",
          "type": "address"
        },
        {
          "internalType": "address",
          "name": "operator",
          "type": "address"
        }
      ],
      "name": "isApprovedForAll",
      "outputs": [
        {
          "internalType": "bool",
          "name": "",
          "type": "bool"
        }
      ],
      "stateMutability": "view",
      "type": "function"
    },
    {
      "inputs": [],
      "name": "name",
      "outputs": [
        {
          "internalType": "string",
          "name": "",
          "type": "string"
        }
      ],
      "stateMutability": "view",
      "type": "function"
    },
    {
      "inputs": [],
      "name": "owner",
      "outputs": [
        {
          "internalType": "address",
          "name": "",
          "type": "address"
        }
      ],
      "stateMutability": "view",
      "type": "function"
    },
    {
      "inputs": [
        {
          "internalType": "uint256",
          "name": "tokenId",
          "type": "uint256"
        }
      ],
      "name": "ownerOf",
      "outputs": [
        {
          "internalType": "address",
          "name": "",
          "type": "address"
        }
      ],
      "stateMutability": "view",
      "type": "function"
    },
    {
      "inputs": [],
      "name": "renounceOwnership",
      "outputs": [],
      "stateMutability": "nonpayable",
      "type": "function"
    },
    {
      "inputs": [
        {
          "internalType": "address",
          "name": "to",
          "type": "address"
        },
        {
          "internalType": "string",
          "name": "uri",
          "type": "string"
        },
        {
          "internalType": "uint256",
          "name": "groupId",
          "type": "uint256"
        },
        {
          "internalType": "bytes32",
          "name": "signal",
          "type": "bytes32"
        },
        {
          "internalType": "uint256",
          "name": "nullifierHash",
          "type": "uint256"
        },
        {
          "internalType": "uint256",
          "name": "externalNullifier",
          "type": "uint256"
        },
        {
          "internalType": "uint256[8]",
          "name": "proof",
          "type": "uint256[8]"
        }
      ],
      "name": "safeMint",
      "outputs": [
        {
          "internalType": "uint256",
          "name": "",
          "type": "uint256"
        }
      ],
      "stateMutability": "nonpayable",
      "type": "function"
    },
    {
      "inputs": [
        {
          "internalType": "address",
          "name": "from",
          "type": "address"
        },
        {
          "internalType": "address",
          "name": "to",
          "type": "address"
        },
        {
          "internalType": "uint256",
          "name": "tokenId",
          "type": "uint256"
        }
      ],
      "name": "safeTransferFrom",
      "outputs": [],
      "stateMutability": "nonpayable",
      "type": "function"
    },
    {
      "inputs": [
        {
          "internalType": "address",
          "name": "from",
          "type": "address"
        },
        {
          "internalType": "address",
          "name": "to",
          "type": "address"
        },
        {
          "internalType": "uint256",
          "name": "tokenId",
          "type": "uint256"
        },
        {
          "internalType": "bytes",
          "name": "data",
          "type": "bytes"
        }
      ],
      "name": "safeTransferFrom",
      "outputs": [],
      "stateMutability": "nonpayable",
      "type": "function"
    },
    {
      "inputs": [],
      "name": "semaContract",
      "outputs": [
        {
          "internalType": "contract ISemaphore",
          "name": "",
          "type": "address"
        }
      ],
      "stateMutability": "view",
      "type": "function"
    },
    {
      "inputs": [
        {
          "internalType": "address",
          "name": "operator",
          "type": "address"
        },
        {
          "internalType": "bool",
          "name": "approved",
          "type": "bool"
        }
      ],
      "name": "setApprovalForAll",
      "outputs": [],
      "stateMutability": "nonpayable",
      "type": "function"
    },
    {
      "inputs": [
        {
          "internalType": "bytes4",
          "name": "interfaceId",
          "type": "bytes4"
        }
      ],
      "name": "supportsInterface",
      "outputs": [
        {
          "internalType": "bool",
          "name": "",
          "type": "bool"
        }
      ],
      "stateMutability": "view",
      "type": "function"
    },
    {
      "inputs": [],
      "name": "symbol",
      "outputs": [
        {
          "internalType": "string",
          "name": "",
          "type": "string"
        }
      ],
      "stateMutability": "view",
      "type": "function"
    },
    {
      "inputs": [
        {
          "internalType": "uint256",
          "name": "tokenId",
          "type": "uint256"
        }
      ],
      "name": "tokenURI",
      "outputs": [
        {
          "internalType": "string",
          "name": "",
          "type": "string"
        }
      ],
      "stateMutability": "view",
      "type": "function"
    },
    {
      "inputs": [
        {
          "internalType": "address",
          "name": "from",
          "type": "address"
        },
        {
          "internalType": "address",
          "name": "to",
          "type": "address"
        },
        {
          "internalType": "uint256",
          "name": "tokenId",
          "type": "uint256"
        }
      ],
      "name": "transferFrom",
      "outputs": [],
      "stateMutability": "nonpayable",
      "type": "function"
    },
    {
      "inputs": [
        {
          "internalType": "address",
          "name": "newOwner",
          "type": "address"
        }
      ],
      "name": "transferOwnership",
      "outputs": [],
      "stateMutability": "nonpayable",
      "type": "function"
    }
  ],
  "bytecode": "0x60806040523480156200001157600080fd5b506040516200336a3803806200336a83398181016040528101906200003791906200033b565b6040518060400160405280600881526020017f54617a546f6b656e0000000000000000000000000000000000000000000000008152506040518060400160405280600381526020017f54415a00000000000000000000000000000000000000000000000000000000008152508160009080519060200190620000bb9291906200020d565b508060019080519060200190620000d49291906200020d565b505050620000f7620000eb6200013f60201b60201c565b6200014760201b60201c565b80600960006101000a81548173ffffffffffffffffffffffffffffffffffffffff021916908373ffffffffffffffffffffffffffffffffffffffff16021790555050620003d1565b600033905090565b6000600760009054906101000a900473ffffffffffffffffffffffffffffffffffffffff16905081600760006101000a81548173ffffffffffffffffffffffffffffffffffffffff021916908373ffffffffffffffffffffffffffffffffffffffff1602179055508173ffffffffffffffffffffffffffffffffffffffff168173ffffffffffffffffffffffffffffffffffffffff167f8be0079c531659141344cd1fd0a4f28419497f9722a3daafe3b4186f6b6457e060405160405180910390a35050565b8280546200021b906200039c565b90600052602060002090601f0160209004810192826200023f57600085556200028b565b82601f106200025a57805160ff19168380011785556200028b565b828001600101855582156200028b579182015b828111156200028a5782518255916020019190600101906200026d565b5b5090506200029a91906200029e565b5090565b5b80821115620002b95760008160009055506001016200029f565b5090565b600080fd5b600073ffffffffffffffffffffffffffffffffffffffff82169050919050565b6000620002ef82620002c2565b9050919050565b60006200030382620002e2565b9050919050565b6200031581620002f6565b81146200032157600080fd5b50565b60008151905062000335816200030a565b92915050565b600060208284031215620003545762000353620002bd565b5b6000620003648482850162000324565b91505092915050565b7f4e487b7100000000000000000000000000000000000000000000000000000000600052602260045260246000fd5b60006002820490506001821680620003b557607f821691505b602082108103620003cb57620003ca6200036d565b5b50919050565b612f8980620003e16000396000f3fe608060405234801561001057600080fd5b50600436106101165760003560e01c8063715018a6116100a2578063a22cb46511610071578063a22cb465146102e1578063b88d4fde146102fd578063c87b56dd14610319578063e985e9c514610349578063f2fde38b1461037957610116565b8063715018a61461027d5780638a8deed7146102875780638da5cb5b146102a557806395d89b41146102c357610116565b806323b872dd116100e957806323b872dd146101b55780632ee425df146101d157806342842e0e146102015780636352211e1461021d57806370a082311461024d57610116565b806301ffc9a71461011b57806306fdde031461014b578063081812fc14610169578063095ea7b314610199575b600080fd5b61013560048036038101906101309190611c7f565b610395565b6040516101429190611cc7565b60405180910390f35b610153610477565b6040516101609190611d7b565b60405180910390f35b610183600480360381019061017e9190611dd3565b610509565b6040516101909190611e41565b60405180910390f35b6101b360048036038101906101ae9190611e88565b61054f565b005b6101cf60048036038101906101ca9190611ec8565b610666565b005b6101eb60048036038101906101e691906120ad565b6106c6565b6040516101f8919061217b565b60405180910390f35b61021b60048036038101906102169190611ec8565b6107d9565b005b61023760048036038101906102329190611dd3565b6107f9565b6040516102449190611e41565b60405180910390f35b61026760048036038101906102629190612196565b6108aa565b604051610274919061217b565b60405180910390f35b610285610961565b005b61028f610975565b60405161029c9190612222565b60405180910390f35b6102ad61099b565b6040516102ba9190611e41565b60405180910390f35b6102cb6109c5565b6040516102d89190611d7b565b60405180910390f35b6102fb60048036038101906102f69190612269565b610a57565b005b6103176004803603810190610312919061234a565b610a6d565b005b610333600480360381019061032e9190611dd3565b610acf565b6040516103409190611d7b565b60405180910390f35b610363600480360381019061035e91906123cd565b610ae1565b6040516103709190611cc7565b60405180910390f35b610393600480360381019061038e9190612196565b610b75565b005b60007f80ac58cd000000000000000000000000000000000000000000000000000000007bffffffffffffffffffffffffffffffffffffffffffffffffffffffff1916827bffffffffffffffffffffffffffffffffffffffffffffffffffffffff1916148061046057507f5b5e139f000000000000000000000000000000000000000000000000000000007bffffffffffffffffffffffffffffffffffffffffffffffffffffffff1916827bffffffffffffffffffffffffffffffffffffffffffffffffffffffff1916145b80610470575061046f82610bf8565b5b9050919050565b6060600080546104869061243c565b80601f01602080910402602001604051908101604052809291908181526020018280546104b29061243c565b80156104ff5780601f106104d4576101008083540402835291602001916104ff565b820191906000526020600020905b8154815290600101906020018083116104e257829003601f168201915b5050505050905090565b600061051482610c62565b6004600083815260200190815260200160002060009054906101000a900473ffffffffffffffffffffffffffffffffffffffff169050919050565b600061055a826107f9565b90508073ffffffffffffffffffffffffffffffffffffffff168373ffffffffffffffffffffffffffffffffffffffff16036105ca576040517f08c379a00000000000000000000000000000000000000000000000000000000081526004016105c1906124df565b60405180910390fd5b8073ffffffffffffffffffffffffffffffffffffffff166105e9610cad565b73ffffffffffffffffffffffffffffffffffffffff161480610618575061061781610612610cad565b610ae1565b5b610657576040517f08c379a000000000000000000000000000000000000000000000000000000000815260040161064e90612571565b60405180910390fd5b6106618383610cb5565b505050565b610677610671610cad565b82610d6e565b6106b6576040517f08c379a00000000000000000000000000000000000000000000000000000000081526004016106ad90612603565b60405180910390fd5b6106c1838383610e03565b505050565b60006106d0611069565b60006106dc60086110e7565b9050600960009054906101000a900473ffffffffffffffffffffffffffffffffffffffff1673ffffffffffffffffffffffffffffffffffffffff16636673e84988888888886040518663ffffffff1660e01b8152600401610741959493929190612643565b600060405180830381600087803b15801561075b57600080fd5b505af115801561076f573d6000803e3d6000fd5b5050505061077d60086110f5565b610787898261110b565b6107918189611129565b7fca8605e5b2854022d4ef7e920a48b0c49ca69a8453970d922c3dd8b93057fa6781896040516107c2929190612697565b60405180910390a180915050979650505050505050565b6107f483838360405180602001604052806000815250610a6d565b505050565b6000806002600084815260200190815260200160002060009054906101000a900473ffffffffffffffffffffffffffffffffffffffff169050600073ffffffffffffffffffffffffffffffffffffffff168173ffffffffffffffffffffffffffffffffffffffff16036108a1576040517f08c379a000000000000000000000000000000000000000000000000000000000815260040161089890612713565b60405180910390fd5b80915050919050565b60008073ffffffffffffffffffffffffffffffffffffffff168273ffffffffffffffffffffffffffffffffffffffff160361091a576040517f08c379a0000000000000000000000000000000000000000000000000000000008152600401610911906127a5565b60405180910390fd5b600360008373ffffffffffffffffffffffffffffffffffffffff1673ffffffffffffffffffffffffffffffffffffffff168152602001908152602001600020549050919050565b610969611069565b610973600061119d565b565b600960009054906101000a900473ffffffffffffffffffffffffffffffffffffffff1681565b6000600760009054906101000a900473ffffffffffffffffffffffffffffffffffffffff16905090565b6060600180546109d49061243c565b80601f0160208091040260200160405190810160405280929190818152602001828054610a009061243c565b8015610a4d5780601f10610a2257610100808354040283529160200191610a4d565b820191906000526020600020905b815481529060010190602001808311610a3057829003601f168201915b5050505050905090565b610a69610a62610cad565b8383611263565b5050565b610a7e610a78610cad565b83610d6e565b610abd576040517f08c379a0000000000000000000000000000000000000000000000000000000008152600401610ab490612603565b60405180910390fd5b610ac9848484846113cf565b50505050565b6060610ada8261142b565b9050919050565b6000600560008473ffffffffffffffffffffffffffffffffffffffff1673ffffffffffffffffffffffffffffffffffffffff16815260200190815260200160002060008373ffffffffffffffffffffffffffffffffffffffff1673ffffffffffffffffffffffffffffffffffffffff16815260200190815260200160002060009054906101000a900460ff16905092915050565b610b7d611069565b600073ffffffffffffffffffffffffffffffffffffffff168173ffffffffffffffffffffffffffffffffffffffff1603610bec576040517f08c379a0000000000000000000000000000000000000000000000000000000008152600401610be390612837565b60405180910390fd5b610bf58161119d565b50565b60007f01ffc9a7000000000000000000000000000000000000000000000000000000007bffffffffffffffffffffffffffffffffffffffffffffffffffffffff1916827bffffffffffffffffffffffffffffffffffffffffffffffffffffffff1916149050919050565b610c6b8161153d565b610caa576040517f08c379a0000000000000000000000000000000000000000000000000000000008152600401610ca190612713565b60405180910390fd5b50565b600033905090565b816004600083815260200190815260200160002060006101000a81548173ffffffffffffffffffffffffffffffffffffffff021916908373ffffffffffffffffffffffffffffffffffffffff160217905550808273ffffffffffffffffffffffffffffffffffffffff16610d28836107f9565b73ffffffffffffffffffffffffffffffffffffffff167f8c5be1e5ebec7d5bd14f71427d1e84f3dd0314c0f7b2291e5b200ac8c7c3b92560405160405180910390a45050565b600080610d7a836107f9565b90508073ffffffffffffffffffffffffffffffffffffffff168473ffffffffffffffffffffffffffffffffffffffff161480610dbc5750610dbb8185610ae1565b5b80610dfa57508373ffffffffffffffffffffffffffffffffffffffff16610de284610509565b73ffffffffffffffffffffffffffffffffffffffff16145b91505092915050565b8273ffffffffffffffffffffffffffffffffffffffff16610e23826107f9565b73ffffffffffffffffffffffffffffffffffffffff1614610e79576040517f08c379a0000000000000000000000000000000000000000000000000000000008152600401610e70906128c9565b60405180910390fd5b600073ffffffffffffffffffffffffffffffffffffffff168273ffffffffffffffffffffffffffffffffffffffff1603610ee8576040517f08c379a0000000000000000000000000000000000000000000000000000000008152600401610edf9061295b565b60405180910390fd5b610ef38383836115a9565b610efe600082610cb5565b6001600360008573ffffffffffffffffffffffffffffffffffffffff1673ffffffffffffffffffffffffffffffffffffffff1681526020019081526020016000206000828254610f4e91906129aa565b925050819055506001600360008473ffffffffffffffffffffffffffffffffffffffff1673ffffffffffffffffffffffffffffffffffffffff1681526020019081526020016000206000828254610fa591906129de565b92505081905550816002600083815260200190815260200160002060006101000a81548173ffffffffffffffffffffffffffffffffffffffff021916908373ffffffffffffffffffffffffffffffffffffffff160217905550808273ffffffffffffffffffffffffffffffffffffffff168473ffffffffffffffffffffffffffffffffffffffff167fddf252ad1be2c89b69c2b068fc378daa952ba7f163c4a11628f55a4df523b3ef60405160405180910390a46110648383836115ae565b505050565b611071610cad565b73ffffffffffffffffffffffffffffffffffffffff1661108f61099b565b73ffffffffffffffffffffffffffffffffffffffff16146110e5576040517f08c379a00000000000000000000000000000000000000000000000000000000081526004016110dc90612a80565b60405180910390fd5b565b600081600001549050919050565b6001816000016000828254019250508190555050565b6111258282604051806020016040528060008152506115b3565b5050565b6111328261153d565b611171576040517f08c379a000000000000000000000000000000000000000000000000000000000815260040161116890612b12565b60405180910390fd5b80600660008481526020019081526020016000209080519060200190611198929190611b70565b505050565b6000600760009054906101000a900473ffffffffffffffffffffffffffffffffffffffff16905081600760006101000a81548173ffffffffffffffffffffffffffffffffffffffff021916908373ffffffffffffffffffffffffffffffffffffffff1602179055508173ffffffffffffffffffffffffffffffffffffffff168173ffffffffffffffffffffffffffffffffffffffff167f8be0079c531659141344cd1fd0a4f28419497f9722a3daafe3b4186f6b6457e060405160405180910390a35050565b8173ffffffffffffffffffffffffffffffffffffffff168373ffffffffffffffffffffffffffffffffffffffff16036112d1576040517f08c379a00000000000000000000000000000000000000000000000000000000081526004016112c890612b7e565b60405180910390fd5b80600560008573ffffffffffffffffffffffffffffffffffffffff1673ffffffffffffffffffffffffffffffffffffffff16815260200190815260200160002060008473ffffffffffffffffffffffffffffffffffffffff1673ffffffffffffffffffffffffffffffffffffffff16815260200190815260200160002060006101000a81548160ff0219169083151502179055508173ffffffffffffffffffffffffffffffffffffffff168373ffffffffffffffffffffffffffffffffffffffff167f17307eab39ab6107e8899845ad3d59bd9653f200f220920489ca2b5937696c31836040516113c29190611cc7565b60405180910390a3505050565b6113da848484610e03565b6113e68484848461160e565b611425576040517f08c379a000000000000000000000000000000000000000000000000000000000815260040161141c90612c10565b60405180910390fd5b50505050565b606061143682610c62565b60006006600084815260200190815260200160002080546114569061243c565b80601f01602080910402602001604051908101604052809291908181526020018280546114829061243c565b80156114cf5780601f106114a4576101008083540402835291602001916114cf565b820191906000526020600020905b8154815290600101906020018083116114b257829003601f168201915b5050505050905060006114e0611795565b905060008151036114f5578192505050611538565b60008251111561152a578082604051602001611512929190612c6c565b60405160208183030381529060405292505050611538565b611533846117ac565b925050505b919050565b60008073ffffffffffffffffffffffffffffffffffffffff166002600084815260200190815260200160002060009054906101000a900473ffffffffffffffffffffffffffffffffffffffff1673ffffffffffffffffffffffffffffffffffffffff1614159050919050565b505050565b505050565b6115bd8383611814565b6115ca600084848461160e565b611609576040517f08c379a000000000000000000000000000000000000000000000000000000000815260040161160090612c10565b60405180910390fd5b505050565b600061162f8473ffffffffffffffffffffffffffffffffffffffff166119ed565b15611788578373ffffffffffffffffffffffffffffffffffffffff1663150b7a02611658610cad565b8786866040518563ffffffff1660e01b815260040161167a9493929190612ce5565b6020604051808303816000875af19250505080156116b657506040513d601f19601f820116820180604052508101906116b39190612d46565b60015b611738573d80600081146116e6576040519150601f19603f3d011682016040523d82523d6000602084013e6116eb565b606091505b506000815103611730576040517f08c379a000000000000000000000000000000000000000000000000000000000815260040161172790612c10565b60405180910390fd5b805181602001fd5b63150b7a0260e01b7bffffffffffffffffffffffffffffffffffffffffffffffffffffffff1916817bffffffffffffffffffffffffffffffffffffffffffffffffffffffff19161491505061178d565b600190505b949350505050565b606060405180602001604052806000815250905090565b60606117b782610c62565b60006117c1611795565b905060008151116117e1576040518060200160405280600081525061180c565b806117eb84611a10565b6040516020016117fc929190612c6c565b6040516020818303038152906040525b915050919050565b600073ffffffffffffffffffffffffffffffffffffffff168273ffffffffffffffffffffffffffffffffffffffff1603611883576040517f08c379a000000000000000000000000000000000000000000000000000000000815260040161187a90612dbf565b60405180910390fd5b61188c8161153d565b156118cc576040517f08c379a00000000000000000000000000000000000000000000000000000000081526004016118c390612e2b565b60405180910390fd5b6118d8600083836115a9565b6001600360008473ffffffffffffffffffffffffffffffffffffffff1673ffffffffffffffffffffffffffffffffffffffff168152602001908152602001600020600082825461192891906129de565b92505081905550816002600083815260200190815260200160002060006101000a81548173ffffffffffffffffffffffffffffffffffffffff021916908373ffffffffffffffffffffffffffffffffffffffff160217905550808273ffffffffffffffffffffffffffffffffffffffff16600073ffffffffffffffffffffffffffffffffffffffff167fddf252ad1be2c89b69c2b068fc378daa952ba7f163c4a11628f55a4df523b3ef60405160405180910390a46119e9600083836115ae565b5050565b6000808273ffffffffffffffffffffffffffffffffffffffff163b119050919050565b606060008203611a57576040518060400160405280600181526020017f30000000000000000000000000000000000000000000000000000000000000008152509050611b6b565b600082905060005b60008214611a89578080611a7290612e4b565b915050600a82611a829190612ec2565b9150611a5f565b60008167ffffffffffffffff811115611aa557611aa4611f25565b5b6040519080825280601f01601f191660200182016040528015611ad75781602001600182028036833780820191505090505b5090505b60008514611b6457600182611af091906129aa565b9150600a85611aff9190612ef3565b6030611b0b91906129de565b60f81b818381518110611b2157611b20612f24565b5b60200101907effffffffffffffffffffffffffffffffffffffffffffffffffffffffffffff1916908160001a905350600a85611b5d9190612ec2565b9450611adb565b8093505050505b919050565b828054611b7c9061243c565b90600052602060002090601f016020900481019282611b9e5760008555611be5565b82601f10611bb757805160ff1916838001178555611be5565b82800160010185558215611be5579182015b82811115611be4578251825591602001919060010190611bc9565b5b509050611bf29190611bf6565b5090565b5b80821115611c0f576000816000905550600101611bf7565b5090565b6000604051905090565b600080fd5b600080fd5b60007fffffffff0000000000000000000000000000000000000000000000000000000082169050919050565b611c5c81611c27565b8114611c6757600080fd5b50565b600081359050611c7981611c53565b92915050565b600060208284031215611c9557611c94611c1d565b5b6000611ca384828501611c6a565b91505092915050565b60008115159050919050565b611cc181611cac565b82525050565b6000602082019050611cdc6000830184611cb8565b92915050565b600081519050919050565b600082825260208201905092915050565b60005b83811015611d1c578082015181840152602081019050611d01565b83811115611d2b576000848401525b50505050565b6000601f19601f8301169050919050565b6000611d4d82611ce2565b611d578185611ced565b9350611d67818560208601611cfe565b611d7081611d31565b840191505092915050565b60006020820190508181036000830152611d958184611d42565b905092915050565b6000819050919050565b611db081611d9d565b8114611dbb57600080fd5b50565b600081359050611dcd81611da7565b92915050565b600060208284031215611de957611de8611c1d565b5b6000611df784828501611dbe565b91505092915050565b600073ffffffffffffffffffffffffffffffffffffffff82169050919050565b6000611e2b82611e00565b9050919050565b611e3b81611e20565b82525050565b6000602082019050611e566000830184611e32565b92915050565b611e6581611e20565b8114611e7057600080fd5b50565b600081359050611e8281611e5c565b92915050565b60008060408385031215611e9f57611e9e611c1d565b5b6000611ead85828601611e73565b9250506020611ebe85828601611dbe565b9150509250929050565b600080600060608486031215611ee157611ee0611c1d565b5b6000611eef86828701611e73565b9350506020611f0086828701611e73565b9250506040611f1186828701611dbe565b9150509250925092565b600080fd5b600080fd5b7f4e487b7100000000000000000000000000000000000000000000000000000000600052604160045260246000fd5b611f5d82611d31565b810181811067ffffffffffffffff82111715611f7c57611f7b611f25565b5b80604052505050565b6000611f8f611c13565b9050611f9b8282611f54565b919050565b600067ffffffffffffffff821115611fbb57611fba611f25565b5b611fc482611d31565b9050602081019050919050565b82818337600083830152505050565b6000611ff3611fee84611fa0565b611f85565b90508281526020810184848401111561200f5761200e611f20565b5b61201a848285611fd1565b509392505050565b600082601f83011261203757612036611f1b565b5b8135612047848260208601611fe0565b91505092915050565b6000819050919050565b61206381612050565b811461206e57600080fd5b50565b6000813590506120808161205a565b92915050565b600080fd5b6000819050826020600802820111156120a7576120a6612086565b5b92915050565b60008060008060008060006101c0888a0312156120cd576120cc611c1d565b5b60006120db8a828b01611e73565b975050602088013567ffffffffffffffff8111156120fc576120fb611c22565b5b6121088a828b01612022565b96505060406121198a828b01611dbe565b955050606061212a8a828b01612071565b945050608061213b8a828b01611dbe565b93505060a061214c8a828b01611dbe565b92505060c061215d8a828b0161208b565b91505092959891949750929550565b61217581611d9d565b82525050565b6000602082019050612190600083018461216c565b92915050565b6000602082840312156121ac576121ab611c1d565b5b60006121ba84828501611e73565b91505092915050565b6000819050919050565b60006121e86121e36121de84611e00565b6121c3565b611e00565b9050919050565b60006121fa826121cd565b9050919050565b600061220c826121ef565b9050919050565b61221c81612201565b82525050565b60006020820190506122376000830184612213565b92915050565b61224681611cac565b811461225157600080fd5b50565b6000813590506122638161223d565b92915050565b600080604083850312156122805761227f611c1d565b5b600061228e85828601611e73565b925050602061229f85828601612254565b9150509250929050565b600067ffffffffffffffff8211156122c4576122c3611f25565b5b6122cd82611d31565b9050602081019050919050565b60006122ed6122e8846122a9565b611f85565b90508281526020810184848401111561230957612308611f20565b5b612314848285611fd1565b509392505050565b600082601f83011261233157612330611f1b565b5b81356123418482602086016122da565b91505092915050565b6000806000806080858703121561236457612363611c1d565b5b600061237287828801611e73565b945050602061238387828801611e73565b935050604061239487828801611dbe565b925050606085013567ffffffffffffffff8111156123b5576123b4611c22565b5b6123c18782880161231c565b91505092959194509250565b600080604083850312156123e4576123e3611c1d565b5b60006123f285828601611e73565b925050602061240385828601611e73565b9150509250929050565b7f4e487b7100000000000000000000000000000000000000000000000000000000600052602260045260246000fd5b6000600282049050600182168061245457607f821691505b6020821081036124675761246661240d565b5b50919050565b7f4552433732313a20617070726f76616c20746f2063757272656e74206f776e6560008201527f7200000000000000000000000000000000000000000000000000000000000000602082015250565b60006124c9602183611ced565b91506124d48261246d565b604082019050919050565b600060208201905081810360008301526124f8816124bc565b9050919050565b7f4552433732313a20617070726f76652063616c6c6572206973206e6f7420746f60008201527f6b656e206f776e6572206e6f7220617070726f76656420666f7220616c6c0000602082015250565b600061255b603e83611ced565b9150612566826124ff565b604082019050919050565b6000602082019050818103600083015261258a8161254e565b9050919050565b7f4552433732313a2063616c6c6572206973206e6f7420746f6b656e206f776e6560008201527f72206e6f7220617070726f766564000000000000000000000000000000000000602082015250565b60006125ed602e83611ced565b91506125f882612591565b604082019050919050565b6000602082019050818103600083015261261c816125e0565b9050919050565b61262c81612050565b82525050565b61263f6101008383611fd1565b5050565b600061018082019050612659600083018861216c565b6126666020830187612623565b612673604083018661216c565b612680606083018561216c565b61268d6080830184612632565b9695505050505050565b60006040820190506126ac600083018561216c565b81810360208301526126be8184611d42565b90509392505050565b7f4552433732313a20696e76616c696420746f6b656e2049440000000000000000600082015250565b60006126fd601883611ced565b9150612708826126c7565b602082019050919050565b6000602082019050818103600083015261272c816126f0565b9050919050565b7f4552433732313a2061646472657373207a65726f206973206e6f74206120766160008201527f6c6964206f776e65720000000000000000000000000000000000000000000000602082015250565b600061278f602983611ced565b915061279a82612733565b604082019050919050565b600060208201905081810360008301526127be81612782565b9050919050565b7f4f776e61626c653a206e6577206f776e657220697320746865207a65726f206160008201527f6464726573730000000000000000000000000000000000000000000000000000602082015250565b6000612821602683611ced565b915061282c826127c5565b604082019050919050565b6000602082019050818103600083015261285081612814565b9050919050565b7f4552433732313a207472616e736665722066726f6d20696e636f72726563742060008201527f6f776e6572000000000000000000000000000000000000000000000000000000602082015250565b60006128b3602583611ced565b91506128be82612857565b604082019050919050565b600060208201905081810360008301526128e2816128a6565b9050919050565b7f4552433732313a207472616e7366657220746f20746865207a65726f2061646460008201527f7265737300000000000000000000000000000000000000000000000000000000602082015250565b6000612945602483611ced565b9150612950826128e9565b604082019050919050565b6000602082019050818103600083015261297481612938565b9050919050565b7f4e487b7100000000000000000000000000000000000000000000000000000000600052601160045260246000fd5b60006129b582611d9d565b91506129c083611d9d565b9250828210156129d3576129d261297b565b5b828203905092915050565b60006129e982611d9d565b91506129f483611d9d565b9250827fffffffffffffffffffffffffffffffffffffffffffffffffffffffffffffffff03821115612a2957612a2861297b565b5b828201905092915050565b7f4f776e61626c653a2063616c6c6572206973206e6f7420746865206f776e6572600082015250565b6000612a6a602083611ced565b9150612a7582612a34565b602082019050919050565b60006020820190508181036000830152612a9981612a5d565b9050919050565b7f45524337323155524953746f726167653a2055524920736574206f66206e6f6e60008201527f6578697374656e7420746f6b656e000000000000000000000000000000000000602082015250565b6000612afc602e83611ced565b9150612b0782612aa0565b604082019050919050565b60006020820190508181036000830152612b2b81612aef565b9050919050565b7f4552433732313a20617070726f766520746f2063616c6c657200000000000000600082015250565b6000612b68601983611ced565b9150612b7382612b32565b602082019050919050565b60006020820190508181036000830152612b9781612b5b565b9050919050565b7f4552433732313a207472616e7366657220746f206e6f6e20455243373231526560008201527f63656976657220696d706c656d656e7465720000000000000000000000000000602082015250565b6000612bfa603283611ced565b9150612c0582612b9e565b604082019050919050565b60006020820190508181036000830152612c2981612bed565b9050919050565b600081905092915050565b6000612c4682611ce2565b612c508185612c30565b9350612c60818560208601611cfe565b80840191505092915050565b6000612c788285612c3b565b9150612c848284612c3b565b91508190509392505050565b600081519050919050565b600082825260208201905092915050565b6000612cb782612c90565b612cc18185612c9b565b9350612cd1818560208601611cfe565b612cda81611d31565b840191505092915050565b6000608082019050612cfa6000830187611e32565b612d076020830186611e32565b612d14604083018561216c565b8181036060830152612d268184612cac565b905095945050505050565b600081519050612d4081611c53565b92915050565b600060208284031215612d5c57612d5b611c1d565b5b6000612d6a84828501612d31565b91505092915050565b7f4552433732313a206d696e7420746f20746865207a65726f2061646472657373600082015250565b6000612da9602083611ced565b9150612db482612d73565b602082019050919050565b60006020820190508181036000830152612dd881612d9c565b9050919050565b7f4552433732313a20746f6b656e20616c7265616479206d696e74656400000000600082015250565b6000612e15601c83611ced565b9150612e2082612ddf565b602082019050919050565b60006020820190508181036000830152612e4481612e08565b9050919050565b6000612e5682611d9d565b91507fffffffffffffffffffffffffffffffffffffffffffffffffffffffffffffffff8203612e8857612e8761297b565b5b600182019050919050565b7f4e487b7100000000000000000000000000000000000000000000000000000000600052601260045260246000fd5b6000612ecd82611d9d565b9150612ed883611d9d565b925082612ee857612ee7612e93565b5b828204905092915050565b6000612efe82611d9d565b9150612f0983611d9d565b925082612f1957612f18612e93565b5b828206905092915050565b7f4e487b7100000000000000000000000000000000000000000000000000000000600052603260045260246000fdfea2646970667358221220683ec3b3feee17cff1928d3554106c2308b10cb6db3b404bf621941c3788ad6364736f6c634300080d0033",
  "linkReferences": {},
  "deployedLinkReferences": {}
}