{
  "_format": "hh-sol-artifact-1",
  "contractName": "TazToken",
  "sourceName": "contracts/TazToken.sol",
  "abi": [
    {
      "inputs": [
        {
          "internalType": "contract ISemaphore",
          "name": "semaContractAddr",
          "type": "address"
        }
      ],
      "stateMutability": "nonpayable",
      "type": "constructor"
    },
    {
      "anonymous": false,
      "inputs": [
        {
          "indexed": true,
          "internalType": "address",
          "name": "owner",
          "type": "address"
        },
        {
          "indexed": true,
          "internalType": "address",
          "name": "approved",
          "type": "address"
        },
        {
          "indexed": true,
          "internalType": "uint256",
          "name": "tokenId",
          "type": "uint256"
        }
      ],
      "name": "Approval",
      "type": "event"
    },
    {
      "anonymous": false,
      "inputs": [
        {
          "indexed": true,
          "internalType": "address",
          "name": "owner",
          "type": "address"
        },
        {
          "indexed": true,
          "internalType": "address",
          "name": "operator",
          "type": "address"
        },
        {
          "indexed": false,
          "internalType": "bool",
          "name": "approved",
          "type": "bool"
        }
      ],
      "name": "ApprovalForAll",
      "type": "event"
    },
    {
      "anonymous": false,
      "inputs": [
        {
          "indexed": false,
          "internalType": "uint256",
          "name": "tokenId",
          "type": "uint256"
        },
        {
          "indexed": false,
          "internalType": "string",
          "name": "uri",
          "type": "string"
        }
      ],
      "name": "NewToken",
      "type": "event"
    },
    {
      "anonymous": false,
      "inputs": [
        {
          "indexed": true,
          "internalType": "address",
          "name": "previousOwner",
          "type": "address"
        },
        {
          "indexed": true,
          "internalType": "address",
          "name": "newOwner",
          "type": "address"
        }
      ],
      "name": "OwnershipTransferred",
      "type": "event"
    },
    {
      "anonymous": false,
      "inputs": [
        {
          "indexed": true,
          "internalType": "address",
          "name": "from",
          "type": "address"
        },
        {
          "indexed": true,
          "internalType": "address",
          "name": "to",
          "type": "address"
        },
        {
          "indexed": true,
          "internalType": "uint256",
          "name": "tokenId",
          "type": "uint256"
        }
      ],
      "name": "Transfer",
      "type": "event"
    },
    {
      "inputs": [
        {
          "internalType": "address",
          "name": "to",
          "type": "address"
        },
        {
          "internalType": "uint256",
          "name": "tokenId",
          "type": "uint256"
        }
      ],
      "name": "approve",
      "outputs": [],
      "stateMutability": "nonpayable",
      "type": "function"
    },
    {
      "inputs": [
        {
          "internalType": "address",
          "name": "owner",
          "type": "address"
        }
      ],
      "name": "balanceOf",
      "outputs": [
        {
          "internalType": "uint256",
          "name": "",
          "type": "uint256"
        }
      ],
      "stateMutability": "view",
      "type": "function"
    },
    {
      "inputs": [
        {
          "internalType": "uint256",
          "name": "tokenId",
          "type": "uint256"
        }
      ],
      "name": "getApproved",
      "outputs": [
        {
          "internalType": "address",
          "name": "",
          "type": "address"
        }
      ],
      "stateMutability": "view",
      "type": "function"
    },
    {
      "inputs": [
        {
          "internalType": "address",
          "name": "owner",
          "type": "address"
        },
        {
          "internalType": "address",
          "name": "operator",
          "type": "address"
        }
      ],
      "name": "isApprovedForAll",
      "outputs": [
        {
          "internalType": "bool",
          "name": "",
          "type": "bool"
        }
      ],
      "stateMutability": "view",
      "type": "function"
    },
    {
      "inputs": [],
      "name": "name",
      "outputs": [
        {
          "internalType": "string",
          "name": "",
          "type": "string"
        }
      ],
      "stateMutability": "view",
      "type": "function"
    },
    {
      "inputs": [],
      "name": "owner",
      "outputs": [
        {
          "internalType": "address",
          "name": "",
          "type": "address"
        }
      ],
      "stateMutability": "view",
      "type": "function"
    },
    {
      "inputs": [
        {
          "internalType": "uint256",
          "name": "tokenId",
          "type": "uint256"
        }
      ],
      "name": "ownerOf",
      "outputs": [
        {
          "internalType": "address",
          "name": "",
          "type": "address"
        }
      ],
      "stateMutability": "view",
      "type": "function"
    },
    {
      "inputs": [],
      "name": "renounceOwnership",
      "outputs": [],
      "stateMutability": "nonpayable",
      "type": "function"
    },
    {
      "inputs": [
        {
          "internalType": "address",
          "name": "to",
          "type": "address"
        },
        {
          "internalType": "string",
          "name": "uri",
          "type": "string"
        },
        {
          "internalType": "uint256",
          "name": "groupId",
          "type": "uint256"
        },
        {
          "internalType": "uint256",
          "name": "merkleTreeRoot",
          "type": "uint256"
        },
        {
          "internalType": "bytes32",
          "name": "signal",
          "type": "bytes32"
        },
        {
          "internalType": "uint256",
          "name": "nullifierHash",
          "type": "uint256"
        },
        {
          "internalType": "uint256",
          "name": "externalNullifier",
          "type": "uint256"
        },
        {
          "internalType": "uint256[8]",
          "name": "proof",
          "type": "uint256[8]"
        }
      ],
      "name": "safeMint",
      "outputs": [
        {
          "internalType": "uint256",
          "name": "",
          "type": "uint256"
        }
      ],
      "stateMutability": "nonpayable",
      "type": "function"
    },
    {
      "inputs": [
        {
          "internalType": "address",
          "name": "from",
          "type": "address"
        },
        {
          "internalType": "address",
          "name": "to",
          "type": "address"
        },
        {
          "internalType": "uint256",
          "name": "tokenId",
          "type": "uint256"
        }
      ],
      "name": "safeTransferFrom",
      "outputs": [],
      "stateMutability": "nonpayable",
      "type": "function"
    },
    {
      "inputs": [
        {
          "internalType": "address",
          "name": "from",
          "type": "address"
        },
        {
          "internalType": "address",
          "name": "to",
          "type": "address"
        },
        {
          "internalType": "uint256",
          "name": "tokenId",
          "type": "uint256"
        },
        {
          "internalType": "bytes",
          "name": "_data",
          "type": "bytes"
        }
      ],
      "name": "safeTransferFrom",
      "outputs": [],
      "stateMutability": "nonpayable",
      "type": "function"
    },
    {
      "inputs": [],
      "name": "semaContract",
      "outputs": [
        {
          "internalType": "contract ISemaphore",
          "name": "",
          "type": "address"
        }
      ],
      "stateMutability": "view",
      "type": "function"
    },
    {
      "inputs": [
        {
          "internalType": "address",
          "name": "operator",
          "type": "address"
        },
        {
          "internalType": "bool",
          "name": "approved",
          "type": "bool"
        }
      ],
      "name": "setApprovalForAll",
      "outputs": [],
      "stateMutability": "nonpayable",
      "type": "function"
    },
    {
      "inputs": [
        {
          "internalType": "bytes4",
          "name": "interfaceId",
          "type": "bytes4"
        }
      ],
      "name": "supportsInterface",
      "outputs": [
        {
          "internalType": "bool",
          "name": "",
          "type": "bool"
        }
      ],
      "stateMutability": "view",
      "type": "function"
    },
    {
      "inputs": [],
      "name": "symbol",
      "outputs": [
        {
          "internalType": "string",
          "name": "",
          "type": "string"
        }
      ],
      "stateMutability": "view",
      "type": "function"
    },
    {
      "inputs": [
        {
          "internalType": "uint256",
          "name": "tokenId",
          "type": "uint256"
        }
      ],
      "name": "tokenURI",
      "outputs": [
        {
          "internalType": "string",
          "name": "",
          "type": "string"
        }
      ],
      "stateMutability": "view",
      "type": "function"
    },
    {
      "inputs": [
        {
          "internalType": "address",
          "name": "from",
          "type": "address"
        },
        {
          "internalType": "address",
          "name": "to",
          "type": "address"
        },
        {
          "internalType": "uint256",
          "name": "tokenId",
          "type": "uint256"
        }
      ],
      "name": "transferFrom",
      "outputs": [],
      "stateMutability": "nonpayable",
      "type": "function"
    },
    {
      "inputs": [
        {
          "internalType": "address",
          "name": "newOwner",
          "type": "address"
        }
      ],
      "name": "transferOwnership",
      "outputs": [],
      "stateMutability": "nonpayable",
      "type": "function"
    }
  ],
  "bytecode": "0x60806040523480156200001157600080fd5b50604051620037693803806200376983398181016040528101906200003791906200033b565b6040518060400160405280600881526020017f54617a546f6b656e0000000000000000000000000000000000000000000000008152506040518060400160405280600381526020017f54415a00000000000000000000000000000000000000000000000000000000008152508160009080519060200190620000bb9291906200020d565b508060019080519060200190620000d49291906200020d565b505050620000f7620000eb6200013f60201b60201c565b6200014760201b60201c565b80600960006101000a81548173ffffffffffffffffffffffffffffffffffffffff021916908373ffffffffffffffffffffffffffffffffffffffff16021790555050620003d1565b600033905090565b6000600760009054906101000a900473ffffffffffffffffffffffffffffffffffffffff16905081600760006101000a81548173ffffffffffffffffffffffffffffffffffffffff021916908373ffffffffffffffffffffffffffffffffffffffff1602179055508173ffffffffffffffffffffffffffffffffffffffff168173ffffffffffffffffffffffffffffffffffffffff167f8be0079c531659141344cd1fd0a4f28419497f9722a3daafe3b4186f6b6457e060405160405180910390a35050565b8280546200021b906200039c565b90600052602060002090601f0160209004810192826200023f57600085556200028b565b82601f106200025a57805160ff19168380011785556200028b565b828001600101855582156200028b579182015b828111156200028a5782518255916020019190600101906200026d565b5b5090506200029a91906200029e565b5090565b5b80821115620002b95760008160009055506001016200029f565b5090565b600080fd5b600073ffffffffffffffffffffffffffffffffffffffff82169050919050565b6000620002ef82620002c2565b9050919050565b60006200030382620002e2565b9050919050565b6200031581620002f6565b81146200032157600080fd5b50565b60008151905062000335816200030a565b92915050565b600060208284031215620003545762000353620002bd565b5b6000620003648482850162000324565b91505092915050565b7f4e487b7100000000000000000000000000000000000000000000000000000000600052602260045260246000fd5b60006002820490506001821680620003b557607f821691505b602082108103620003cb57620003ca6200036d565b5b50919050565b61338880620003e16000396000f3fe608060405234801561001057600080fd5b50600436106101165760003560e01c80638a8deed7116100a2578063b88d4fde11610071578063b88d4fde146102cd578063c1a40098146102e9578063c87b56dd14610319578063e985e9c514610349578063f2fde38b1461037957610116565b80638a8deed7146102575780638da5cb5b1461027557806395d89b4114610293578063a22cb465146102b157610116565b806323b872dd116100e957806323b872dd146101b557806342842e0e146101d15780636352211e146101ed57806370a082311461021d578063715018a61461024d57610116565b806301ffc9a71461011b57806306fdde031461014b578063081812fc14610169578063095ea7b314610199575b600080fd5b61013560048036038101906101309190611def565b610395565b6040516101429190611e37565b60405180910390f35b610153610477565b6040516101609190611eeb565b60405180910390f35b610183600480360381019061017e9190611f43565b610509565b6040516101909190611fb1565b60405180910390f35b6101b360048036038101906101ae9190611ff8565b61058e565b005b6101cf60048036038101906101ca9190612038565b6106a5565b005b6101eb60048036038101906101e69190612038565b610705565b005b61020760048036038101906102029190611f43565b610725565b6040516102149190611fb1565b60405180910390f35b6102376004803603810190610232919061208b565b6107d6565b60405161024491906120c7565b60405180910390f35b61025561088d565b005b61025f610915565b60405161026c9190612141565b60405180910390f35b61027d61093b565b60405161028a9190611fb1565b60405180910390f35b61029b610965565b6040516102a89190611eeb565b60405180910390f35b6102cb60048036038101906102c69190612188565b6109f7565b005b6102e760048036038101906102e291906122fd565b610a0d565b005b61030360048036038101906102fe919061247e565b610a6f565b60405161031091906120c7565b60405180910390f35b610333600480360381019061032e9190611f43565b610bf9565b6040516103409190611eeb565b60405180910390f35b610363600480360381019061035e9190612550565b610c0b565b6040516103709190611e37565b60405180910390f35b610393600480360381019061038e919061208b565b610c9f565b005b60007f80ac58cd000000000000000000000000000000000000000000000000000000007bffffffffffffffffffffffffffffffffffffffffffffffffffffffff1916827bffffffffffffffffffffffffffffffffffffffffffffffffffffffff1916148061046057507f5b5e139f000000000000000000000000000000000000000000000000000000007bffffffffffffffffffffffffffffffffffffffffffffffffffffffff1916827bffffffffffffffffffffffffffffffffffffffffffffffffffffffff1916145b80610470575061046f82610d96565b5b9050919050565b606060008054610486906125bf565b80601f01602080910402602001604051908101604052809291908181526020018280546104b2906125bf565b80156104ff5780601f106104d4576101008083540402835291602001916104ff565b820191906000526020600020905b8154815290600101906020018083116104e257829003601f168201915b5050505050905090565b600061051482610e00565b610553576040517f08c379a000000000000000000000000000000000000000000000000000000000815260040161054a90612662565b60405180910390fd5b6004600083815260200190815260200160002060009054906101000a900473ffffffffffffffffffffffffffffffffffffffff169050919050565b600061059982610725565b90508073ffffffffffffffffffffffffffffffffffffffff168373ffffffffffffffffffffffffffffffffffffffff1603610609576040517f08c379a0000000000000000000000000000000000000000000000000000000008152600401610600906126f4565b60405180910390fd5b8073ffffffffffffffffffffffffffffffffffffffff16610628610e6c565b73ffffffffffffffffffffffffffffffffffffffff161480610657575061065681610651610e6c565b610c0b565b5b610696576040517f08c379a000000000000000000000000000000000000000000000000000000000815260040161068d90612786565b60405180910390fd5b6106a08383610e74565b505050565b6106b66106b0610e6c565b82610f2d565b6106f5576040517f08c379a00000000000000000000000000000000000000000000000000000000081526004016106ec90612818565b60405180910390fd5b61070083838361100b565b505050565b61072083838360405180602001604052806000815250610a0d565b505050565b6000806002600084815260200190815260200160002060009054906101000a900473ffffffffffffffffffffffffffffffffffffffff169050600073ffffffffffffffffffffffffffffffffffffffff168173ffffffffffffffffffffffffffffffffffffffff16036107cd576040517f08c379a00000000000000000000000000000000000000000000000000000000081526004016107c4906128aa565b60405180910390fd5b80915050919050565b60008073ffffffffffffffffffffffffffffffffffffffff168273ffffffffffffffffffffffffffffffffffffffff1603610846576040517f08c379a000000000000000000000000000000000000000000000000000000000815260040161083d9061293c565b60405180910390fd5b600360008373ffffffffffffffffffffffffffffffffffffffff1673ffffffffffffffffffffffffffffffffffffffff168152602001908152602001600020549050919050565b610895610e6c565b73ffffffffffffffffffffffffffffffffffffffff166108b361093b565b73ffffffffffffffffffffffffffffffffffffffff1614610909576040517f08c379a0000000000000000000000000000000000000000000000000000000008152600401610900906129a8565b60405180910390fd5b6109136000611266565b565b600960009054906101000a900473ffffffffffffffffffffffffffffffffffffffff1681565b6000600760009054906101000a900473ffffffffffffffffffffffffffffffffffffffff16905090565b606060018054610974906125bf565b80601f01602080910402602001604051908101604052809291908181526020018280546109a0906125bf565b80156109ed5780601f106109c2576101008083540402835291602001916109ed565b820191906000526020600020905b8154815290600101906020018083116109d057829003601f168201915b5050505050905090565b610a09610a02610e6c565b838361132c565b5050565b610a1e610a18610e6c565b83610f2d565b610a5d576040517f08c379a0000000000000000000000000000000000000000000000000000000008152600401610a5490612818565b60405180910390fd5b610a6984848484611498565b50505050565b6000610a79610e6c565b73ffffffffffffffffffffffffffffffffffffffff16610a9761093b565b73ffffffffffffffffffffffffffffffffffffffff1614610aed576040517f08c379a0000000000000000000000000000000000000000000000000000000008152600401610ae4906129a8565b60405180910390fd5b6000610af960086114f4565b9050600960009054906101000a900473ffffffffffffffffffffffffffffffffffffffff1673ffffffffffffffffffffffffffffffffffffffff16638b69310a8989898989896040518763ffffffff1660e01b8152600401610b60969594939291906129e8565b600060405180830381600087803b158015610b7a57600080fd5b505af1158015610b8e573d6000803e3d6000fd5b50505050610b9c6008611502565b610ba68a82611518565b610bb0818a611536565b7fca8605e5b2854022d4ef7e920a48b0c49ca69a8453970d922c3dd8b93057fa67818a604051610be1929190612a4a565b60405180910390a18091505098975050505050505050565b6060610c04826115aa565b9050919050565b6000600560008473ffffffffffffffffffffffffffffffffffffffff1673ffffffffffffffffffffffffffffffffffffffff16815260200190815260200160002060008373ffffffffffffffffffffffffffffffffffffffff1673ffffffffffffffffffffffffffffffffffffffff16815260200190815260200160002060009054906101000a900460ff16905092915050565b610ca7610e6c565b73ffffffffffffffffffffffffffffffffffffffff16610cc561093b565b73ffffffffffffffffffffffffffffffffffffffff1614610d1b576040517f08c379a0000000000000000000000000000000000000000000000000000000008152600401610d12906129a8565b60405180910390fd5b600073ffffffffffffffffffffffffffffffffffffffff168173ffffffffffffffffffffffffffffffffffffffff1603610d8a576040517f08c379a0000000000000000000000000000000000000000000000000000000008152600401610d8190612aec565b60405180910390fd5b610d9381611266565b50565b60007f01ffc9a7000000000000000000000000000000000000000000000000000000007bffffffffffffffffffffffffffffffffffffffffffffffffffffffff1916827bffffffffffffffffffffffffffffffffffffffffffffffffffffffff1916149050919050565b60008073ffffffffffffffffffffffffffffffffffffffff166002600084815260200190815260200160002060009054906101000a900473ffffffffffffffffffffffffffffffffffffffff1673ffffffffffffffffffffffffffffffffffffffff1614159050919050565b600033905090565b816004600083815260200190815260200160002060006101000a81548173ffffffffffffffffffffffffffffffffffffffff021916908373ffffffffffffffffffffffffffffffffffffffff160217905550808273ffffffffffffffffffffffffffffffffffffffff16610ee783610725565b73ffffffffffffffffffffffffffffffffffffffff167f8c5be1e5ebec7d5bd14f71427d1e84f3dd0314c0f7b2291e5b200ac8c7c3b92560405160405180910390a45050565b6000610f3882610e00565b610f77576040517f08c379a0000000000000000000000000000000000000000000000000000000008152600401610f6e90612b7e565b60405180910390fd5b6000610f8283610725565b90508073ffffffffffffffffffffffffffffffffffffffff168473ffffffffffffffffffffffffffffffffffffffff161480610ff157508373ffffffffffffffffffffffffffffffffffffffff16610fd984610509565b73ffffffffffffffffffffffffffffffffffffffff16145b8061100257506110018185610c0b565b5b91505092915050565b8273ffffffffffffffffffffffffffffffffffffffff1661102b82610725565b73ffffffffffffffffffffffffffffffffffffffff1614611081576040517f08c379a000000000000000000000000000000000000000000000000000000000815260040161107890612c10565b60405180910390fd5b600073ffffffffffffffffffffffffffffffffffffffff168273ffffffffffffffffffffffffffffffffffffffff16036110f0576040517f08c379a00000000000000000000000000000000000000000000000000000000081526004016110e790612ca2565b60405180910390fd5b6110fb8383836116fb565b611106600082610e74565b6001600360008573ffffffffffffffffffffffffffffffffffffffff1673ffffffffffffffffffffffffffffffffffffffff16815260200190815260200160002060008282546111569190612cf1565b925050819055506001600360008473ffffffffffffffffffffffffffffffffffffffff1673ffffffffffffffffffffffffffffffffffffffff16815260200190815260200160002060008282546111ad9190612d25565b92505081905550816002600083815260200190815260200160002060006101000a81548173ffffffffffffffffffffffffffffffffffffffff021916908373ffffffffffffffffffffffffffffffffffffffff160217905550808273ffffffffffffffffffffffffffffffffffffffff168473ffffffffffffffffffffffffffffffffffffffff167fddf252ad1be2c89b69c2b068fc378daa952ba7f163c4a11628f55a4df523b3ef60405160405180910390a4505050565b6000600760009054906101000a900473ffffffffffffffffffffffffffffffffffffffff16905081600760006101000a81548173ffffffffffffffffffffffffffffffffffffffff021916908373ffffffffffffffffffffffffffffffffffffffff1602179055508173ffffffffffffffffffffffffffffffffffffffff168173ffffffffffffffffffffffffffffffffffffffff167f8be0079c531659141344cd1fd0a4f28419497f9722a3daafe3b4186f6b6457e060405160405180910390a35050565b8173ffffffffffffffffffffffffffffffffffffffff168373ffffffffffffffffffffffffffffffffffffffff160361139a576040517f08c379a000000000000000000000000000000000000000000000000000000000815260040161139190612dc7565b60405180910390fd5b80600560008573ffffffffffffffffffffffffffffffffffffffff1673ffffffffffffffffffffffffffffffffffffffff16815260200190815260200160002060008473ffffffffffffffffffffffffffffffffffffffff1673ffffffffffffffffffffffffffffffffffffffff16815260200190815260200160002060006101000a81548160ff0219169083151502179055508173ffffffffffffffffffffffffffffffffffffffff168373ffffffffffffffffffffffffffffffffffffffff167f17307eab39ab6107e8899845ad3d59bd9653f200f220920489ca2b5937696c318360405161148b9190611e37565b60405180910390a3505050565b6114a384848461100b565b6114af84848484611700565b6114ee576040517f08c379a00000000000000000000000000000000000000000000000000000000081526004016114e590612e59565b60405180910390fd5b50505050565b600081600001549050919050565b6001816000016000828254019250508190555050565b611532828260405180602001604052806000815250611887565b5050565b61153f82610e00565b61157e576040517f08c379a000000000000000000000000000000000000000000000000000000000815260040161157590612eeb565b60405180910390fd5b806006600084815260200190815260200160002090805190602001906115a5929190611ce0565b505050565b60606115b582610e00565b6115f4576040517f08c379a00000000000000000000000000000000000000000000000000000000081526004016115eb90612f7d565b60405180910390fd5b6000600660008481526020019081526020016000208054611614906125bf565b80601f0160208091040260200160405190810160405280929190818152602001828054611640906125bf565b801561168d5780601f106116625761010080835404028352916020019161168d565b820191906000526020600020905b81548152906001019060200180831161167057829003601f168201915b50505050509050600061169e6118e2565b905060008151036116b35781925050506116f6565b6000825111156116e85780826040516020016116d0929190612fd9565b604051602081830303815290604052925050506116f6565b6116f1846118f9565b925050505b919050565b505050565b60006117218473ffffffffffffffffffffffffffffffffffffffff166119a0565b1561187a578373ffffffffffffffffffffffffffffffffffffffff1663150b7a0261174a610e6c565b8786866040518563ffffffff1660e01b815260040161176c9493929190613052565b6020604051808303816000875af19250505080156117a857506040513d601f19601f820116820180604052508101906117a591906130b3565b60015b61182a573d80600081146117d8576040519150601f19603f3d011682016040523d82523d6000602084013e6117dd565b606091505b506000815103611822576040517f08c379a000000000000000000000000000000000000000000000000000000000815260040161181990612e59565b60405180910390fd5b805181602001fd5b63150b7a0260e01b7bffffffffffffffffffffffffffffffffffffffffffffffffffffffff1916817bffffffffffffffffffffffffffffffffffffffffffffffffffffffff19161491505061187f565b600190505b949350505050565b61189183836119b3565b61189e6000848484611700565b6118dd576040517f08c379a00000000000000000000000000000000000000000000000000000000081526004016118d490612e59565b60405180910390fd5b505050565b606060405180602001604052806000815250905090565b606061190482610e00565b611943576040517f08c379a000000000000000000000000000000000000000000000000000000000815260040161193a90613152565b60405180910390fd5b600061194d6118e2565b9050600081511161196d5760405180602001604052806000815250611998565b8061197784611b80565b604051602001611988929190612fd9565b6040516020818303038152906040525b915050919050565b600080823b905060008111915050919050565b600073ffffffffffffffffffffffffffffffffffffffff168273ffffffffffffffffffffffffffffffffffffffff1603611a22576040517f08c379a0000000000000000000000000000000000000000000000000000000008152600401611a19906131be565b60405180910390fd5b611a2b81610e00565b15611a6b576040517f08c379a0000000000000000000000000000000000000000000000000000000008152600401611a629061322a565b60405180910390fd5b611a77600083836116fb565b6001600360008473ffffffffffffffffffffffffffffffffffffffff1673ffffffffffffffffffffffffffffffffffffffff1681526020019081526020016000206000828254611ac79190612d25565b92505081905550816002600083815260200190815260200160002060006101000a81548173ffffffffffffffffffffffffffffffffffffffff021916908373ffffffffffffffffffffffffffffffffffffffff160217905550808273ffffffffffffffffffffffffffffffffffffffff16600073ffffffffffffffffffffffffffffffffffffffff167fddf252ad1be2c89b69c2b068fc378daa952ba7f163c4a11628f55a4df523b3ef60405160405180910390a45050565b606060008203611bc7576040518060400160405280600181526020017f30000000000000000000000000000000000000000000000000000000000000008152509050611cdb565b600082905060005b60008214611bf9578080611be29061324a565b915050600a82611bf291906132c1565b9150611bcf565b60008167ffffffffffffffff811115611c1557611c146121d2565b5b6040519080825280601f01601f191660200182016040528015611c475781602001600182028036833780820191505090505b5090505b60008514611cd457600182611c609190612cf1565b9150600a85611c6f91906132f2565b6030611c7b9190612d25565b60f81b818381518110611c9157611c90613323565b5b60200101907effffffffffffffffffffffffffffffffffffffffffffffffffffffffffffff1916908160001a905350600a85611ccd91906132c1565b9450611c4b565b8093505050505b919050565b828054611cec906125bf565b90600052602060002090601f016020900481019282611d0e5760008555611d55565b82601f10611d2757805160ff1916838001178555611d55565b82800160010185558215611d55579182015b82811115611d54578251825591602001919060010190611d39565b5b509050611d629190611d66565b5090565b5b80821115611d7f576000816000905550600101611d67565b5090565b6000604051905090565b600080fd5b600080fd5b60007fffffffff0000000000000000000000000000000000000000000000000000000082169050919050565b611dcc81611d97565b8114611dd757600080fd5b50565b600081359050611de981611dc3565b92915050565b600060208284031215611e0557611e04611d8d565b5b6000611e1384828501611dda565b91505092915050565b60008115159050919050565b611e3181611e1c565b82525050565b6000602082019050611e4c6000830184611e28565b92915050565b600081519050919050565b600082825260208201905092915050565b60005b83811015611e8c578082015181840152602081019050611e71565b83811115611e9b576000848401525b50505050565b6000601f19601f8301169050919050565b6000611ebd82611e52565b611ec78185611e5d565b9350611ed7818560208601611e6e565b611ee081611ea1565b840191505092915050565b60006020820190508181036000830152611f058184611eb2565b905092915050565b6000819050919050565b611f2081611f0d565b8114611f2b57600080fd5b50565b600081359050611f3d81611f17565b92915050565b600060208284031215611f5957611f58611d8d565b5b6000611f6784828501611f2e565b91505092915050565b600073ffffffffffffffffffffffffffffffffffffffff82169050919050565b6000611f9b82611f70565b9050919050565b611fab81611f90565b82525050565b6000602082019050611fc66000830184611fa2565b92915050565b611fd581611f90565b8114611fe057600080fd5b50565b600081359050611ff281611fcc565b92915050565b6000806040838503121561200f5761200e611d8d565b5b600061201d85828601611fe3565b925050602061202e85828601611f2e565b9150509250929050565b60008060006060848603121561205157612050611d8d565b5b600061205f86828701611fe3565b935050602061207086828701611fe3565b925050604061208186828701611f2e565b9150509250925092565b6000602082840312156120a1576120a0611d8d565b5b60006120af84828501611fe3565b91505092915050565b6120c181611f0d565b82525050565b60006020820190506120dc60008301846120b8565b92915050565b6000819050919050565b60006121076121026120fd84611f70565b6120e2565b611f70565b9050919050565b6000612119826120ec565b9050919050565b600061212b8261210e565b9050919050565b61213b81612120565b82525050565b60006020820190506121566000830184612132565b92915050565b61216581611e1c565b811461217057600080fd5b50565b6000813590506121828161215c565b92915050565b6000806040838503121561219f5761219e611d8d565b5b60006121ad85828601611fe3565b92505060206121be85828601612173565b9150509250929050565b600080fd5b600080fd5b7f4e487b7100000000000000000000000000000000000000000000000000000000600052604160045260246000fd5b61220a82611ea1565b810181811067ffffffffffffffff82111715612229576122286121d2565b5b80604052505050565b600061223c611d83565b90506122488282612201565b919050565b600067ffffffffffffffff821115612268576122676121d2565b5b61227182611ea1565b9050602081019050919050565b82818337600083830152505050565b60006122a061229b8461224d565b612232565b9050828152602081018484840111156122bc576122bb6121cd565b5b6122c784828561227e565b509392505050565b600082601f8301126122e4576122e36121c8565b5b81356122f484826020860161228d565b91505092915050565b6000806000806080858703121561231757612316611d8d565b5b600061232587828801611fe3565b945050602061233687828801611fe3565b935050604061234787828801611f2e565b925050606085013567ffffffffffffffff81111561236857612367611d92565b5b612374878288016122cf565b91505092959194509250565b600067ffffffffffffffff82111561239b5761239a6121d2565b5b6123a482611ea1565b9050602081019050919050565b60006123c46123bf84612380565b612232565b9050828152602081018484840111156123e0576123df6121cd565b5b6123eb84828561227e565b509392505050565b600082601f830112612408576124076121c8565b5b81356124188482602086016123b1565b91505092915050565b6000819050919050565b61243481612421565b811461243f57600080fd5b50565b6000813590506124518161242b565b92915050565b600080fd5b60008190508260206008028201111561247857612477612457565b5b92915050565b6000806000806000806000806101e0898b03121561249f5761249e611d8d565b5b60006124ad8b828c01611fe3565b985050602089013567ffffffffffffffff8111156124ce576124cd611d92565b5b6124da8b828c016123f3565b97505060406124eb8b828c01611f2e565b96505060606124fc8b828c01611f2e565b955050608061250d8b828c01612442565b94505060a061251e8b828c01611f2e565b93505060c061252f8b828c01611f2e565b92505060e06125408b828c0161245c565b9150509295985092959890939650565b6000806040838503121561256757612566611d8d565b5b600061257585828601611fe3565b925050602061258685828601611fe3565b9150509250929050565b7f4e487b7100000000000000000000000000000000000000000000000000000000600052602260045260246000fd5b600060028204905060018216806125d757607f821691505b6020821081036125ea576125e9612590565b5b50919050565b7f4552433732313a20617070726f76656420717565727920666f72206e6f6e657860008201527f697374656e7420746f6b656e0000000000000000000000000000000000000000602082015250565b600061264c602c83611e5d565b9150612657826125f0565b604082019050919050565b6000602082019050818103600083015261267b8161263f565b9050919050565b7f4552433732313a20617070726f76616c20746f2063757272656e74206f776e6560008201527f7200000000000000000000000000000000000000000000000000000000000000602082015250565b60006126de602183611e5d565b91506126e982612682565b604082019050919050565b6000602082019050818103600083015261270d816126d1565b9050919050565b7f4552433732313a20617070726f76652063616c6c6572206973206e6f74206f7760008201527f6e6572206e6f7220617070726f76656420666f7220616c6c0000000000000000602082015250565b6000612770603883611e5d565b915061277b82612714565b604082019050919050565b6000602082019050818103600083015261279f81612763565b9050919050565b7f4552433732313a207472616e736665722063616c6c6572206973206e6f74206f60008201527f776e6572206e6f7220617070726f766564000000000000000000000000000000602082015250565b6000612802603183611e5d565b915061280d826127a6565b604082019050919050565b60006020820190508181036000830152612831816127f5565b9050919050565b7f4552433732313a206f776e657220717565727920666f72206e6f6e657869737460008201527f656e7420746f6b656e0000000000000000000000000000000000000000000000602082015250565b6000612894602983611e5d565b915061289f82612838565b604082019050919050565b600060208201905081810360008301526128c381612887565b9050919050565b7f4552433732313a2062616c616e636520717565727920666f7220746865207a6560008201527f726f206164647265737300000000000000000000000000000000000000000000602082015250565b6000612926602a83611e5d565b9150612931826128ca565b604082019050919050565b6000602082019050818103600083015261295581612919565b9050919050565b7f4f776e61626c653a2063616c6c6572206973206e6f7420746865206f776e6572600082015250565b6000612992602083611e5d565b915061299d8261295c565b602082019050919050565b600060208201905081810360008301526129c181612985565b9050919050565b6129d181612421565b82525050565b6129e4610100838361227e565b5050565b60006101a0820190506129fe60008301896120b8565b612a0b60208301886120b8565b612a1860408301876129c8565b612a2560608301866120b8565b612a3260808301856120b8565b612a3f60a08301846129d7565b979650505050505050565b6000604082019050612a5f60008301856120b8565b8181036020830152612a718184611eb2565b90509392505050565b7f4f776e61626c653a206e6577206f776e657220697320746865207a65726f206160008201527f6464726573730000000000000000000000000000000000000000000000000000602082015250565b6000612ad6602683611e5d565b9150612ae182612a7a565b604082019050919050565b60006020820190508181036000830152612b0581612ac9565b9050919050565b7f4552433732313a206f70657261746f7220717565727920666f72206e6f6e657860008201527f697374656e7420746f6b656e0000000000000000000000000000000000000000602082015250565b6000612b68602c83611e5d565b9150612b7382612b0c565b604082019050919050565b60006020820190508181036000830152612b9781612b5b565b9050919050565b7f4552433732313a207472616e73666572206f6620746f6b656e2074686174206960008201527f73206e6f74206f776e0000000000000000000000000000000000000000000000602082015250565b6000612bfa602983611e5d565b9150612c0582612b9e565b604082019050919050565b60006020820190508181036000830152612c2981612bed565b9050919050565b7f4552433732313a207472616e7366657220746f20746865207a65726f2061646460008201527f7265737300000000000000000000000000000000000000000000000000000000602082015250565b6000612c8c602483611e5d565b9150612c9782612c30565b604082019050919050565b60006020820190508181036000830152612cbb81612c7f565b9050919050565b7f4e487b7100000000000000000000000000000000000000000000000000000000600052601160045260246000fd5b6000612cfc82611f0d565b9150612d0783611f0d565b925082821015612d1a57612d19612cc2565b5b828203905092915050565b6000612d3082611f0d565b9150612d3b83611f0d565b9250827fffffffffffffffffffffffffffffffffffffffffffffffffffffffffffffffff03821115612d7057612d6f612cc2565b5b828201905092915050565b7f4552433732313a20617070726f766520746f2063616c6c657200000000000000600082015250565b6000612db1601983611e5d565b9150612dbc82612d7b565b602082019050919050565b60006020820190508181036000830152612de081612da4565b9050919050565b7f4552433732313a207472616e7366657220746f206e6f6e20455243373231526560008201527f63656976657220696d706c656d656e7465720000000000000000000000000000602082015250565b6000612e43603283611e5d565b9150612e4e82612de7565b604082019050919050565b60006020820190508181036000830152612e7281612e36565b9050919050565b7f45524337323155524953746f726167653a2055524920736574206f66206e6f6e60008201527f6578697374656e7420746f6b656e000000000000000000000000000000000000602082015250565b6000612ed5602e83611e5d565b9150612ee082612e79565b604082019050919050565b60006020820190508181036000830152612f0481612ec8565b9050919050565b7f45524337323155524953746f726167653a2055524920717565727920666f722060008201527f6e6f6e6578697374656e7420746f6b656e000000000000000000000000000000602082015250565b6000612f67603183611e5d565b9150612f7282612f0b565b604082019050919050565b60006020820190508181036000830152612f9681612f5a565b9050919050565b600081905092915050565b6000612fb382611e52565b612fbd8185612f9d565b9350612fcd818560208601611e6e565b80840191505092915050565b6000612fe58285612fa8565b9150612ff18284612fa8565b91508190509392505050565b600081519050919050565b600082825260208201905092915050565b600061302482612ffd565b61302e8185613008565b935061303e818560208601611e6e565b61304781611ea1565b840191505092915050565b60006080820190506130676000830187611fa2565b6130746020830186611fa2565b61308160408301856120b8565b81810360608301526130938184613019565b905095945050505050565b6000815190506130ad81611dc3565b92915050565b6000602082840312156130c9576130c8611d8d565b5b60006130d78482850161309e565b91505092915050565b7f4552433732314d657461646174613a2055524920717565727920666f72206e6f60008201527f6e6578697374656e7420746f6b656e0000000000000000000000000000000000602082015250565b600061313c602f83611e5d565b9150613147826130e0565b604082019050919050565b6000602082019050818103600083015261316b8161312f565b9050919050565b7f4552433732313a206d696e7420746f20746865207a65726f2061646472657373600082015250565b60006131a8602083611e5d565b91506131b382613172565b602082019050919050565b600060208201905081810360008301526131d78161319b565b9050919050565b7f4552433732313a20746f6b656e20616c7265616479206d696e74656400000000600082015250565b6000613214601c83611e5d565b915061321f826131de565b602082019050919050565b6000602082019050818103600083015261324381613207565b9050919050565b600061325582611f0d565b91507fffffffffffffffffffffffffffffffffffffffffffffffffffffffffffffffff820361328757613286612cc2565b5b600182019050919050565b7f4e487b7100000000000000000000000000000000000000000000000000000000600052601260045260246000fd5b60006132cc82611f0d565b91506132d783611f0d565b9250826132e7576132e6613292565b5b828204905092915050565b60006132fd82611f0d565b915061330883611f0d565b92508261331857613317613292565b5b828206905092915050565b7f4e487b7100000000000000000000000000000000000000000000000000000000600052603260045260246000fdfea264697066735822122038f67912677ff490ba90d4c96d3135a6fe9d8397a011eec09b9f75db66a453b064736f6c634300080d0033",
  "linkReferences": {},
  "deployedLinkReferences": {}
}